:20000000004C002031570000FDC90110FDC90110FDC90110FDC90110FDC90110FDC90110E2
:1C002000FDC90110FDC90110FDC90110FDC90110FDC90110FDC901103BCA0110A4
:20003C00A36100007F1407134D00F1242E1F133FB00A3F0007FF00003040004001400340BF
:20005C0007400F404F40CF40CF41CF43CF47CF4FCF3FCF2FCF1FCF0F000000000F0008000B
:20007C0000003F00000040003F000000040068000E00DC00060043001A00050000000000E8
:20009C00020000003F00000000000400C00000000400C0000000070050C00091007070C033
:2000BC000091007082312100319110B10070018101B100A18231329110B1019111104181DB
:2000DC0041224F40F106007051C0019130181039833108D01831416F3100319110B18314A7
:2000FC0014165B680070251050C00091F4C3C0C02014036F3110410422C0823121003191D6
:20011C0010B163393110410482C082312100319110B163393110A2C082312100319110B1B1
:20013C00501015310514059200703F6452C0311031066131C102426412C1311021397106D0
:20015C005131E102426400708A65996588C0208250398039001E9F4041C001301814181A62
:20017C0089C0308260398039001EA94041C001301914191A3C64369110B1349110B154B0CB
:20019C00007154A064B0F0800022AF404012B09032B053825339533985643F6411C122C1A7
:2001BC00426470C1C26811C1C2C0426470C1C76850C000912772989215161416421053105A
:2001DC00F0C12182313131398139313151B070B272652772999270B262107310F0C331828C
:2001FC002131213981391B107265E2C08231608280318039020061B00071329110B151A0E1
:20021C0061B0277230C2F36800008012B09032B0007050C000912772999262107310F0C39A
:20023C00318221312139813951B070B27E652772989270B242105310F0C1218231313139C9
:20025C00813931311A107E6551A061B02772B0C018693F6401C122C1426401C1C2C04264F5
:20027C00151A3C64359110B153828564C012B09032B000703F6472C281C0426422C111C177
:20029C00426402C011C1426462C031C3426462C311C1426402C311C1426453825339856482
:2002BC00E2C347641122404142C281C8426452C211C1426472C2E1CE426402C281C8426463
:2002DC0002C201C84264B0C0546900703F6442C201C8426452C211C0426472C2E1C0426416
:2002FC0002C001C1426462C001C3426422C101C1426462C301C1426402C301C14264538252
:20031C008564007061B000711214231C7A4D339110B10070329110B17269007061B0007174
:20033C001318321C8649329110B10070339110B17E690070C2C047641510C2C012164764E2
:20035C0041311514C0C0803105145410A07804040070E6C0863101CC161467106182F0C347
:20037C00010417140070067305720B720E7250B00071818060B050A092804122C3458080E5
:20039C00F1C11004301601110114016CD661D761D861D961DA61DB61DC61DE61E061E26148
:2003BC00E461366339639180F2C0210421318280422A1214321601112114016CEE610B6221
:2003DC00F4613963EE610B62F4613963E661E661E661E661E661E6619464E661F964E661D6
:2003FC002A65E6615665E6614667E6611012B0900E720673057210123090A761F0CF3C67F7
:20041C00D4C103C0C0C3546440785091507810926078209270783092807840929078609232
:20043C003078909110824039F00601101031101400924267E661BCA0E2A054A0F08050222A
:20045C001546408000222B470D6240A02D828D318D391082F1C0100409101A824A391A04A2
:20047C001082803910040E10AB10BC10C21063642972E0CF3C6713B003B0C86653B050B02F
:20049C0054B064B013B0A5661082E0223846AE660071418001222B47F08010224B46F02228
:2004BC00184764B03122384263B0CE661082E02238467066386264B06F818F318F3DD0DFD8
:2004DC00FF923C670071418001222B4764B0F0805022654263B01182C1226046CE66056799
:2004FC001182D122524670665262618172818131813D8231823DC0EFF19202933C670B62AA
:20051C00B081C091D381978290A2D3187F4EF30B1316E31CA44AC391E3813B149062BA1C03
:20053C008B46231E8B4AE31C8B4E90B207228B4290A21B1A9662E31CA44AC391E3813B1851
:20055C00AB1CA04E9B1CA24ABC1CA442B2101082D0229D42F0801022A4466364A566A462E0
:20057C00AB1094629B10946200703082F1C0100463B00071A86ABC10E0B00070B281C2913E
:20059C00D281018212185181121841828131813D121CBF4AE2B032B0B0DFF2923C67F1C7F7
:2005BC002114C34E12C86291729131B0E1B0007008C006C000C86091709100700182B081BB
:2005DC00C091D0811018518110180614E18042828231823D201CE44AE2B02122E84632B03B
:2005FC000510A0DFF5923C672122E842E2A032B031824139F0C00104011EF642181610C019
:20061C001030081C04476010103C0610F1C76114FA4E16C8669171818131813D161C014B13
:20063C00769131B006C008C0007061818131813D408280390118F11C174B0114B080C0223C
:20065C001747BCB033B090EFF1920F933C67007003A063B064B0EFB05665007140800022A3
:20067C002B4764B02A65EFA00071408000222B4764B003B03862018262818231823D80EF4D
:20069C00F19202933C6703A05665E661A2806364E66150B00071E661E092D08200223D478C
:2006BC00C0B20070A080F022594330B002C1623101C0A080001E5243F0225343A0F56031D6
:2006DC00603953632010101A136F236E11161216546B0070BD0400214D04002181040021CA
:2006FC008504002121050021A10500215106002179060021F8B51047F8B50E4600210125C2
:20071C00AD0430470A48037800F00FF89B070BD0124C2078FF2807D0FF2121700E490F2425
:20073C00240220436031C882F8BDF8B5014800476B020021E54C0000094801E00848000CFA
:20075C00064C05492278FF2A01D1CA7A22706031C8827046801C004700620840C806002165
:20077C00070F0808F0B4084710B50148004700008909000070B503461546012906D000296B
:20079C0006D0114A2846FFF7B5FF70BD0F4800E00F480524834203D84008641E002CF9DCA5
:2007BC00E340012040031818820B012907D00649002380312846FFF79FFFE0B270BD0249A9
:2007DC00044B6C31F6E70000835C0000A0BC862300830D2398060021F8B51A4E0546716BA2
:2007FC001948CC09E401002D11D01849097802290FD0007B044372B60120154F4002B84718
:20081C00114820380088C109C90704D016E0C07AF0E7407BEEE70F497463CC61400AC00711
:20083C000CD001208003316B002D01D0014300E08143084631630749403948630020B84725
:20085C0062B6F8BD80020021880000219B0200217B3F00004040044010B5224A0021516123
:20087C0021498968C90009D42149204BCA0598424B6B01D8134300E093434B631D49FFF738
:20089C0071FF10BD38B51A4D287F002827D11A480088C009C00722D1124C606900281ED139
:2008BC00684600F04FF868460078012817D168464078102813D208206061686A4009400138
:2008DC0020600E4A0021D1620D4A02211160012108432060032108436862206038BD0948F9
:2008FC00804738BD00400440180000210000930880020021CF680000680000210011044010
:20091C0080E200E0C33B00000749002800D00420064A72B60978C90701D0105800E080208D
:20093C0062B640B2704700006B0200215860044010B5034CFFF718FF20680028FAD110BDE7
:20095C000011044003B40148019001BDA56F000000000000010003000A001F005900EB0052
:20097C003902EA04F9099712EB1FA132784A0A66FA828C9E63B617C964D6EDDEC1E3E0E56B
:20099C00FF000000941F0020000A000000000000941F00200C0A000001000000DC1F00205A
:2009BC00180A000000000000DC1F0020240A00000100000024200020300A00000000000011
:2009DC00242000203C0A0000010000006C200020480A0000000000006C200020540A000048
:2009FC0001000000000001401FFF0000170000000000014020FF000018000000001001409B
:200A1C0021FF0100190000000010014022FF01001A0000000020014023FF02001B00000053
:200A3C000020014024FF02001C0000000030014025FF03001D0000000030014026FF0300AA
:200A5C001E0000008F0000008F0001008F0002008F000300900000018F0001019000000266
:200A7C00900000038F0001048F0000058F0008048F0000048F000006510000007F0001000B
:200A9C003F0004003F0002003F0001007F0002007B756E6B6E6F776E2D696E7374616E634D
:200ABC00652D6E616D657D007B656D7074792D696E7374616E63652D6E616D657D00C046ED
:200ADC007B7374617469632D696E7374616E63652D6E616D657D00C0000000000800000062
:200AFC0000000000200000004000000060000000000000000600000002000000860000008C
:200B1C008200000000000000080000001000000018000000200000000608808007088080CA
:200B3C000D2007C00E2007C01400C080024000800300C0800108C0801E08C08009400080DF
:200B5C00084000800A400080FE000000C9420000E14E0000FD65000009260000812B000072
:200B7C00C1690000E54C0000C9300000C769000055430000000032000000FF00000000000C
:200B9C00010002000400100000FF080004000001000200040008000000000000FFFFFFFF0C
:200BBC00FFFFFFFF00000000000000000101010100C2010003000000000000007BC80110FF
:200BDC00C5BC0110D9B2011033C20110BDAD0110C1B101106DBA011065BB01101DC0011070
:200BFC00001000400600000015000000FF000000000000000302FFFF00000000000000006C
:200C1C00FFFFFFFFC4090000000000003342000001001A010000000000000000010000005D
:200C3C0000000000000000000000010000000000000000000D380000D54A00000101010030
:200C5C00680B0000481D0020FC0B00007151000095A6011015B80110010B01010802010173
:200C7C00FF00000000000000FFFF000000250020003500200A000000683A0020CD650000C3
:200CA00000C500000F8906010075008532CF054566FF0000414F0000ED69FE34D30718001C
:200CC00000384037FF00A3840600204000FF7F64404000030507FFB123053305830548FF89
:200CE0000A0306B87A02009FFF84020044C7030401FF02638410004302B0FF040200DF7D28
:200D0000838803FF008460F13588601AFF418C601382A388FBFF000200F80C430900EB0097
:200D2000630030FF0000B43800E92000310A39043C850200007B481B01B307C201100D3F39
:200D400006B6013F06C5A74113AD671057C0C73A00200175027D02F540117E137D01005CCD
:200D60003900200031B201BF027801B000310438170908DF284E9055554931FA005F1058ED
:200D80000000FC179EB00530AA0031B80034C00034C80034D06A0034D80034E00034054132
:200DA0004E9741054F4013C24FC802F150B1100EB0AA003118003420003428003430EA00DA
:200DC00034380034070BFA61040FFE23602606A0E008003F7BAB541A705F03008006F18F13
:200DE0009C0100200031253124E9776D625813FFFF589F0C03082989CC05500C0C1963027C
:200E00003004710014425D22CC1F9003295E710425F12A747B91472AB0088080060030EDD2
:200E2000FE6080BF2F0033143B00552000311C00342400342C0034553400343C0034440045
:200E4000344C0034155400345C003464003466BF022C75006870FFF0007D000000883B004A
:200E600020780030597C007000F1004C00700400927F200101000090220174000044FFF027
:200E800000F30100000700B9103A0020EC01A80252803B0133340100052000313C0034FF62
:200EA000F0009D0000016CDC02007200C064EF3900200300C47D5E001F0047670000FFF01E
:200EC00000BD000005390020E000300178010000310029683A0020003100FFF0007B0100B5
:200EE000000F00B0390020016100FFF0B54D00009B6800003D690000001F6C3B00200000F8
:200F000000FFF0001D000001390020FFF000000002000000F4220000000F08000000FFF05E
:200F20000001000000FFF00001000004FFF00000A00C000000350020580E00004401002001
:200F4000800E000000010020A10E0000A4010020C00E000078010020DC0E0000C801002034
:200F6000F80E0000F8010020030F0000E4010020100F000008020020180F000000020020A9
:100F8000200F0000EC010020270F0000F0010020DE
:201000003C000000000000000000000034100000000000000000000001000000000000004F
:1C10200000000000000000000000000001000000000000000800000000000000AB
:20103C003400000000000000000000006810000000000000000000000100000000000000E7
:14105C00010000000000000000000000080000000000000077
:2010700030000000000000000000000098100000040000000000000001000000FFFFFFFF87
:10109000FF00000001000000080000000000000048
:2010A0002C0000000000000000000000C4100000040000000000000001000000FFFFFFFF2F
:0C10C000FFFFFFFF080000000000000020
:2010CC0038140000E410000095A1011091A70110A1C2011009B2011041B80110A5BC011078
:0810EC0085BC01102F0000007B
:2010F400280000000000000000000000141100000000000000000000FFFFFFFF0000000093
:081114000800000000000000CB
:20111C00341400003011000065C2011069C101101BC2011091BA011005BC0110E5BB0110EA
:04113C00330000007C
:20114000341400005411000071C20110A5B6011099BF011045B60110B5BA011025BC01104B
:041160003400000057
:201164002400000000000000000000008011000000000000000000000000000008000000AE
:041184000000000067
:20118800240000000000000000000000A41100000000000000000000000000000800000066
:0411A8000000000043
:2011AC00240000000000000000000000C8110000000000000100000000000000080000001D
:0411CC00000000001F
:2011D00000000000143B0020040000000000000000000000200000007010000030000000BC
:2011F0001C1100001C3B00200400000000000000000000000C0000003013000018000000D0
:2012100040110000243B002004000000000000000000000024000000481300001800000053
:20123000000000002C3B002004000000000000000000000010000000A01000002C00000027
:20125000CC100000343B002004000000000000000000000020000000641100002400000056
:20127000FFFFFFFF3C3B0020040000000000000000000000280000008811000024000000E2
:20129000FFFFFFFF443B0020040000000000000000000000580000003C10000034000000C7
:2012B000FFFFFFFF4C3B0020040000000000000000000000100000006013000018000000DC
:2012D000FFFFFFFF543B00200400000000000000000000001C000000AC1100002400000052
:2012F000FFFFFFFF5C3B002004000000000000000000000038000000F410000028000000C3
:20131000FFFFFFFF643B002004000000000000000000000054000000001000003C0000005E
:1813300018000000000000000000000040130000080000000000000032
:1813480018000000000000000000000058130000080000000000000002
:18136000180000000000000000000000701300000800000000000000D2
:0813780001000000980C0000C8
:041384000100000064
:0413880000000E0053
:04138C0000000F004E
:041390003200000027
:041394000100000054
:04139800C03A002037
:04139C00000200004B
:0413A0000000000049
:0413A400FDC901106E
:0413A8000000000041
:0413AC00000000003D
:0413B0000800000031
:0413B4000000220013
:0413B8004839002090
:0413BC00010000002C
:0413C000D83A0020F7
:0413C400080000001D
:0413C8000000000021
:0413CC00000000001D
:0413D0000000000019
:0413D400080000000D
:0413D8000000000011
:0413DC00000000000D
:0413E0000100000008
:0413E400E0390020CC
:0413E80006000000FB
:0413EC0001000000FC
:0413F000B4380020ED
:0413F40000000000F5
:0413F80000000000F1
:0413FC0000020000EB
:0414000000000000E8
:021406002900BB
:021408000100E1
:02140A002400BC
:02140C003300AB
:02140E003400A8
:021410002F00AB
:021412000100D7
:0114140001D6
:0814180003000000680C000055
:081420000000000000000000C4
:0414280000000100BF
:04142C0000000300B9
:0414300059630000FC
:041434003C14000064
:041438003C14000060
:04143C0000000000AC
:041440009000000018
:041444009000000014
:0414480000000000A0
:04144C00D83A00206A
:04145000F967000038
:041454002000000074
:04145800380C00004C
:04145C00D80B0000A9
:0414600009C30110AB
:04146400B768000065
:04146800FD6900001A
:04146C0095C801100E
:0414700097C8011008
:041474000200000072
:041478004A0C00001A
:04147C00C40A00009E
:04148000DC0A000082
:04148400AC0A0000AE
:0214880008005A
:02148A00090057
:02148C0001005D
:02148E0000005C
:01149000015A
:041494000000000054
:041498000000000050
:04149C00000000004C
:0414A0000000000048
:0414A400F5690000E6
:0414A800AD5E000035
:0414AC0011620000C9
:0414B000BD5C00001F
:0414B400595D00007E
:0414B800DD5E0000F5
:0414BC00F1490000F2
:0414C000A968000017
:0414C400CD51000006
:0414C8000DC801103A
:0414CC001DC8011026
:0414D0000800000010
:0414D40024000000F0
:0414D80018000000F8
:0414DC0028000000E4
:0414E00020000000E8
:0414E4003C000000C8
:0414E8000C000000F4
:0414EC0034000000C8
:2014F000BA482DE9F84F0025B94CB749056094F8E200002800F06381012800F02F81B54EB8
:2015100002283CD0032840F05A8151F8250CD4F8B8100029A0F5C060C4F8D400B8BF4942D1
:201530000028B8BF4042814226DA4FF08057D7F8A4014568B4F8BC0030214FF47F42082398
:2015500000903046A847D7F8A4014568B4F8C00004214FF4F802122300903046A847D7F89E
:20157000A401B4F8D070456820214FF440620A2330460097A847012584F8D8501AE151F8C0
:20159000258C05F0A3F92F4600B901273946924F38680028FCD0B146012609F10409D9F8B9
:2015B0002CA03E6009B105F097F9CAF30720C4F8BC0005F08BF9AA4600B9B2463B68002B2E
:2015D000FCD0D9F800B0BAF1000F3E6001D005F083F9CBF38440C4F8C00005F077F9AA46C1
:2015F00000B9B2463B68002BFCD0D9F81C90BAF1000F3E6001D005F06FF9C9F38120C4F874
:20161000D000B8F5C061C4F8B81000F09C8094F8D80068B9C4F8D410D4F8C000C4F8C80057
:20163000D4F8BC70C4F8C470D4F8D030C4F8CC30D4F8D410D4F8BC30002954BF02206FF009
:20165000010004F1C802176801EB41014018411000EB917107EBA1001060D4F8C810C4F814
:20167000C43000291CDD1E293CDDD4F8CC0030B93429B4BF15391E21C4F8C81025E02A291A
:20169000BABFD4F8C8000B381E20C4F8C800D4F8C4003F28B4BF401C3F20C4F8C4001FE084
:2016B000D4F8CC00032812D011F10B0FC6BFD4F8C8000B30301CC4F8C800D4F8C40000287D
:2016D000C4BF401E051CC4F8C450032508E011F1150FC6BFD4F8C8001530301CC4F8C800C4
:2016F000C4F8CC504FF08057D7F8A401B4F8C43030214FF47F424568364800930823A847AB
:20171000D7F8A40104214FF400321123456831480096A847B4F8C860D7F8A40104214FF41C
:20173000F802122345682B480096A847D7F8A40120214FF440620A23B4F8CC60456825480C
:201750000096A84701E084F8D85040F2FF50404502D8801C40452DD208202EE051F8251CAF
:201770001E4F4BF2F5204843060A3868C0F3814001280AD104F072FC04F0D8F805F0B2F822
:201790003111C010484306EBE03694F8E50030B91348006820F07F408019460801E084F865
:2017B000E5501048310C0660012741600E4D8760287808B90B2000E0052084F8E40000F0FD
:2017D0004FFEBDE8F88FC0462D400C402C500C404037002000A00C4000800C40B43F005067
:2017F000102009403C600C405A0C00002DE9FE43B64C0F460646F80B80F03F81B80880F0B5
:201810002C81207BB90F80F0A580A07A002840F085803809C0F08480E07A20B10020E0720A
:20183000052004F00FFA00254FF001086570284684F8088004F018FDA54904F178002A46EE
:2018500005F0BFF86079012818D1A079B0B9DFF88482D8F8000000283AD004F077FFA1690C
:201870004346401A000BE0611968226A8018B0EBC11F98BF20622BD9256201E084F80580C3
:2018900040F609002087944994F845000A1D00F0F00040F0010084F845001368658794F8B8
:2018B000440000F0F00084F8440023F002001060E5636FF002020A6004F1380341F8103CE5
:2018D00008688008FCD30A60486840F002004860A56104F049F881480560022004F0B2F913
:2018F000112002F015F9307C10B90E2002F010F925726572A078012803D006F1400005F05B
:201910002FF9774804F0D0FF76490878F8B10D7004F1D400042104F0C9FE18E0380914D2E0
:20193000B80BC0F0CB8004F1280005F055F8061C08D0706830B17568F068B6F91C10002295
:201950002023A84727F40057B8E00020A07227F00807B3E020B1042004F074F90020207347
:20197000B168088840F602084FF0000980450AD0B0F5C15F07D00A8B4FF61F60104040F40E
:201990003470088306E00A8A4FF61F60104040F434700882A069C0B1042004F0DBFAA0B160
:2019B00004F0D4FEA169814226BF401A401E401A000BF060708AF168401840F6C411F0602C
:2019D00081422CBFB0F5FA7FF160B5699DB14648A84210D094F8450010F00F0F0BD1718D4D
:2019F00008F10700884206D130466FF480714A464FF00073A8473D4904F178004A4604F0C4
:201A1000E0FFA07958B10220ADF80000684604F03BFC84F80690BDF80800A4F87400012015
:201A300060702079401C207104F1240084F8079004F0D2FF002808BF47F0020702D0192015
:201A500004F0FCFE75692DB1494630464FF080630A46A84727F0005730E004F13005284650
:201A700004F0BAFF01F0A6FB284604F0B5FF27F0020708B147F0020720E005F06DF8014647
:201A900004F12C0004F0A8FF0646B569A80810D27EB125EA0500B061084605F059F87068BE
:201AB00050B12A46F068B6F91C1075680023A84702E0084605F04CF827F4804727B104F16B
:201AD000D400394604F0F2FDBDE8FE8300350020A5610000E424002010100440000004604F
:201AF000C12F0000E024002033420000A92D00002DE9F047DFF80CA20746AAF13500DFF8B1
:201B1000F8810068800880F0E78004F0A7FA814908310B6800261A17990D02F101020AD29B
:201B3000C0F13E0110F10A0F4FEAE101D8BF08218A42B8BF0A1CDFF8C4C1990E0FD2590EFC
:201B50000DD36446143C2168C1F304211629A8BF20392468C4F30464162C0EDB0CE0634CC9
:201B7000D4F87C11C1F304611629A8BF20392468C4F30444162C00DB203C5118A146162951
:201B900005DA11F10A0FB8BF6FF0090100E01521574C584D01F01F0242F4F85222802A6837
:201BB00012F0030F18BF0126D20828BF46F002060FB146F00406424692F90740041B052C5A
:201BD00004DA9479B44208BF918865D00F28A0F10F0827DB08EB0014A4F1F0084FEA282EFB
:201BF000BEF1070F88BF4FF0070E7546062D88BF06255CF82570042404EB850465462C595C
:201C1000E41B04F0FF05F70824BFC4F307273D44B70824BFC4F307473D44770828BF05EBF7
:201C3000146501E00025AE465CF82EC0F7080CF0FF0424BFCCF307273C44B70824BFCCF330
:201C500007473C44770828BF04EB1C64ADB2A8EB0E27B9EB010105FB07F505F1800504EB9E
:201C70001524D8BF012103F0FF0334254D435D434FF6FF73B5FBF4F18B4238BF191C8028F7
:201C900089B2918005DA10F1800FB8BF6FF07F0000E07F20D0719671194800681F291060DC
:201CB0004FF0000008D340F2FF128A4206D24908401C8A42FBD301E01F219180124F0F39F1
:201CD000090940EAC10047EA0001CAF8FB1F0026CAF8FF6FBDE8F0870C490D4F4246082016
:201CF0000F60921D1070BDE8F087C0463C1100506E62084024220840D82400209C130050B6
:201D1000082009403500094000E7A48030100940FDFDA400AC3F00502DE9F04F0128ADF13B
:201D3000140D40F0EE80DFF814B2DBF8DC00012840F0E4800220CBF8DC0004F005FF029080
:201D5000012003F031FD5FEA000806D00120CBF8DC00029804F0F4FED5E004F0EDFE6C4981
:201D7000039000200860012004F0F4F8012818BF002003D1002003F0DBF8012065490090FE
:201D90000020654F08603868112004F0B7FD00280CBF00240124102004F0B0FD08B144F084
:201DB00002040F2004F0AAFD08B144F004040B2004F0A4FD28B159480068594E016B3088E1
:201DD00088470A2004F09AFD002600B101264FF0805A0AF5DC75301C04D02868514E016B4D
:201DF000308888475048012606602868816944F0200088474D48066004F07AFD00F0010132
:201E10000191400814D24A4804F038FD8146B9F1040FF8D0B9F1010F05D1DAF8D801426806
:201E30004348032190474349086820F0030008600020FFF75DFE2B683868986B804701988E
:201E500001280DD0B9F1010F05D1DAF8D80142683748314690473749086840F0030008602F
:201E70002C48066028684169204688470B2004F045FD20B128682A4BC16A188888470A200E
:201E900004F03CFD20B12868264BC16A188888472548032206602549CBF8DC2000230B60E6
:201EB0002868416B204688470128F9D13868042003F07AFC044616481F49066038680868FB
:201ED0008009FCD30098012802D1304603F030F804F002FD082003F067FC07460398CBF859
:201EF000DC6004F025FE03F0B1F8029804F028FE57EA040018BF4FF0FF3804E06FF004084E
:201F100001E06FF00108404605B0BDE8F08FC0460C400940000222432C200940B8010010A9
:201F30008E0A00008A0A0000282008608001044300400340242208401410094040370020D8
:201F50002DE9F04F6D4C383C22690746880FADF1140DC0F0C8805068406808B1804722695E
:201F70005168624E886808B9CD6875B13568002DFCD00022326010B1804720694168C868A8
:201F900000B180475A4804F07FF94FF00008C6F80080584846F81C0C012004F065F958480D
:201FB00004F082FC40F60A09A4F83890A4F83A806379BD6894F84400C34604F1380A00F09B
:201FD000F00084F84400012BC4F83CB094F84500A5F8028000F0F00040F0010084F84500AB
:201FF00001D17B7CC3B1B8680088A9F10801814208D0B0F5C15F05D0298B4FF60F40084084
:20201000288304E0298A4FF60F4008402882B86887F8118001F01CFBB868694601F084FB71
:20203000684604F0EBFB494600E01D466B6813B118888142F9D1C5F804A0687B00F0F0004E
:20205000687304F1240004F0C7FC80680088A9F10701814220D0491C81421DD03B8DEBB187
:2020700097F8340097F83530C7F82CB000F0F00087F8340003F0F00040F0010087F83500A3
:2020900007F12802E2639AF80D00A7F82A8000F0F0008AF80D0001E0C4F81880306800287D
:2020B000FCD0C6F80080B968E37A0A8A4FF6FF301040088273B9012003F04CFF01280FD013
:2020D000687B00F0F00040F0010068730A4804F0EBFB05E003F066FC0028FBD003F080FC59
:2020F000B86846F81C0C05B0BDE8F08F1C1004400100070601010E041551000038350020EC
:20211000FD1700002DE9F04FADF1840D209000F0FDFB04F087F90026012804D104F0E2F918
:20213000022808BF01265B490868C0F38150012806D151F80C0C0127010E07FA01F006430C
:202150005548007804F014F8544D2C46286038B1FF2204F1400107467F1E01F8012BFBD1A4
:20217000209909684FF0000901F0FF02FE2A1DD0DDF880C001F0FF074A460123FF2F0ED00A
:20219000B84203D903FA07F73E4201D002207EE001F0FF0147EA0909611881F840205CF8B3
:2021B000041F521C01F0FF07FE2FE7D1092001F06BFD2098002124220823606017A804F063
:2021D000B3FC4FF0010804F1240017AA8DF87480414604F0A5FC236843B3002794354FF0D9
:2021F000040BBA4608FA07F0064219D119EA000F04BF07F0FF0141F4C04105D0E019209B0A
:2022100090F8401053F82110254801F0B3F9F8B24FF0FF3104F030F92368C5F800A001E051
:20223000C5F800B07F1C2D1D9F42DBD301A800213022082304F070FC1A4E307800251021A0
:2022500001AB0990184A009504F1080004F060FC0DA828220823294604F056FC0DAA706877
:20227000124914952B46139004F1600004F048FC0F4951F80D0C474620F4F85040F4005082
:2022900041F80D0C0B4EC1F8FF7F2846376021B0BDE8F08FB43F0050B6240020B420002021
:2022B000007FC7677C0C0000A5640000A95600000D300940080009402DE9F84F99469246E6
:2022D0008B46064604F048FC604C0090B4F93610B4F934000AAF401A40F6F8710140082965
:2022F00080F29E80B4F9340004F5A075401C6FF31F30A0860820B4F93480EB7F33F07F0384
:2023100004D0401E05F12005F7D1002506F1780004F00AF8C5F808B085F81EA0C5F804900D
:20233000A5F81C804A48EE6097E80C00202100271940104005F1100383E8030004F1240048
:20235000EF770368002B5ED1294603F095FC00285FD0A6F8C080E87F40F08000E87796F816
:20237000C200012804BF86F8C270A771607A40B1607830B10120A0726772A7712079401C3A
:202390002071009804F0E4FBA06A00285BD16078002834D1E079012855D004F0DDFB06460F
:2023B000207A40BBA86803F057FB2B49294A236909681060B0B1DD681068401BB0FBF1F0CA
:2023D000012898BF012104D9DB681068C01AB0FBF1F1B034204604F08FFB204604F088FBA7
:2023F00030462EE0304604F0B3FB04F1D400042104F05CF927E0194901200870F0E71920E8
:2024100004F01CFA1FE004F12400294603F034FC48B9B4F9340000F6FF706FF31F30A086DA
:202430006FF001080CE0A6F8C080E87F40F08000E87796F8C200012804BF86F8C270A771E0
:20245000009804F085FB4046BDE8F88F00350020F1EFFF9FE4240020900C0000E0240020F3
:202470002DE9F843634C5C4D5C4EDFF87881604F94F8E4100846401E0B2864D8DFE800F028
:202490007E2C43062343062343067967042907D001220A2945F8212C14BF0220032004E0A1
:2024B000202045F8210C0120024684F8E200002045F8390C0827C5F8FF7FC5F8F37F45F823
:2024D000392CBDE8F883052914BF09200620002784F8E400376078E094F8E170383D01202E
:2024F000002FC5F81B0004BF0620002102D00021F160032084F8E400032045F8010C3160F6
:202510003068800861D294F8E4103548012703290ED0006845680021602205230091404632
:20253000A84794F8E400062814BF0A200720CFE7006845680021602205230220009040460C
:20255000A8470420C4E704F0CFFABDE8F8832648264F0026012506600E203D6001F0D8FAAD
:20257000022003F06FFB84F8E45084F8E360BDE8F883002038600C25786024E04FF0805960
:20259000D9F8A0010168202088472C3D0F2045F8010C41F61D56C5F80360D9F8A401466871
:2025B00000214FF4C0720723022540460095B047D9F8A401C66800214FF4C0720723404628
:2025D000B0470120386084F8E45004F1780004F08FFABDE8F883C04639400C4038600C40D2
:2025F000A401001000A00C402C500C4004800C4034600C40403700202DE9F04304466668BA
:20261000A7680D46ADF1340D04F0A6FA3178012903D104F09DFA0020A9E04FF0010886F834
:20263000008004F095FA287870706878B07068687060A868B060E868F06028693061287DE0
:202650003075687D7075A87DB075A869B061287F3077687F7077A87FB0774FF00009C6F81F
:202670002090C6F830904D4675627563B562B56386F82C50102386F83C3086F82D5086F81B
:202690003D50786801F000FB204601F09FFA204601F0E4FC70B937480068C1683868884702
:2026B000786801F035FA04F057FA357004F050FA2C465BE001A829463022082304F02CFA86
:2026D0000694387BCDF800902B4A0990B96801AB06F1800004F01CFA01A82946282208235F
:2026F00004F012FA05942549386901AA2B46079006F19C0004F004FA01A829462422082361
:2027100004F012FA8DF81C80B07838B906F1D000294601AA04F004FA19483061707838B9D1
:2027300006F1EC00294601AA04F0FAF91548F06001A829462422082304F0D2F90695ADF870
:2027500014501149079406F584700A2201AB04F0C3F9B969FA6906F1400004F033F80B4A69
:2027700006F16C000421234603F08CFC20460DB0BDE8F083D0010010B52E0000DD5A0000A7
:20279000B3690000AB690000354200005D6800002DE9F8435A4DA5F1300404F1240004F0EE
:2027B0001BF916460F46009004F0D6F906F001088146B7F1FF3F0CD1A06A20B9B4F93600A2
:2027D000401C07B202E0A06AB0F91C70002084F87700384603F000FC0327002800F08A80E7
:2027F000A16A814258D0009B98422ED03BB100990A68904209D0096800290091F7D1832F19
:2028100041D0484604F0A4F93DE004F1B00003F08BFD00980168B20802D20A68026008468A
:20283000002202600091009818B9484604F090F928E0C17F41F00401C177684603F0CAFEE0
:202850000146284603F018FAEDE704F1B00003F06BFDB0083ABF606A006800206062484687
:2028700004F076F90099C87F40F00400C877684603F0B0FE0146284603F0FEF9009808B153
:20289000B008EFD28327E079012836D004F1D400022103F00BFF30E0B10803D3616A009199
:2028B00000276762C27F012101FA08F11143C17704F042F90446B8F1000F14BF114812487E
:2028D00003F0E2FC484604F043F9B00801D3009820B9204604F02CF983270EE0C17F41F0D4
:2028F0000401C177684603F075FE0146284603F0C3F9ECE7484604F02BF93846BDE8F883FC
:202910003035002001000204010001042DE9F0434A4D95F8E700ADF12C0D00287AD13F4FE9
:20293000387B01240021242285F8E7407E6885F8E6000823C5F8106101A804F0D1F8002676
:2029500005F10C00069601ABADF8146034490796324604F0C1F8334905F1300001AB3246FF
:2029700004F0BAF8304905F1540001AB324604F0B3F8B96820468847DFF8BC802B4808F146
:2029900004037A7B00781868C0F3815922B1B9F1030F04D185F8E140B9F1030F1ED0B9F150
:2029B000020F1BD0B9F1010F2DD14FF08059D9F8A4011F4F456831464FF040521C23032000
:2029D00000903846A847D9F8A40131464FF400720923456800943846A84714E0022003F065
:2029F000FDF9B9F1030F0CBF4FF47A7142F21071104800685435B1FBF0F1284604F07CF8BB
:202A1000284604F075F840460068C00802D2304603F0E4F90BB00020BDE8F0834C0C0000BC
:202A30007B4900000946000081450000B624002000A00C40900C0000B03F00504037002055
:202A50002DE9F041424C464D8046C8F38140401E02D0401E2AD025E0284620300168880C74
:202A700020D24FF4804020603A48D0F802204B0AC1F3033703F0800322F08F02134347EA82
:202A90000302C0F80220D0F801300E1266F30303C0F80130026801F0E70722F0E70247EA71
:202AB000020102E04FF00041204601602F4E301D0068C0F3C0070FB94020A0624FF4007051
:202AD000206403F0A3FE40F0300084F8C800C8F3815040B3401E03D0401E1FD002211EE00C
:202AF000012003F037FA07460420394602F0C0F9042003F02FFA8742FAD1361F366826F009
:202B10007F4003F053F914480068036807214FF06022300E98474FF4806020600321042087
:202B300002F0A6F906E00420012102F0A1F90B4803F03CF9284600680A4947F6180700F04C
:202B50003F0084F8CB0F084E0F803068BDE8F08140A00C400A600840B4010010BD37860020
:202B70006C13005070B00C402C200940AC3F00502DE9FC410746BE6833687D68986B20F4DD
:202B9000FA609863AC6B44B13168886B40F4FA6088634FF0FF30BDE8FC81AA632963002472
:202BB000EC776C630CE09DF80000296B08706B6B286BAA6B401C2863581C6863501EA86329
:202BD000A86B90B93168886B40F4FA6088636A6B6878296B0128A1EB0201296303D1EB68D0
:202BF000384698476A6B144646E005F14000694602F05EFE0028D6D503F0AEFF204F804638
:202C1000387820B9022003F0E9F801203870404603F09EFF1B49086840F4007008603168CD
:202C3000886B40F4FA6088636878D8B9696805F1EC0003F04DFF90B9AC6303F08DFF064692
:202C5000387818B1022002F0FDFF3C70304603F07FFF1027696B286BEF77401A2863686B8C
:202C7000BDE8FC8195F82D0030B1686B20B1AC6305F19C0003F028FF2046BDE8FC81C0469A
:202C9000461B002030100040F0B5ADF1340DFFF73DFE374908682822082340F0020008606F
:202CB00001A8002103F030FF324F3A4C3249B878002301AA079004F1D40003F021FF002104
:202CD0003022082301A803F027FF387800261921ADF81C60294A099001AB009604F17800B9
:202CF00003F016FF2822082301A8314603F00CFFF878234901AA3346079004F5847003F0B2
:202D1000FFFE01A831463022082303F005FF01257878ADF81C501A2101AB0990194A009672
:202D300004F1940003F0F4FE1749324604F1B000134603F0D1FE154803F0B6FD144A3346A3
:202D5000042104F14C0003F09DF984F877606671E67126726672A672E6722673A5713746E7
:202D7000A7614FF6FF70A4F874000DB0F0BDC04600200940840C000075660000A56100002D
:202D90000D480000E55300003D680000C12F0000C955000000350020F8B503F0BBFB3F4EAB
:202DB0003D4F0446A00822D3B96A01B33D460020A8628A69086906F108032040104340F0C3
:202DD000020088610A6918689043186001F1100090E80C0030681A1C9043306005F13000DD
:202DF00002F04AFF022105F1D40003F05FFCB86AA10815D200F110020CCA002122400B40F4
:202E1000002B08BF002A0BD0016985690C40F8622C434FF48041846107F1D40003F046FC54
:202E3000B86A002837D107F12404204603F0D4FD051C30D03869E968884226D1A86802F010
:202E50000BFE17490860E0B906F1080128690A6810430860326805F1100393E80300081CF5
:202E70001043306000233361A86846F80C0C06F1100000680028FAD0204603F0ABFBBD62C3
:202E9000F8BD086801F05AFFF8BD07F1D4004FF4805103F00BFCF8BD003500200C100440BA
:202EB000E42400202DE9F8438146D9F808703868066CD9F8045046646A6CAB6CA86B16F48E
:202ED000F06F0146A2EB03082AD1F00911D270095DD301B395F83C40641EA14298BF0C1C83
:202EF0004846214602F00EFEA86B001BA8630DD04DE081B1484602F005FE95F82D10A86302
:202F100011B9002843D101E00020A86305F19C0003F0DAFD3BE04846414602F077FF36E085
:202F3000F20A19D24FF00008444602E0A86B401EA86340B34846012102F0E4FD38684468A9
:202F500014F00F04C0F80480F0D0286B401E2863686B401E686316E0386844680022202929
:202F700004F00F044260CCBF20270F1C4846394602F0C8FDC7F12007B845C8BFB8464846E8
:202F9000414602F043FFEC77484601F0A3FEB0090BD3A96A49B10F46484602F0CFFDA86294
:202FB00018B94846391D02F091FABDE8F8837047F8B53A4C0D46A8084DD2E8086CD301254E
:202FD0000420257302F00AFF03F0C0FBA06104F1240003F001FD00280EBF2069C06820614A
:202FF00041682F4A09781160416812680978914207D087692FB16FF0FF0100224FF000735C
:20301000B847022002F0EAFE112000F03DFE2169E571087C10B16079012803D00E2000F031
:2030300033FE216949681F488F680FB9CF681FB10021C1611C4F07601C4A40F2FF71116059
:20305000002787611A4941611A4803F02DFC192003F036FDF8BD04F13006304603F0BCFC6E
:2030700000F0A8F8304603F0B7FC25F0020504F1240158B9E80803D2084603F0ADFC58B195
:2030900004F1B00003F050F9042101E045F0020104F1D40003F00AFBF8BDC0460035002030
:2030B000D021084000100440510007060000046002000040511F00002DE9F04707467D6880
:2030D000D7F8089090460E4603F046FD8246A86A002864D105F5847003F026F90024EC775B
:2030F0002E6250466C6203F033FD03F035FD2F4E3378824623B9022002F070FE0120307075
:20311000504603F025FD2A49086840F4807008603846414602F012FDA862C0B938464146F7
:2031300002F0D4F9A878D0B9A96805F1D00003F0CFFCE8B9AC621020E8774946284601F056
:20315000D8FB03F009FD8246307840B323E0D9F80010886B40F020008863A87810B12046D7
:20317000BDE8F087A96805F1D00003F0B1FC10B1686ABDE8F0873846414602F0A7F9102036
:20319000AC624946E877284601F0B3FB03F0E4FC8246307818B1022002F054FD347050466B
:2031B00003F0D6FC4FF0FF30BDE8F087471B002030100040F8B5071C72D0B86840F6030142
:2031D00020264A1C02E04068761EF6B260B15EB10388994218BF9A42F5D1F9681CC82831D0
:2031F0001CC149C881E849007868BA690025BD61C8B1F87F42F00202002300F00700401E3B
:2032100009D0401E04D0801E08D14FF0805304E04FF0804301E04FF000532A467C68F868FD
:20323000B7F91C10A04703F097FC1E4C0646B4F93600401C6FF31F30E08604F1300001689B
:20325000CD7703F0C7F9304603F082FCF868B0F9C010B4F93620914222D1217801291FD02C
:2032700090F8C260BEB90668AEB122690E4912680968B2F1FF3F13D0B6FBF1F2012A8CBFB5
:20329000B6FBF1F10121783003F036FCF868783003F02EFCF8BD80F8C250284601F04EFD8E
:2032B000F8BDC04600350020900C000000204FF400012DE9F84F184001EA020108BF00295B
:2032D00067D003F049FC4FF0180ADFF8CC90DFF8CCB0009055E003F017FB044604F1090175
:2032F00004F1080003F050FBB9F83C1D04F10900182944D20178802941DA227A182A3ED1FA
:20331000B9F83A2D4F1C8D23FDB203FB02946172022DA5700DDB401C6F1E0126804618F842
:20333000010B02F0FFFEA1197F1E06F101064872F5D16119802260190A72093010F8021C3D
:20335000493100F8021C03F0B3F8E071AD212170DBF80060C4F80360132767700012207278
:20337000B9F83A0DB9F83C2D401C521CB0FBFAF101FB0AF1A9F83C2D401AA9F83A0D03F095
:20339000F9F903F0C1FA00790328A4D0009803F0DFFBBDE8F88FC04608020020843B0020C5
:2033B0007CB50546084601F02DFC364E02461821304602F0B9FD03F051F834491039096883
:2033D0004C6840F2FF32002380B22C2100903046A04703F023FA1C210246304602F0A4FD99
:2033F00003F02EF802461421304602F09DFD03F0B5F802461021304602F096FD284601F0B2
:20341000CDFB02460C21304602F08EFD284603F08DF81D4C400040F020002070284603F09C
:2034300091F840F010002070284602F03DFF02462821304602F078FD284603F09BF84000E5
:2034500040F06000E070284603F0A0F8C00040F0800004F8080C284603F0A4F8800040F452
:203470007C40A4F89300284602F08AFD02460821304602F059FD4FF48000A4F20911086060
:203490007CBDC04600A00C4049A10C40B40100102DE9F0478246324D324C2878904689469F
:2034B000B8B1BAF1000F0BD12188491C89B2322921800CDB20460021018002F055FF05E09E
:2034D000002028702080012003F0C8F92878002844D1254A254916780F78BAF1000F33D023
:2034F000208857EA06030D460DD1B8F1000F08D1B9F1000F32D00120287003F0B7F9BDE84C
:20351000F08701201EE0401C80B220800EB10A2816DA1FB3032821DB154900260878268053
:20353000401CC0B2032804DA087002F03DFFBDE8F0870E70304603F099F92E70BDE8F087AF
:20355000002020801546D7E701202870002003F085F9002003F08AF900202080BDE8F087C6
:20357000C4240020C8240020C6240020C5240020C72400202DE9F0470D4606465FFA85FA45
:20359000280824BF2E4845402E494FEA8A03C85885EA00023240C2F300672B4A06EA050443
:2035B000B043224006F4E0240243B4F5E02F01D1500E14D306F4E020074310D002F4E02773
:2035D000B7F5A02707D0B7F5803704BF22F4003242F4A02203E022F4803242F4C022DFF891
:2035F0006C80CA5008F1D00739680122002002FA0AF40C4218BF101C5FEA000906D1F00D90
:2036100004D34146C5F3805001F80A00300E0BD303F0A2FA290E34BF0021211C3A68A243F7
:203630001143396003F094FAB9F1000F06D0F00D04D34046C5F3805100F80A10BDE8F0876C
:20365000006000A000100840007F077F00200240E0B501880025A1F6020159B143F2040279
:20367000891A04D0491E57D190F8246000E00226C76901E0C67B4769002F4DD03F1F05204F
:2036900044F2380357F8041F0A04120C934203D0401EF7D13F1D01E0C1F30345002D3BD0CC
:2036B0001F4B3046401F18D01C4A401E10D0001F0CD0801E0DD0C01E06D00F3819BF1A1CB0
:2036D0006032184A443204E0121D02E0121F00E0083A1068C0F3834003E01A461068C0F3CC
:2036F00003200F2806D0A84216D921F4702141EA004110E0761F0AD0761F08D0761F06D068
:203710000F3E1CBF21F4702141F4802103D121F4002141F4E0213960E0BDC0460011005018
:2037300020130050C410005080B50288A2F602073FB143F20502BF1A14BF002090F82400CE
:2037500000E0C07B2C4AD2F88832401F0B6048D0401E3CD0001F30D0801E24D0C01E18D081
:203770000F380CD0D2F890024860D2F894028860D2F8BC0220F0784040F080503AE05069A7
:203790004860D06A8860506C20F0784040F0704030E010694860906A8860106C20F0784094
:2037B00040F0F04026E0D0684860506A8860D06B20F0784040F0C0401CE090684860106AC8
:2037D0008860906B20F0784040F0A04012E050684860D0698860506B20F0784040F0405068
:2037F00008E01068486090698860106B20F0784040F02050C86080BDC4100050F8B503F0C4
:2038100065F801F033FA03F073F8044604F00C000C284BD0E0081ED202F0F4FB264E37685A
:2038300005460120014602F0EEFD31686943884211D2224C8220B0FBF7F0291A204603F0B8
:203850005BF9204603F054F90120FEF765FA204602F06AFD2CE0200928D2194803F00EF8A1
:203870000428FAD0174A610905D220B11168104621F0010103E01046016841F001010160B7
:20389000983210684FF0805540F003001060D5F8B8018169202088470B4CD5F8B8712068CB
:2038B000B86B804701202060206801E003F08CF803F012F8F8BDC046900C00004C37002096
:2038D000004003408C2108402C2009402DE9F0412D4D0446A8781F4616468846ADF1400D26
:2038F000012803D0FFF7D0F90120A870B8F1000F09D0C4F8048036B1A66003F02DF9E9788C
:2039100019B103F025F900203BE0491CC9B2E97003F01EF901251FB909A802F035FF09AFB1
:20393000386820607868E060387C2074B86865746061788A6082F86800B1A0610021A0225C
:2039500004F1280000F09CFF684600212422082303F0EAF88DF8185004F1400000216A46A7
:2039700003F0DEF8684600212422082303F0B8F80649069404F1780000226B4603F0ACF8CB
:20399000204610B0BDE8F08100350020CD690000274A2DE9F041804601252648156007685A
:2039B000002FFCD0244CC02025492060081F03689B0806D250F8040C204B000C40F0F000C2
:2039D0001870002010630E68304600F00BFA40463146FFF7E5FC1B49886D40F21E226FF3DA
:2039F0001F40824215D90868020E12F00F0F02F00F01C0F3034018BF491E072805D006289E
:203A10000EBF0720801C00F00F0041EA00110E4801703046FFF714F80C480068C168022085
:203A30008847402020600A4F3D60BDE8F081C046101009409402224300600C4056620840A5
:203A5000B43F0050BC12005002600840A0010010940460422DE9F0410F46810001EBC00097
:203A7000DFF8A88028490C180D58666807B94746387830B97888312818BF322814D1207A80
:203A900090B903F069F88446387830B96978AA7800230A4318BF012302E0217A69184B78E7
:203AB0002BB1604603F054F80020BDE8F08118B901206870A87003E0207A0121281841708D
:203AD000604603F045F838782870B07900F0DCF82168606809780268267A11607D8803680E
:203AF00041468A1D3101A1EB4601505AB0F57F4F14BF1B1D08331D603979204602F03EF962
:203B10002046BDE8F081C046A0090000900B00002DE9B043044603F01FF881462748021921
:203B300092F8EE10491ECFB2002F82F8EE703FD1254901EB84014A880C78904634F07F0739
:203B500018D1E1090FD24FF0805000F5DC75D0F8B8018169104688472868416B404688472B
:203B70000228F9D11EE000EB8800D0F804110020884717E04FF08055D5F8B801016A1046B2
:203B90008847D5F8B801816A40468847D5F8B801016B404688470A4901200860094908689B
:203BB0008008FCD304F03F003F2801D0FFF7B0FF484602F0CDFF0020BDE8B08340370020B3
:203BD0002820086028200840600A0000F0B52B4D05F12C0158C9ADF11C0D02AA58C20AC96A
:203BF0004FF0805682E80A0047688468D6F8D001C16820688847216821488A6B1040886350
:203C1000206840F2F271416497F83C0097F83D10C0100DEB800080680843216848636846CE
:203C300002F04AFFD6F8D001397F466805EB8101BA698B68797F206855F821101943BB7F18
:203C500005EB8305AB690B430199B0470D490A1F106840F010001060086840F00100086039
:203C7000A07D0027FF2802D0E07DFF2800D11FB1086840F44040086007B0F0BDF40A0000E4
:203C90000DF8FFFF30100040F8B5064602F064FF264D0746A91991F8EE00421C002881F84B
:203CB000EE203ED1224C04EB8604267806F03F003F2801D0FFF7E8FF648836F07F0018D18E
:203CD000F0090FD24FF0805000F5DC75D0F8B8014169204688472868416B204688470128AB
:203CF000F9D11EE005EB8405D5F804110120884717E04FF08055D5F8B801C16920468847B1
:203D1000D5F8B801416A20468847D5F8B801C16A2046884707490120086007490868800826
:203D3000FCD3384602F014FF0020F8BD40370020600A00002820086028200840264838B5B0
:203D500060300468B4F1FF3F08BF002402F0DDFC2248234B002501211038056003F15C00A2
:203D700001601448016001F089FB1348006820B1124800682046FFF70BFE114811490560CD
:203D9000114C0A686FF35B4244EA020008600F490868C0F30130012806D10A680C481040EB
:203DB00040F400320A6008600A4908680028FCD138BDC04608220443800128430001204347
:203DD0008C210840482003400000390104000940FFFFFCFC0C006842BC12005094046042A8
:203DF00000600C4070B5234C234D0646B00E11D2700E0FD3802020744FF6D801A4F8511067
:203E1000207000F0B3FDD0352868C0F30420162806DB04E02868C0F30460162800DB2038DB
:203E300000EB2670401C162805DA10F10A0FB8BF6FF0090000E01520104D00F01F0040F4CA
:203E5000F850A4F859002868800803D20C490020086001E046F040660A49F00EB50E80F00A
:203E7000010000F00100086085F0010000F00100886070BD15620840B8120050000009403A
:203E900094042A4300002043F0B520480127F84201D001F0B7FB204D204F214EBD4206D2A5
:203EB00003CD0478A4003459401CA047F6E71D48002800D08047164D164FBD4202D210CDB9
:203ED000A047FAE7F0BD03251BE0416808300A1C2A400BD11A1C2A40AB4305D004680430EA
:203EF0000C600431043BF9D1131C05D0047801300C700131013BF9D1021C2A4001D0A8435F
:203F100004300368002BE0D17047C046FFFFFFFF0000000000000000300F0000900F00007F
:203F3000EC0E000055C50110002A4AD05FEA000C8B071CD1830722D1102A08D370B4103A34
:203F500078C978C0103AFBD270BC103238D0042A2CD3082A05D30C2A24BF08C908C008C991
:203F700008C008C908C092072AD0920F22E00B780370491C401C521E22D08B07F7D1C3075D
:203F900014D18307D8D0121F12D308C903801B0C4380001D121FF8D20AE008C903701B0A3B
:203FB00043701B0A83701B0AC370001D121FF4D2121D05D00B780370491C401C521EF9D1C5
:203FD000604670472DE9F843234D884606464FF0FF3105F12400814602F07AFD00200CE0D4
:203FF000FF2909D02A688A4204D905EB8101D1F894700FB1002627E0401CB8F1000F03D062
:2040100018F82010FE29EBD10024346074600127B46011E0FF280ED005EB80000B787268E2
:20403000C0F8946007FA03F0104370600A680949304601F0EDFD641CB8F1000F04D008EB99
:2040500084010878FE28E5D1484602F089FD3046BDE8F883007FC767B4200020B0B5456820
:2040700084682349607DA27DADF1180D40F000400090207D0027FF2A41EA000001904FF031
:20409000020002D0E27DFF2A00D13FB1E37DA07D1943039140F0004002900420FE214DF8FC
:2040B000201005F158006946FFF78CFF6866002808BF381C1AD0617D0F2201F077FF686EFB
:2040D000217D102201F072FFA17D3846FF2902D0E27DFF2A00D140B1686E112201F066FF5F
:2040F000686EE17D122201F061FF012006B0B0BD0000C0A02DE9F0474FF02009EFF3118823
:2041100089F31188204CA068012102F0D1FC4FF0010A0027226861696569A4F81CA0891A97
:204130002268E783461B801A884228D388F3118838462D18361A5046294602F0B5FCB042FA
:20415000F7D9EFF3118889F31188E18B012903D13846294602F0A8FCB0F1FF3F06D0A16943
:20417000801B814238BF081C291801E0A069411902F096FCA4F820A0A783256000E0A78398
:2041900088F31188BDE8F087780100208B4208BF824204D90B1C021C002100207047002BA9
:2041B00008BF002A0BD10B1C021C00210020002B08BF002A1CBFC943C04301F098BBF0B5AD
:2041D0001C4615460B46024600200021B4FA84F6202E04BFB5FA85F62036B3FA83F7202F09
:2041F00004BFB2FA82F72037F61BB6F1200727BF05FA07F400257F42B4403EBF25FA07F7BD
:204210003C43B540A34208BFAA4201D3521BA341404149416D0845EAC4756408761EF1D5AF
:20423000F0BDFEE72DE9F04107467868BE68044600F5847002F078F830681C498069096856
:20425000C0F3C00008BB02F087FC194D8046287820B1022001F0F6FC00202870404602F0D1
:2042700077FC3168134D886B20F020008863286820F480702860606A216A091A2162236911
:20429000626A38469847BDE8F0814FF4FA70B0FBF1F1012998BF012104F58474204602F0A9
:2042B0002BFC204602F024FCBDE8F081900C0000471B00203010004070B506467468B56831
:2042D000606E02F091F829681C488A6B10408863304600F037F8304600F0FCFC2968C86AAA
:2042F00020F01000C862296815480A6B104008636868FFF70DFC04F1800002F0CDFB04F153
:204310009C0002F0C5FBA07818B904F1D00002F0BBFB607818B904F1EC0002F0B5FB04F5C4
:20433000847002F0ADFB02F017FC0021217002F00FFC04F16C0001F0C7FF70BD0DF8FFFFE3
:20435000FEFCFFFF2DE9F04106467568B46802F003FCA96A39B921688969090903D202F07F
:20437000F7FBBDE8F0810027AF6202F0F1FBA17D3846FF2902D0E17DFF2900D118B12846EB
:20439000214600F0B6FA2168886B20F0200088630D49086820F48070086002F0DDFB0B4C1C
:2043B0008046207818B1022001F04CFC2770404602F0CEFB686A296A091A29622B696A6A18
:2043D00030469847BDE8F08130100040471B00201A4838B5002484814481048101F028FA8B
:2043F000174D284602F00EF9204668702870A875687528752946E8754FF4E130A8612046E6
:2044100001F036FA14490860B0B10E4D21463C220823284602F030FB03234FF48060AB611A
:20443000094A28620B49EA61084B09482B612A46234602F01DFB38BDFEE7C046A824002011
:2044500070240020342400204617002040420F00A8230020FD570000C4210020024610B5C1
:2044700050110023401E02F01F0215D0401E0BD0401E05D0401E15D11A2A13DC14490EE024
:204490001A2A0FDC13490AE0082A03DB082A09D1114B09E0114902E01A2A03DC1049C82096
:2044B00000FB0213002B10DD0E4A4FF47A7193FBF1F07D244843181A93FBF1F14003D1816C
:2044D00090FBF4F30120138210BD002010BDC04696F70D006A470D00825C0D002A410D0029
:2044F000122C0D00A83A00202DE9F84308AF3D881E46134686460A4625F0030437460C34E0
:2045100007FB04F09842C8BF01212CDC05F0030C0846CCF1040CEFB105EB0C014FF0000906
:2045300001F108084E4606FB08F4231883F804905A7904EB0C0149197F1E06F1010601447D
:2045500002F0F0025A7101F10801DD8000EB04021960E8D110600021CEF80000034BCEF8B6
:2045700004101A4610600846BDE8F883F82400207CB5042001F0EEFC022818D0032816D04A
:2045900019480068C0F38150032814BF41F288324FF47A721649174C09684C342046B2FBDE
:2045B000F1F102F0A9FA204602F0A2FA7CBD4FF08056D6F8A4010D4D446800214FF04052C7
:2045D0001C23032000902846A047D6F8A40100214FF4007209230126446800962846A04751
:2045F000022001F02FFB7CBDB43F005000A00C40900C0000483700202DE9B84102F0ACFA24
:204610001C4C1B4D804604F1E000007848B92C46A168022088470746102001F0C5F80FB34D
:204630001DE000F0F3FB70B9134800683221B1FBF0F101B901213034204602F05DFA20466E
:2046500002F056FA0EE0002084F8E0002C46A168022088470746102001F0A6F817B1A16855
:2046700003208847404602F073FABDE8B881C0464C0C000040370020900C000010B5174CBC
:20469000174986204FF490720223ADF1200D00902046FFF729FFF0B901A802F075F81548AD
:2046B000214680238162C27B038342F00302817BC27341F0060181730C4A0B49094801ABFF
:2046D000FFF704F90C4A0021094C10600B4B21701846017000E0FEE708B010BDD024002087
:2046F000741E0020C8210020F03A0020403A0020B724002080390020F0240020F6240020C9
:204710002DE9F0411E4615460F46044602F014FA8046384601F060FC071C03D1404602F0E4
:2047300007FA26E0F87F10F0070F1BD113487968884202D07968A166786004F1600080E894
:204750006000404602F0F4F904F140004FF0FF3102F0BEF904F170070020A06697E8030023
:20477000BDE8F081404602F0E3F9F87F10F0070FFBD102200021BDE8F081C0462D55000085
:204790001C491D4880B5352751F8043B51F8042B40F8043B51F8043B40F8042B51F8042BD0
:2047B00040F8043B51F8043B40F8042B51F8042B40F8043B51F8043B40F8042B51F8042B2D
:2047D00040F8043B7F1E40F8042BDDD151F8043B51F8042B40F8043B51F8043B40F8042B3A
:2047F00051F8042B40F8043B40F8042B0968016080BDC0463C00000000C00021F8B502F082
:20481000ABF91C4C0746206F10F4602F27D0206F400CC6B2700807D2B00803D2F00828BF06
:20483000022602E0012600E00026751D68B200F0FBFD236F06F111010120884023EA00010B
:204850003846216702F084F904EB8600476E4FB1206E294600224FF00063B84702E0384689
:2048700002F076F9206F20B104F58470002101F01DFFF8BD00350020002213460A46194618
:2048900071B510F0030F0BD0002A82BF00F8011BB2F1010210F0030FF6D1002A08BF71BDD8
:2048B00011F0FF0141EA0121042A18D341EA0141082A0FD30E46102A08D30C460D46B2F14F
:2048D0000F0312F00F0272C0103BFCD812F0080F18BF42C012F0040F18BF40F8041B12F01B
:2048F000020F18BF20F8021B12F0010F18BF017071BD38B50C4621680546886B20F02000CD
:204910008863686E217D012200F0A2FE686E217D012201F0BFF8686E217D002201F046FB6E
:20493000686EA17D002201F041FBA878012806D005F1D0004FF0FF3102F0CAF803E02168B0
:2049500088690009FCD2686E217D102201F02EFBA17D0020FF2902D0E27DFF2A00D118B165
:20497000686E112201F022FB38BD7047184870B50068C0F304601628A8BF2038154B0146BC
:20499000187800F01F001628A8BF203881421ED0114E124C0022012532600A1A022A05DCF2
:2049B00012F1020FB8BF6FF0010200E002221018226800F01F0242F4F852A3F866208142CF
:2049D0002560EAD12068256020683560206870BD8813005006620840980020432C2009407D
:2049F0002DE9F8438146EFF31188202080F31188174D154C134F012605F11C000660A4F16D
:204A100014000660F86A016A14208847D9F81000810C14BF000C04202060386802682321FD
:204A3000002090470948066054F8180C20F4C02040F4803044F8180C2E6088F31188BDE8C9
:204A5000F883C046840100101820094080022443000024437CB5044601F05CF92046FFF742
:204A7000FDFC114918B90846012101707CBD00240846104D047001262E7025468DE83000D0
:204A90000D4D0E4928683246234600F0C7FF4FF400038DE818000549054B28683246FDF7C1
:204AB0000BFC074908807CBDF624002080390020BD320000B7240020F0240020A83A00209B
:204AD000F424002030B5401E4FF00004ADF12C0D0AD0401E04D0401E20D1FDF7C1FC1DE028
:204AF00000F026F8044619E001A821462422082301F0F6FF06940D4DADF814400949079414
:204B1000012201AB05F1780001F0E6FF064A23462C2105F19C00009301F0FAFF20460BB03C
:204B300030BDC046B9500000F11400004037002098B5164C94F8E100002710B914480078ED
:204B500060B102F009F894F8E310002906BF012184F8E310012701F0FBFF0FB1002098BDFB
:204B7000022001F03BF90E20FFF78EF8094A106848B909494020C86008600127D7610020A6
:204B900084F8E20098BD012098BDC046403700205A0C000004800C402C500C4038B51849F3
:204BB000164D0446143909686868C1F30342C1F30353400812D22868050513EB257303D474
:204BD000102BA8BF0F2300E00023000412EB207203D4102AA8BF0F2200E0002242EA03126F
:204BF00001F47F4001F0FF03222C40EA024243EA020024BF01F08041084338BDAC3F005003
:204C10008C1300500146184880B53C3800688A0CC0F38367C0F38F2022D241F307210029CF
:204C30000BD54A420021400805D17F0806BF0127381C4FF6FF70521EF5D1002910DD4FF6AC
:204C5000FF72400040F00100824207D2780040F001070F2F92BF01200F27101C491EF0D1DB
:204C700040EA074080BDC0468C130050164880B507683FB315498B6803EA5300C00E21D23B
:204C9000134A106880081DD2486880081AD21068096810F0050F4FEA114101F0F00101F534
:204CB000E0710AD1B9420DD2190F38BF40F00100D90E38BF40F0040003E0B94202D920F0B3
:204CD0000500106080BDC04628500940AC3F005000000940F8B50646B06801687568886B7D
:204CF00020F4FA6088631349086820F40070086001F032FF104C0746207820B1022000F04D
:204D1000A1FF00202070384601F022FF01F024FFA96B11B901F01CFFF8BD0021A96301F0D2
:204D300017FF686B296BEB68091A29636A6B30469847F8BD30100040461B0020B0B5074652
:204D500001F00AFF154C0546207918B3401EC0B22071F8B904F1D400082101F0A7FCCFB121
:204D70002069783001F0E0FA21690D48CA680068BA1AB2FBF0F2012A98BF012103D9C9689A
:204D90007F1AB7FBF0F1B034204601F0B5FE204601F0AEFE284601F0DBFEB0BD00350020EC
:204DB000900C0000F8B5844640F6FF741CF8013B002210E0481B401E10F8015B7F1E01F80A
:204DD000015BF9D103E01CF8010B01F8010B521C5B08082AEADA5808F5D21CF8010B1CF873
:204DF000015B05F00F07FF1CC5F30315122F45EA001508D11CF8016B300A24BF1CF8010B36
:204E100060F3DF16BF19AC42D4D1F8BD38B5012001F0A0F8012820D0114DD5F82401C468EE
:204E30001048342101220023A047002808BF002014D0286801F03AF901F048FB0B4A0A4D01
:204E500093681168D060C01AA1EB910105FB00F3180C884228BF011C1160012038BDC04634
:204E70008000001000A00C4040420F00942400202DE9FC41144C154F06468846700809D3B8
:204E900020684568002101220B461FFA88F000903846A847B00809D320684568002102229C
:204EB00001231FFA88F000903846A847F00809D320681FFA88F600210C2202234468009687
:204ED0003846A047BDE8FC81A401001000A00C400246F8B5084611464C68203821D0401EA5
:204EF0001CD0401E18BF6FF001001ED18D6801F033FE0E4E07463068016928688847B0F170
:204F1000FF3FF8D10025A564606C401EE06425653846A56301F01CFE2846F8BD0021084631
:204F300001E00121002084F82D10F8BDD0010010012898B523D1012001F00CF801281ED058
:204F500001F0DCFA114C012104F1D800017001F0CFFC800915D20C4800683222B2FBF0F7ED
:204F700007B90F46083C3034204601F0DDF92046394601F0C1FD204601F0BAFD01E000F0C4
:204F90002DFE002098BDC046900C00004837002070B5154CB4F83C0D28B301F0DDFDB4F853
:204FB0003C1D002908BF002504D0B4F8382D8D2101FB0245AE7801F0CBFD0C480068294693
:204FD00006F1090201F0DBFCB4F8380DB4F83C2D1823401C521EB0FBF3F1A4F83C2D5943BA
:204FF000401AA4F8380D70BD08020020C4210020F0B504462568207A666805EB8000C16392
:20501000217A174608233022ADF1340D4801A0EB810000212D1801A801F07EFD06940120A1
:20503000ADF81C007079084A09900020009031792D1D01AB284601F06BFD2046394601F0DE
:2050500085F80DB0F0BDC04685520000B0B5154C241D20680004070C21D000F0FFFF10499E
:2050700091F90720824205DD10F1800FB8BF6FF07F00C8718D88BD4210D80A68D4F8D40F8E
:20509000801A801C1F2888BF1F207F1B4008C7404FF6FF70EF19B84238BF071C8F80B0BDC8
:2050B000D82400203010094008B51348134A14490078801E0A2807D8DFE800F01814100649
:2050D00014100614100609C001F00EFD11E010688008FCD250688008FCD20AE008688008F8
:2050F000FCD306E008688008FCD202E010688008FCD3FDF7B5F908BD2438002034600C40B1
:2051100038600C40084610B500F0005100F0040008431CD0012000F01DFF104C012811D089
:205130000B4801683220B0FBF1F2012A8CBFB0FBF1F101217834204601F0DEFC204601F06A
:20515000D7FC10BD034801F0AFFB0348046010BD900C0000FD1700000010044038350020AC
:205170001548F8B50468002C21DD114F114E00250020294601F078FC83681BB93B68012222
:20519000836000E0002241685B185B1E491E8B4383603AB13268D21A02614169B2FBF1F25F
:2051B0005143016101F05CFC6D1C641EE0D1F8BD880C00008C0C0000BC1300001549096865
:2051D0001E280ADC1E2819D00C380FD00A380FD0001F0FD0C01E0FD01AE0243810D0401FD0
:2051F00010D0401E10D0401E10D011E0086870474868704788687047C8687047086970470E
:205210004869704788697047C8697047086A704700207047F001002030B50546ADF1140D86
:2052300002A801F047FB3221ADF80A1000208DF808008DF80C0002A9FEF70CFC0C4C2060B1
:2052500078B1684601F038FC20684FF4C03101F0A0FB206804490122FFF7CAFE0348056094
:2052700000E0FEE705B030BDF15C0000EC240020E8240020F8B54368017A02681D6802EB5F
:2052900081022C6AD26B0B01A3EB41030E49891FCB5AA7B223406B62047A01252301A3EBC7
:2052B0004403CB1800219B1D0C4633F8026B374203D005FA04F6314389B2641C042CF4D386
:2052D00002B19047F8BDC0469C0B000038B50C4620B141680122A240114201D1022038BDD8
:2052F000914341600E480025231800EB8401C1F8945003F140010978FF291ABF406850F8BF
:20531000211044F020410548FEF734F920464FF0FF3101F0B1F8284638BDC046007FC767C3
:20533000B420002010B501F017FC124C611C097829B10F490C6801F00BFC204610BD01F082
:2053500007FC01F003FA0C4A002301F07FF9A26C002314001B184FF07A024FF0905044EBE9
:205370000104C11842EB04021046001C10BDC046043004400035002000093D0012481349FE
:2053900008B54FF42C72FEF7CFFD4FF00451002081F89003012081F87903022081F87503B5
:2053B000032081F87703042081F8AE03052081F8AB03062081F88103072081F84D030448CE
:2053D000C1F8C00308BDC0461C040021F0060000CD05002138B51248104C0168114D0C4096
:2053F000E1430160A10908D34068800905D328464FF40051D43001F059F914F4602F0CD0CE
:20541000284600F170010A6804F4602400F5847014430C60002101F049F938BD20000E009B
:20543000081004400035002098B5044601F094FB8446104890F87710C90803D390F87610AE
:20545000A14213D0B0F874300B4F012202FA04F11943A0F87410391D0B6804F10C07BA4079
:2054700093430B600F680FB900210170604601F06FFB98BD00350020081004400F4908683B
:205490000028FCD1104A131D0D49186820F0030001430C480068C0080CD2106810F0030F64
:2054B0000AD041F003001860106800F003000328FAD101E041F00101196070470C006842FB
:2054D00004000020B03F00500040034070B540680C46054600F5847000F026FF0D482A7F70
:2054F0000168687F8018AA69C01D80B244430A4805F584766043B0FBF2F008186330B0FB37
:20551000F1F1491C304601F0F7FA304601F0F0FA70BDC046900C000040420F002DE998433A
:205530000446A76E9946904607B1B8470020022100EA090001EA0801002808BF00290BD172
:2055500004F1600090E8060008EA010109EA0200002808BF002907D004F1700080E80003C0
:2055700004F1400001F0FCFABDE8988338B505466868297A02680801A0EB41000D49095A9C
:2055900040F201100840D1680843D0602C6801F0E3FA297A64184434217839B90121217085
:2055B00001F0D6FA022000F019FC38BD01F0D0FA38BDC046960B0000042838B51BD10F4C47
:2055D00004F1B000054601F00FFAA0B1284601F061F80B490968484364280CD2284600F0B0
:2055F000A3FE052000F0FAFB20460121C1720421D43001F05BF8002038BDC0460035002058
:20561000900C0000F8B506460F4D104F7388002417E0A20002EBC402921951689068D26829
:2056300052B9AF420BD00A7855F822200346491C08461946904701E0FEF776FC7388641C7D
:20565000A4B2A342E5DCF8BDEC0E0000F80E000038B50D460E49144660390A68AA4205D9C3
:2056700001EB8501D1F89410884201D0022038BD01F072FA074B103B1A68AC400121A94016
:205690008A4314431C6001F063FA002038BDC04614210020E02002402DE9F04101F04CF9DD
:2056B0000D4D603D2B688046A3B105F194060024012707FA04F018EA000F07D056F824000B
:2056D00020B1026812B1214690472B68641CE4B29C42EED3BDE8F0811421002038B50D468B
:2056F000044601F073F96368A1688B4204D101F02FFA4FF0FF3038BDE168491CB1FBF3F2C1
:205710005A432368891ACD54E1606269A168491C8A42A16038BF616101F01AFAA06838BD8B
:205730000C4885460C4885446F4607208743BD460A486F4607600A48002803D07946491D94
:205750008E460047FEF7A0FB00F068FF01F084F9FEE7C046004C002000040000743B00209F
:205770005569000010B50B4C00213C220823204601F082F94FF4006020620220A06106482D
:20579000E06106480749206105480023224601F06FF910BDF8230020460F002040420F005A
:2057B00058230020E560000038B50F4C0546083C204601F085F8A8B9204601F009F904464A
:2057D000A068054209D0E3682269284600219847002818BF4FF0FF3005D1204601F0FAF8C1
:2057F000041CEDD1002038BD4837002038B50E4D0E4C28686946012201F0BCF80128F8D16C
:2058100001F0AAF9A18908290BD262899DF80010A154A2896189521C491CA28101F0070123
:20583000618101F095F9E4E7C4210020A8240020B0B501F0CBF805460A48017801290DD005
:205850000121094F0170387840B1084C074620688168204688470C347F1EF8D1284601F060
:2058700077F9B0BD8A3B00207A0C00005C0C00000B4B80B51F7800227FB10A4B1B78834247
:205890000BDD8A4208BF0849084F820002EBC002B8180268D26890470246104680BDC04678
:2058B0008A3B00207A0C0000B40B00005C0C0000B0B50D46044601F089F8A76897B12169F1
:2058D0002268515C297063682169A768491CB1FBF3F25A43891A2161791EA16001F038F912
:2058F000A068B0BD01F034F94FF0FF30B0BD70470D4908B5D1F878020B68020F03F0FF03A4
:20591000802B28BF002300F08DFD01464FF0FF30012907D1111C04D0891E04BF143358B2D5
:2059300008BD0A2008BDC046A01000500D4938B5D1F8EC3209681B3800FB00F409060A1691
:2059500043F3072100FB01F519066043091661434243891201EBE50101EBA24000EB234055
:2059700038BDC046A41000500C49086820F0020040F4007008600A48032140F8041C41F234
:2059900030018160012101605022826001604FF4CA628260016040F80C1C70470000046080
:2059B0000C41044070B501F0D7F806460B48E030007848B107480068C56807480024342195
:2059D00001222346A84700B10124304601F0C0F8204670BDA401001000A00C40403700207C
:2059F000B0B501F0B9F80546FFF710FA0A48094C0021E0300170A168022088470746102085
:205A1000FFF7D2FE17B1A16803208847284601F09FF8B0BD4C0C000040370020F0B50446AC
:205A300005AFADF10C0D03B90A4B97E860008DE86000FCF741FC011C44BF00204FF0004136
:205A500005D4204602224FF0E043FEF759FE03B0F0BDC0462D55000010B50446207B00F0A3
:205A70000F00022811D1FFF75DFCA168084C081A04F110010968C968800801F57A71814259
:205A900003D26FF05041814200D2002010BDC0460035002080B517460A4A603A13688B428C
:205AB00005D902EB8102D2F89420904201D0022080BD002207B101220348E03842540020F2
:205AD00080BDC04614210020E0200240F8B50646756801F041F80A4C0746207820B10220AE
:205AF00000F0B0F800202070384601F031F8686B296BEB68091A29636A6B30469847F8BD6E
:205B1000461B0020F8B50C4E446885680F4608E0216B0870206B636B7F1E401C2063581CCA
:205B3000606337B13068016928688847B0F1FF3FEED13846F8BDC046D0010010F8B5446838
:205B500085680F1C11D00A4E3068216A826909782868904748B1206A636A7F1E00F101000F
:205B7000206203F101006062EED13846F8BDC046D001001008B5FCF7C9FE0A48FCF7C2FA8B
:205B900010B102A000F064FF08BDC0464572726F7220776974682050494E5F696E69740A6A
:205BB00000C046C0340B000070B54668057A00682C01A4EB45040078074D2D1D2C5B042848
:205BD00006D1306825185FFAA1F06FF31F41505130682418195170BD960B000010B50320C8
:205BF0000021FFF745F9012000F0B4F918B10648006800F05BFA00F069FC044C083C606015
:205C100000F02CFA206110BD800000109C24002038B50B4B1C6802F0FF05AC4207D902F023
:205C3000FF0403EB8403D3F89430984201D0022038BD08461146FDF79DFC002038BDC0463E
:205C5000B420002010B5044600F086FF094B083BE21892F8E810491EC9B282F8E81021B97B
:205C70009A680121A1408A439A6000F071FF002010BDC04648370020F8B5064637680D466B
:205C900000242C601FB900F067FF374608E000F063FF00E03F6839680029FBD1BD4201D072
:205CB0003D60012400F054FF2046F8BD094910B500200A4C08600120C86114342060216824
:205CD00044F8280C04480068016A14208847206810BDC04600002443B0010010182009401E
:205CF00010B500F039FF094C2168491C216000F02FFF20680522B0FBF2F15143401A03D1C6
:205D10000348006800B1804710BDC046843B0020EC24002010B5084C207838B1084907482C
:205D3000B1F9001000680122FCF732FD002020700449087010BDC046B7240020F024002075
:205D5000F4240020F624002070B5044604F128020CCA0846002100F079FC04F1300292E8E8
:205D700060002D1846EB0106290C3004014300F0ADF8383484E8600070BDFEE780B50F4620
:205D9000014608480068C36848680A7A00681101A1EB4201044A921F515A002207B10122A5
:205DB000984780BDC80100109C0B00000949020480B5120C41F8082CC0F3074041F8040CDC
:205DD0000120086004480768002FFCD00020086080BDC04644600C4084088C4338B5044627
:205DF00000F0BAFE084A02F108031D680121A14012192943196092F8E810491C82F8E810AA
:205E100000F0A6FE002038BD40370020F8B50A4E456884680F4606E005F14002C1B2104658
:205E3000FFF75CFC7F1E37B13068016920688847B0F1FF3FF0D1F8BDD001001010B500F03B
:205E50007BFE00F081FE032000F0FEFD06481030006830B1034C204600F05CFD204600F011
:205E70005FFD10BDBF2F0000A401002008B500F06FFD012801D0FFF780FF074800F0E0FD92
:205E900000F09AF900F0D8FD00F0D2FD00F0CCFD00F0C6FD08BDC0464D5E0000B0B50F464F
:205EB000044600F09FFD04F128020CCAFEF76EF905460B4604F1280003C82A4600F0C6FB06
:205ED00017B1303484E803002846B0BD10B50C4600F0FCFA211AB1F1004F08D8011B091DF1
:205EF000C90F05D1001DA04288BF041C00E0041D0148046010BDC04618200940037A1A01E4
:205F1000A2EB4302074B0A339A5A436800681B680078D2188958042808BF21F07F41084631
:205F30007047C046900B0000B0B515460C1800F0CDFC002700B90127054A394610680028E6
:205F5000FCD025600120106009B100F0C5FCB0BD00800C4002460849084810B5042A07BF09
:205F70004FF0C0421D234FF080521C230968CC683421A04710BDC046A401001000A00C40EB
:205F9000202838BF07480CD307480C30016808038215920500F47C1001F00F01104340EA59
:205FB0000130704700803F408C130050094B10B51C688C4205D903EB8103D3F894309842D7
:205FD00001D0022010BD0846114600F055FA002010BDC046B4200020094902460823C87F1A
:205FF00030F07F0005D0B1F91C00824208BF081C04D05B1E01F12001F1D100207047C046A9
:206010004036002038B52020EFF3118580F31188064CA068002100F04BFD6169081AA16980
:20603000814238BF002085F3118838BD7801002010B5094C0BE02089001900F071FBA1898A
:206050002089491E401CA18100F007002081A0890028F0D110BDC046A82400200748816801
:2060700041F31002064991F900100068A0F5407041430811121A803210127047285009401F
:206090000C13005010B50C4601461046224641B138B1C8608A6004480B6100F0C3F80020F5
:2060B00010BD6FF0020010BD4037002070B5054600F00CFC002400B90124054E30680028C1
:2060D000FCD0A847012030600CB100F005FC70BD00800C4008B500F057F9FEF7CFFAFEF7ED
:2060F00077F90548FFF798F800F0F8FAFFF7A0FFFEF74EFFFAE7C0460D610000084A06489F
:206110000649138800780978182B4FF0000228BF0122FDF7BDB9C046B7240020F624002059
:20613000440F0020024610B500200121034601FA03F4224205D0C3F1070401FA04F4204304
:20615000C0B25B1C082BF2DB10BD704710B54268007A14680201A2EB40020448801800F0B7
:2061700072F8A1690843A06110BDC0469C0B0000074810B5046800F055F904F07F04012877
:2061900004D100F0AFF9022808BF641C204610BD4413005008B500F0BDF900F0804100F033
:2061B0000200084305D003484FF00051D43000F07DFA08BD00350020074808B51030006899
:2061D00028B1034800F0A6FB024800F0A9FB08BDF96200008D660000A4010020074810B530
:2061F0001030006830B1044C204600F093FB204600F096FB10BDC0465B610000A401002097
:20621000074908B5283090E80C000020FDF7BEFF002908BFB0F1FF3F88BF4FF0FF3008BD6B
:20623000907E000038B50C46054600F0CFFB0021216069686160696801B929460C606C6096
:2062500000F086FC38BD38B500220125134605FA03F421421CBF30F8134022435B1C042B7F
:20627000F5D3104638BD7047064A01281CBF0021101C04D11046002100F8021C202101708F
:206290007047C04602620840064A014610680028FCD10023D3611160D0690028FCD0D36158
:2062B0005068704700100440202838BF002008D3044810300068C10C01F44071C0F38450E3
:2062D000084370478813005038B5054600F044FC04460448294600F00DFA204600F038FCD3
:2062F00038BDC0464037002010B5064C206900F093FB0146A06800B9E160A068401CA06031
:2063100010BDC046A4010020054808B54168054801220838026048698969884708BDC046D3
:20633000E40100200C200940002181820449C0684969814203D10348006800F0D9BB704703
:2063500078010020940C000040B10549097829B1044981421CBF0099C1607047FEE7C04613
:2063700090140000883A002008B5072000F0F8F9002200B90122034800680721FFF78AFB6E
:2063900008BDC046CC2400200448054908B5FDF719FE0449086000B9FEE708BDB82400209C
:2063B000003B0020CC24002008B5062000F0D8F9002200B90122034800680621FFF76AFB8B
:2063D00008BDC046CC24002008B500F0C5FB05490022A1F83C2DA1F83A2DA1F8382D00F005
:2063F000B7FB08BD0802002010B5044607E090FAA0F0B0FA80F0C1B22046FEF767FF6068C6
:206410000028F4D110BD02294FF0000204D0012808BF4FF47A7203E0012808BF40F2EE223E
:2064300010467047054800684BF6BE110001B1EB104F14BF4FF0FF300120704718130050EA
:206450000548183801680348084001F07C4108437047C046FCFCFC008C130050054938393B
:2064700008680968C0F3870001F0030140EA01207047C04688130050002948BF0021044A6A
:2064900002EB8000026861F3050202607047C046001008400348016803480160034800F0A8
:2064B00005B9C046E0200240E020026014210020054808B5006800F078FA03214000B0FB2C
:2064D000F1F080B208BDC046E824002004480168436802688A42FAD1080440EA1340704701
:2064F00008200940044884380068C0F302400628A8BF4FF0FF3070471813005008B50320A1
:206510000121FEF7B5FCFFF7E1FF0149086008BD9C240020044910310868C3430B600A6895
:206530001042FBD17047C04600100440222804D303480068C0F30070704701207047C04690
:206550008C130050222804D303480068C0F34070704701207047C0468C13005004481C38E1
:20657000006800F47C010004000C08437047C0468C130050202805D303480C300068C0F369
:2065900001507047002070478C130050222804D303480068C0F3C060704700207047C046E2
:2065B0008C130050222805D30348001D0068C0F3455070470020704788130050044908B51F
:2065D00091F8E60018B1D1F8100100B1804708BD4037002038B5054600F0BEFA2C680CB194
:2065F0002168296000F0B4FA204638BD40680021017002480170024801707047461B002098
:20661000471B0020044910B51CC91CC01CC91CC00EC980E80E0010BDB40B00000449B1F18C
:20663000FF3F07BF0020011C0868091D00F0D3B8FFFFFFFF012814BF002040F2FF700249F4
:20665000086000207047C0460000046030B502FB01F403FB00444FF00005E2FB005421468C
:20667000284630BD38B5044C256900F065F9626901462846904738BD0035002004498868B8
:20669000401E886003D10869C96800F0C1B97047A401002010B50446A08A012804D100F021
:2066B000B3F9E168081A10BDA06810BD2022EFF3118382F31188426A1143416283F3118899
:2066D00000F002BA034804490068814201D000F094B8704794CA0110704739200448034A5F
:2066F000002100681160FEF741BFC046843B0020E82400200A6802B902464B6853604A68FD
:2067100002B9024608681060704708B5FFF78AFE012803D1FFF7ECF8142800DAFEE708BDFD
:206730000178AA3905D0113901D000F041B800F01BB9FFF7EFBA10B50446FFF74FFD03203D
:2067500000F082F9204600F087F910BD034A1168506813688B42FAD17047C046082009405C
:20677000014603480068C84000F001007047C04680200240034A1068002301680371087931
:2067900011607047F8240020034938B53CC93CC00EC980E80E0038BD1C0C000008B500F034
:2067B0002FF90248006800F08FF908BD8401002010B50446FFF708FE00F0D0F82078FEF7BD
:2067D00049F910BD0160426000218160521EC26001614161704708B5FFF7CCF9FEF7C2FF1A
