:20000000003C012025B80300A1C10310A1C10310A1C10310A1C10310A1C10310A1C10310E5
:1C002000A1C10310A1C10310A1C10310A1C10310A1C10310A1C1031079C10310B9
:20003C0070B5C74D0646A8780C468200084631463AF0D0F8AA7804F1280006F12801920083
:20005C003AF0C8F80120A9782065890004F15400091F35F044F870BD2DE9F047B84E0546AD
:20007C00F078884688B9286801282BD16868002828D1A868002825D1E868002822D128691D
:20009C0000281FD1686998B11CE02868012819D16868B8B9A868A8B9E86898B9286988B94E
:2000BC00686978B9A86968B9E86958B9286A48B90120B178C8F80000890008F10400091F43
:2000DC0035F00DF806F5DE7000214C223AF000FE96F802E096F803A006F5DE74AEF1010745
:2000FC00002F20DDAC4606F20262A4F10803DCF80000C10901F4FF7100F0FF00515A32F803
:20011C00100040EA014043F8080F5CF8040B010E32F81190C00B00F4FF70105A7F1E40EA5A
:20013C0009405860E3D1BAF1000F06F2026147D1686900F0FF0031F81000A062216981EAD1
:20015C00407121616169042780EA400281EAD00181EAC20104F10C02484060619069966802
:20017C00956980EA500186EA1170566885EA45037F1E86EAD50181EAC301966913689060C8
:20019C0085EA0100506083EA46701060A2F10402E4D16169C80880EA4002A06180EAC203CC
:2001BC00226880EA500782EAC30242402260606880EA5760606001F00701C8F8141047E0F6
:2001DC002A6AD00D00F00E000B5AD70B07F4FF70085A40EA03406064286AC20902F4FF728C
:2001FC0000F0FF008A5A31F81000092740EA024004F14802206452F8040D52F8246C1568C6
:20021C0052F8203C80EA40117F1E80EA810180EA411086EA401142F8241C85EA551185EA9E
:20023C00910185EA511083EAD03142F8201CE2D1216A2768C80E80EA4012606280EA82034C
:20025C0087EA43125040206021F07841C8F820104FEA8E0240462146121F39F0BBFFBDE883
:20027C00F08770B5364E0446F07898B904F150052868002831D1606D00282ED1A06D002812
:20029C002BD1E06D002828D1206E002825D1606EA0B122E004F150052868F0B9606DE0B922
:2002BC00A06DD0B9E06DC0B9206EB0B9606EA0B9A06E90B9E06E80B9206F70B90120B178C8
:2002DC0020608900201D091F34F009FFB17804F12800890034F003FF70BD20460146FFF7A3
:2002FC00BBFE04F1280004F12801FFF7B5FE28460146FFF7B1FE70BD2DE9FE4F074600917D
:20031C000F4E019206F5DE700021502205463AF0DFFC06F6040400214FF4167220463AF025
:20033C00D7FCB07839468200204639F053FF96F802A0AAF10100C0B2002853D002E0C04653
:20035C00F06E00208300E218E15852F8047C490041EAD771E75851627940916452F8047C5D
:20037C00E158890041EA9771E758D1667940C2F89010D76E516A7940E758C2F8B4107940B4
:20039C00C2F8D81052F8047CE158C90041EA5771E758C2F8FC107940C2F82011D2F8FC7001
:2003BC00516A7940E758C2F844117940C2F86811D2F8FC70D16E7940E758C2F88C117940F6
:2003DC00C2F8B011D2F88C71E358516A401EC0B2002881EA0701C2F8D41181EA0301C2F896
:2003FC00F811AFD127687900BA00084682EA0703C4F890307940A16411466062FB00E1663D
:20041C0080EA0102C4F8B4207A40C4F8D8201A46C4F8FC207B40C4F820315140C4F88C116B
:20043C0080EA0203C4F844314840C4F8D4017B40C4F8683181EA0702C4F8B0217840C4F862
:20045C00F80196F803900723BAF1000F26D0DDF800C04FEA8308D6460026ACF1040C5CF8F0
:20047C00040F20FA08F010F00F0F12D000F00F008100AA19574601EB401024380019D2F8E0
:20049C0000B050F8041B7F1E81EA0B0142F8041BF5D1BEF1010E06F10406E0D15FEA09072D
:2004BC0003D07F1E15D0BDE8FE8F012B02D1686A000FA86205F124010927086851F8042C7B
:2004DC007F1E4FEA001040EA127041F80409F4D10DE005F144011127086851F8042C7F1E7D
:2004FC004FEA001040EA127041F80409F4D128685B1E4FEA00102860A6D1BAF1000F21D0E4
:20051C00DDF800C056460023ACF1040C5CF8041F11F00F0F12D001F00F018800EA1857461E
:20053C0000EB411024380019D2F800E050F8041B7F1E81EA0E0142F8041BF5D1761E03F11F
:20055C000403E3D1B9F1000F32D0B9F1010F70D105F14802092752F8040D52F8246C1468ED
:20057C0052F8203C80EA40117F1E80EA810180EA411086EA401142F8241C84EA541184EA3E
:20059C00910184EA511083EAD03142F8201CE2D1296A2F68019EC80E80EA401280EA8203FD
:2005BC0087EA43125040286021F07841316240E0A86A296981EA40712961696980EA4002FC
:2005DC00042781EAD00181EAC20105F10C024840686190699668946980EA500186EA117075
:2005FC00566884EA44037F1E86EAD40181EAC30196691368906084EA0100506083EA4670AF
:20061C001060A2F10402E4D169692F68019CC80880EA400280EA500680EAC20387EAC30259
:20063C0042402A60686880EA5660686001F00701616101984FEA8A022946121F39F0CAFD31
:20065C00BDE8FE8F38B5514B1B785BB10446184654F8045B51F8043B401E83EA050342F83C
:20067C00043BF5D138BD2DE9F0418C4D0446E8780E4698B904F150000768002F39D1676D34
:20069C00002F36D1A76D002F33D1E76D002F30D1276E002F2DD1676EAFB12AE004F15000F7
:2006BC000768002F25D1676D1FBBA76D0FBBE76DFFB9276EEFB9676EDFB9A76ECFB9E76E56
:2006DC00BFB9276FAFB90120A97830608900301D091F34F004FDA97806F12800890034F0A6
:2006FC00FEFCA97806F15000890034F0F8FCBDE8F08105F55F71FFF7AFFC05F55F7120462A
:20071C00FFF7AAFC05F55F7005F55F7106F15002FFF7F2FD05F55F703146FFF79DFC05F597
:20073C005F7005F55F71FFF797FC304605F55F710246FFF787FF04F1280005F55F71FFF79A
:20075C008BFCE87806F1500705F55F7820B9404639460246FFF776FF404601460A46FFF7D3
:20077C0071FF06F1280230464146FFF7C5FD404639460246FFF7C0FD06F1280006F12802D7
:20079C004146FFF75FFFBDE8F081C046F26E00202DE9F84F414C0746E07815460E46002860
:2007BC0032D133680120B3B97368A3B9B36893B9F36883B9336973B9736963B9B36A53B9D4
:2007DC00F36A43B9336B33B9736B23B9B36B13B9F36B03B900203B6D80F001005FFA80F852
:2007FC00002B4FF0010054D17B6D002B51D1BB6D002B4ED1FB6D002B4BD13B6E002B48D10A
:20081C007B6E002B45D143E0012849D133680120002B26D17368002B23D1B368002B20D11D
:20083C00F368002B1DD13369002B1AD17369C3B9B369B3B9F369A3B9336A93B9B36A83B99C
:20085C00F36A73B9336B63B9736B53B9B36B43B9F36B33B9336C23B9736C13B9B36C03B9EA
:20087C0000203B6D80F001005FFA80F8012083B97B6D73B9BB6D63B9FB6D53B93B6E43B984
:20089C007B6E33B9BB6E23B9FB6E13B93B6F03B9002080F001005FFA80FA04E0F06E002001
:2008BC004FF00008C246A078B8F1000F40F0208106F12801BAF1000F009140F0028107F116
:2008DC00500004F541723146FFF716FD04F54B7907F150004946FFF7BFFB04F54171384613
:2008FC002A46FFF7AFFE07F1500004F541722946FFF702FD009904F5557B48465A46FFF7EB
:20091C00FBFC07F1280005F128025946FFF79AFEE07805F12809002829D12B68012053B9F6
:20093C006B6843B9AB6833B9EB6823B92B6913B96B6903B9002005F12809D9F8003080F0F6
:20095C0001005FFA80F8002B4FF0010040D1EB6A002B3DD12B6B002B3AD16B6B002B37D1CA
:20097C00AB6B002B34D1EB6B002B31D12FE0012832D12B68012083B96B6873B9AB6863B939
:20099C00EB6853B92B6943B96B6933B9AB6923B9EB6913B92B6A03B9002005F12809D9F813
:2009BC00003080F001005FFA80F8012083B9EB6A73B92B6B63B96B6B53B9AB6B43B9EB6BCF
:2009DC0033B92B6C23B96B6C13B9AB6C03B9002080F001005FFA80FAB8F1000F52D160483F
:2009FC0005F15001FFF738FB5D4849465A46FFF783FCE07805F1500720B959485949024619
:200A1C00FFF720FE57492846FFF726FB554854492A46FFF771FC53494846FFF71DFB5149A2
:200A3C0028460246FFF70EFE284659460246FFF709FE4C4A30463946FFF75EFC49482946B5
:200A5C000246FFF7FFFD46493846FFF705FB584639460246FFF7F6FD424958464A46FFF740
:200A7C004BFC00993F4A3046FFF7ECFD3C483D495A46FFF741FC484659460246FFF7E2FD75
:200A9C00BDE8F88FA178BAF1000F10D1012089002860091F281D34F022FBA0788100484653
:200ABC0034F01DFBA17805F1500089001CE030463946FFF7B5FA38462946FFF7D4FDBDE807
:200ADC00F88F82003146284639F084FBA1788A00009905F1280039F07DFB0120A1782865A2
:200AFC0005F154008900091F34F0F9FABDE8F88F82003946284639F06DFBA27805F1280064
:200B1C0007F12801920039F065FBA27805F1500007F15001920039F05DFBBDE8F88F03464C
:200B3C000846910010B5521E5B1840181B1F001F51B2002911D4491C02681C68A24288BFD2
:200B5C004FF0FF300AD850F8042953F80449A24238BF012002D3491EEED1002010BDC04632
:200B7C00F47100201C7200202DE9F84FAF4F8B468146282207F54174002104F178008246E2
:200B9C003AF0A6F804F1A0000021282280463AF09FF80021282204F128003AF099F8002186
:200BBC00282204F150003AF093F80120FE78C7F82C030020C7F85403B878002E05463CD164
:200BDC0082004946504639F005FB082604F1A008C920DAF80050C4F8B4604FF0000CC4F87C
:200BFC00A000012D0ED1E66F66B9D4F880604EB9D4F8846036B9D4F888601EB9D4F88C6023
:200C1C00002E68D0D4F8A00004F1A008012860D1D4F8A460002E5CD1D4F8A860002E58D199
:200C3C00D4F8AC60002E54D1D4F8B060002E50D1D4F8B460002E4ED04BE0012E4DD1AA00F4
:200C5C005046494639F0C6FA4FF00066C4F8C06041F2A100C4F8A000DAF8000004F1A0084A
:200C7C004FF0000C012816D1E66FA6B9D4F880608EB9D4F8846076B9D4F888605EB9D4F8E0
:200C9C008C6046B9D4F890602EB9D4F8946016B9D4F89860FEB1D4F8A00004F1A008012876
:200CBC0017D1D4F8A460A6B9D4F8A8608EB9D4F8AC6076B9D4F8B0605EB9D4F8B46046B90D
:200CDC00D4F8B8602EB9D4F8BC6016B9D4F8C0600EB14FF0010CFE78BD78DAF8000041F2CF
:200CFC00A10922E104EB8500022DA5F1010300F124000DDB04F178021F461168D2F804E0F6
:200D1C007F1E4FEA510141EACE7142F8041BF4D1016D49080165A16A4A0811D346B1012E7B
:200D3C000ED1A26C89EA010182F00062A26406E0E26BA16A82F00802E26381F0C901A1621E
:200D5C00002B0BDD04F12802116857685B1E4FEA510141EAC77142F8041BF5D101684908CD
:200D7C000160DAF800004008BCD3D8F8000040E004EB8500022DA5F1010300F14C000DDBFB
:200D9C0004F1A0021F461168D2F804E07F1E4FEA510141EACE7142F8041BF4D1016D4908A5
:200DBC000165216D4A0811D346B1012E0ED1226F89EA010182F00062226706E0626E216D41
:200DDC0082F00802626681F0C9012165002B0BDD04F15002116857685B1E4FEA510141EA31
:200DFC00C77142F8041BF5D1016849080160D8F800004008BCD3504641462A46FFF78FFEAE
:200E1C00012815D035B304F128012F468A6F086D8B6A7F1E80EA02000A68886782EA0300F1
:200E3C00886201F10401F1D114E0C046F06E002085B104F128012F460A6D886F0B687F1E34
:200E5C0080EA02008A6A086582EA0300086001F10401F1D1DAF80000002E2BD101284FF0B5
:200E7C00000C0ED1E76F67B9D4F880704FB9D4F8847037B9D4F888701FB9D4F88C70002FEE
:200E9C0053D0D8F8001001294DD1D4F8A470002F49D1D4F8A870002F45D1D4F8AC70002F82
:200EBC0041D1D4F8B070002F3DD1D4F8B470002F3BD038E0012E38D101284FF0000C16D106
:200EDC00E76FA7B9D4F880708FB9D4F8847077B9D4F888705FB9D4F88C7047B9D4F89070DC
:200EFC002FB9D4F8947017B9D4F89870EFB1D8F80010012917D1D4F8A470A7B9D4F8A870C4
:200F1C008FB9D4F8AC7077B9D4F8B0705FB9D4F8B47047B9D4F8B8702FB9D4F8BC7017B9BD
:200F3C00D4F8C0700FB14FF0010CBCF1000F7FF41AAFA6B9012836D1E06F002833D1D4F8BF
:200F5C00800000282FD1D4F8840000282BD1D4F88800002827D1D4F88C00C8B123E00128E8
:200F7C0021D1E06FF8B9D4F88000E0B9D4F88400C8B9D4F88800B0B9D4F88C0098B9D4F87B
:200F9C00900080B9D4F8940068B9D4F8980050B995B12834284654F8041B401E4BF8041B43
:200FBC00F9D1BDE8F88F3DB15034284654F8041B401E4BF8041BF9D1BDE8F88FF8B5924D92
:200FDC000446E8780E4698B904F150000768002F2ED1676D002F2BD1A76D002F28D1E76D35
:200FFC00002F25D1276E002F22D1676EA7B11FE004F150000768DFB9676DCFB9A76DBFB999
:20101C00E76DAFB9276E9FB9676E8FB9A76E7FB9E76E6FB9276F5FB9A8788100304634F03B
:20103C005EF8A97806F12800890034F058F8F8BD05F54171FFF798FD05F54171204632468B
:20105C00FFF75AF905F5417005F54171FFF704F804F1280005F5417106F12802FFF74CF9BD
:20107C00F8BDB0B5684DEF780C46002F24D10768002F59D14768002F56D18768002F53D199
:20109C00C768002F50D10769002F4DD14769002F4AD1876A002F47D1C76A002F44D1076BDF
:2010BC00002F41D1476B002F3ED1876B002F3BD1C76B002F2CD037E00768002F34D14768F0
:2010DC00002F31D18768002F2ED1C768002F2BD10769002F28D14769002F25D18769002FC0
:2010FC0022D1C769002F1FD1076AEFB9876ADFB9C76ACFB9076BBFB9476BAFB9876B9FB9E9
:20111C00C76B8FB9076C7FB9476C6FB9876C5FB9A8788100204633F0E2FFA97804F128005F
:20113C00890033F0DCFFB0BDAF784FB10268816A5140A16250F8041B7F1E44F8041BF5D16A
:20115C00B0BD2DE9F04FD24C0546ADF1240D0591204606920021C822049539F0B9FD052736
:20117C0028462146103050F8042B7F1E41F8042BF9D1254D2068D5F88C10002604F1180B57
:20119C004FF0040C0123009605F148070196A1FB0010616100210791001C87E803000199FF
:2011BC0005F15802052B084682E80300A4BF181FC0B253E0B54FACEB80016258DDF820E0EE
:2011DC0005F1480696E8000307EB800149697746A1FB021A11EB080147EB090205F15807FD
:2011FC0097E8000305F1480686E80600461CF0B27246574605F1580617EB080142EB0902A9
:20121C0086E806006AE1C046F06E00209E4FACEB80016258DDF81CE005F1480696E800031A
:20123C0007EB800149697746A1FB021A11EB080147EB090205F1580797E8000305F148069B
:20125C0086E80600461CF0B27246574605F1580617EB080142EB090286E80600052BB4BFF7
:20127C00191C04218142D1DAA86C05F14807DDF81C904BF8040B97E8030005F158068846BA
:20129C0096E803005B1C05F148020CF1040C10EB080041EB0901092B82E80300FFF67FAFF0
:2012BC00A06301044F46606B0397C00E50EAD12002905AD0D5F82C11C846A0FB0106DDF8CC
:2012DC000890E063D5F83001C24653464A4641463BF0FCFF0F46321C534641461218D5F881
:2012FC003401226443EB01034A461E4653463BF0EDFF331C13EB000AD5F83801C34689460C
:20131C003A4641465B464BEB010B12EB0A026264029A43EB0B031E4643463BF0D7FF331CE3
:20133C0013EB000AD5F83C014746BB464A46884639465B464BEB010B12EB0A02A264029A86
:20135C0043EB0B031E463B463BF0C0FFBA46321C53460F4646465146121843EB0103B018E3
:20137C00E06441EB0301C91921656069E26B0799266C8046104610EB080002466261A269F8
:20139C00019F89460B4641EB09019046081C16EB08024E4643EB090331461218A26143EB96
:2013BC000603626CE069A66C98464B46121843EB010312EB0802E261206A43EB0903984628
:2013DC004B46321843EB010312EB08022262E26C606A4FF4004643EB090398464B461218E5
:2013FC0043EB010312EB080243EB0903B6186662A26A47EB0307381C1218A262E26A4F461D
:20141C0047EB0103181C1218E262226B47EB0103181C12182263626B47EB0103181C1218D1
:20143C006263A26B484640EB0103181C12181046400EC4F89000C6F3084007900527A263EA
:20145C0004F12402106853687F1E4FEA506040EAC310906502F10402F4D10798400A3CBF08
:20147C00079840421ED3019804F17C03052284461E68B6F1FF3F0DD1521E43F804CB00F18C
:20149C000100F5D10BE0C046686F0020906F0020F471002004EB8002D06F401CD0670798FB
:2014BC00C0F500700790D5F8B420206805F1480704F1180B4FF0040C08910123A2FB002005
:2014DC006261001C87E80300019905F15802052B084682E80300A4BF181FC0B2052BB4BF1B
:2014FC00191C04218142BFF665AEA86C05F14807DDF820904BF8040B97E8030005F15806E5
:20151C00884696E803005B1C05F148020CF1040C10EB080041EB0901092B82E80300D3DB14
:20153C00A063616B0004CF0E57EAD02002905AD0D5F82C11C846A0FB0106DDF80890E06388
:20155C00D5F83001C24653464A4641463BF0BEFE0F46321C534641461218D5F8340122645D
:20157C0043EB01034A461E4653463BF0AFFE331C13EB000AD5F83801C34689463A4641467C
:20159C005B464BEB010B12EB0A026264029A43EB0B031E4643463BF099FE331C13EB000A9F
:2015BC00D5F83C014746BB464A46884639465B464BEB010B12EB0A02A264029A43EB0B03D0
:2015DC001E463B463BF082FEBA46321C53460F4646465146121843EB0103B018E06441EB6C
:2015FC000301C91921656269E06B089B276C80186061A06919468946804641EB030117EB8F
:20161C000800676C1E460A4646EB09018018A06141EB0301E069A36C0A1C804617EB0800CD
:20163C0046EB09018018E061206A374641EB07010A1C804613EB080047EB09018018019BDD
:20165C00E76C2062606AB44641EB06014FF400428846834617EB0B0046EB0C0110EB080038
:20167C0041EB090112186262A06A43EB0103984610EB0800A062E06A4F4646EB0701884625
:20169C0010EB0800E062206B4B4647EB0301884610EB08002063606B47EB0601884610EB76
:2016BC0008006063A06B47EB0301884610EB08000346590EC4F8A8100527A063C2F30840E1
:2016DC0004F12402116853687F1E4FEA516141EAC311116702F10402F4D1410A18D3019912
:2016FC0004F1940305228E461E68B6F1FF3F06D1521E43F804EB01F10101F5D106E004EBDC
:20171C008102D2F89410491CC2F89410A0F500700799019EC0EB410E3746BEF5007F05DA2D
:20173C00A1EB8001B1F5806F09DA0AE0079A00EB4001891811F5007FA8BF012601DA4FF083
:20175C00FF371EF5007F06DB0799A1EB800111F5806F07DB07E0079900EB40004018B0F591
:20177C00007F04DB0127002E5AD0012E15D0019804F17C02052186461368B3F1FF3F06D129
:20179C00491E42F804EB00F10100F5D148E004EB8001C86F401CC86742E0E06F019A4FF040
:2017BC00FF36804616EB0800E067D4F880A01146E346334641EB090188461AEB080A4BEB8C
:2017DC00090B13EB0A00C4F88000D4F884A0164646EB0B011E46884663461AEB080A43EBEC
:2017FC00090B16EB0A00C4F88400D4F888801346664643EB0B018A464FF0FF3318EB0A0805
:20181C0049EB060913EB0800C4F88800D4F88C00164646EB0901091C4018401EC4F88C000D
:20183C00002F5DD0012F44D0D4F89400DDF804E04FF0FF321218C4F89420D4F8982061469E
:20185C00734667464FF0FF3A43EB0103181C121847EB01031AEB020AC4F898A0D4F89C203B
:20187C00F34666464FF0FF374BEB030B5846001C121846EB010317EB020AC4F89CA0D4F8C3
:20189C00A070F3464BEB030B58464FF0FF33021CB81841EB06011A18C4F8A020D4F8A40051
:2018BC00774647EB0103191C4018401EC4F8A40016E0019804F19402052186461368B3F1A3
:2018DC00FF3F06D1491E42F804EB00F10100F5D106E004EB8001D1F89400401CC1F8940033
:2018FC00E06FD5F8041105F1480204F1580B4FF0040ACDF808C0A1FB00106165001C6146F4
:20191C0082E803000122019904EB0A0605F15803571C084606F17C0C83E8030005F5827394
:20193C005CF8040953F8041B05F1480696E80003A1FB000E029905F1480610EB080041EB43
:20195C00090186E80300029905F1580696E800037F1E704605F1580610EB080041EB0901A0
:20197C00002F86E80300DBD1A86C05F15806029B4BF8040B96E8000305F1480797E8030060
:20199C00521C0AF1040A081C05F1480718EB000849EB0309052A87E80003B4DBD4F8940070
:2019BC00D5F8DC102F4605F1480204F1180B4FF0040A0297A1FB00106161001C194682E84C
:2019DC0003000122019904EB0A0605F158030846571C06F1940C83E80300294601F1DC03D5
:2019FC005CF8040953F8041B05F1480696E80003A1FB000E039905F1480610EB080041EB82
:201A1C00090186E80300039905F1580696E800037F1E704605F1580610EB080041EB0901DE
:201A3C00002F86E80300DBD1A86C05F15806039B4BF8040B96E8000305F1480797E803009E
:201A5C00521C0AF1040A081C05F1480718EB000849EB0309052A87E80003B3DB626D606978
:201A7C00A669801802466265A26D19468946B0464F4641EB0301081C18EB020849EB03092B
:201A9C0018EB0008464649EB07094846A665021CE66DE0691946801941EB07018018E065F3
:201ABC00206A266E41EB03010A1C801943EB070180182066606A666E1A4641EB02010A1C56
:201ADC001946801905F1480641EB0701801841EB030186E80300606604980E1CE04905F196
:201AFC00500282E8C0000522FFF719F8012866D00498DB490522FFF712F8B0F1FF3F07D024
:201B1C00019805990626761E41F8040BFBD1AAE0D348049E0268DDF814C030683B46B9462C
:201B3C000121C043804618EB020849EB030911EB080002460199CCF800203046A26D466854
:201B5C0041EB0901F643B04618EB0208059A844608463E4646EB030918EB00084646566032
:201B7C00DCF80860E26D384649EB0009F643B04618EB0208059A3946484641EB030918EBE0
:201B9C000008464605999660DCF80C60206E3A4649EB0209F6434A46B046B9463E4618EB2F
:201BBC00000849EB060918EB02084646CE606646626E306949EB03090223494649E0A84ECF
:201BDC0004980068804601993068B9463B46C243012612EB080243EB0903B018059E049AF7
:201BFC00306041EB0301A36D50688A46D9438046334611EB08013E4646EB0902049E11EBB3
:201C1C000A015960E36DB06880466FEA0300059BBB4642EB0B0259465E4610EB080041EB0D
:201C3C000901801841EB0601049E98608846216EF268C8435E4680181A465B4643EB0601E5
:201C5C00049E012310EB080041EB0901D060606E3269059EC043894612185FFA89F15218F4
:201C7C00326130464361B9487D4AD4F89410406905F1480604F1580B4FF0040A0297A0FB9D
:201C9C0001101160001C3946012286E80300019905F15803084683E80300AC4904EB0A06DC
:201CBC00571C06F1940C01F114035CF8040953F8041B05F1480696E80003A1FB000E029920
:201CDC0005F1480610EB080041EB090186E80300029905F1580696E800037F1E704605F141
:201CFC00580610EB080041EB0901002F86E80300DBD1A86C05F1580696E8000305F14807B7
:201D1C00029B4BF8040B97E80300521C0AF1040A081C05F1480718EB000849EB0309052ADC
:201D3C0087E80003B3DBBA49874AE06F496905F148074FF0040A012604F1180BA1FB001035
:201D5C001160001C194687E803000199DFF8C0C204EB0A0305F15802771C084603F17C0E6B
:201D7C000CF1140C82E803005EF804095CF8041BA1FB0023029905F1500080E80C0005F1DD
:201D9C00480090E80003104605F1480210EB080041EB090182E8030005F1580292E803005B
:201DBC001A1C029B7F1E121805F1580043EB0103002F80E80C00D7D1A86C05F148074BF806
:201DDC00040B97E8030005F1580797E80C00029F761C0AF1040A081C05F14801121843EB7F
:201DFC000703052E81E80C00AFDB1D4856490522FEF795FE01285BD0194853490522FEF76B
:201E1C008EFEB0F1FF3F07D00199069A0620401E42F8041BFBD194E04B48114B0768DDF8DA
:201E3C000880069E019918680122C246C043814619EB07094AEB080A12EB09003060A26D4B
:201E5C00A06941EB0A01D2430F1CC2469146414619EB00094AEB010A19EB07094A4601E0AE
:201E7C00487200204AEB080A50467260071CE26DE069C246D2435346914619EB00094AEB33
:201E9C00010A19EB070948464AEB030A5246B060171C206A226ED243121843EB0103D219E6
:201EBC00F260606E666A43EB08031946022439E02748254A029B0768069E019910689846C1
:201EDC00C2430120D21943EB080380183060A069A76D41EB03010A1C4346C043C01943EB6E
:201EFC00080180187060E069E76D1A4641EB02010A1CC043C01943EB08018018B060206ABE
:201F1C00226E1F4641EB07010F1C4146C043801841EB0301C0190246F260606A666E41EBC2
:201F3C000801012405F1500CC0430B4648358CE88001361885E80C000698D9B2761806615A
:201F5C00446109B0BDE8F08F08720020686F0020487200202DE9F04FA64D0446ADF11C0D1F
:201F7C000491284605920021C822039438F0B0FE042720462946083050F8042B7F1E41F8AE
:201F9C00042BF9D19C4C2868A16F00264FF0000905F1180E4FF0040C0123009604F14807CD
:201FBC000196A1FB00106961804687E80003019A04F15800042B114680E806000846A8BF2F
:201FDC0001204AE0124A04F1480797E80003ACEB8001695852F820205F46A2FB011A11EBBC
:201FFC00080147EB090204F1580797E8000304F1480686E80600461C5A46F0B2574604F1BC
:20201C00580617EB080142EB090286E806001BE1906F0020794AACEB8001695852F820204E
:20203C00A2FB011804F1480292E8C0004A46891904F1480642EB070286E8060004F15802E7
:20205C0092E8C000411CC8B241464A46891904F1580642EB070286E80600032BB4BF191CC7
:20207C0002218142D6DAA06C04F148074EF8040B97E8030004F15806884696E803005B1C6E
:20209C0004F148020CF1040C10EB080041EB0901052B82E803008ADB5849EA68896802FBBC
:2020BC000100C708A86229D0D4F81801A7FB0006E863D4F81C01CA463A46494653463BF08D
:2020DC0005F98846321C534649461218D4F820012A6443EB01033A461E4653463BF0F6F835
:2020FC000F46321C534649464646121843EB0103B018686441EB0301C919A9646869EE6B34
:20211C00019F8046F0432E6C4946012210EB080041EB090112186A61AA693B4643EB0103CA
:20213C0090464946181CF24312EB080241EB09031218696CAA61EA694E4643EB0603181C1A
:20215C009046CA4312EB080246EB09031218A86C49464FF4002643EB0103B618B446C5F84F
:20217C001CC02E6A39466FEA000247EB0307B8464B464F46921943EB070312EB080216464F
:20219C002E626A6A4FF0FF3043EB090398464B4612EB080243EB0903801841EB03010A1C79
:2021BC006862A96A8918491E32030B4602F440529B08C5F8843042EA1C5202928308A96238
:2021DC0043EA8173C5F88030B30843EA8071E967900B1ED3019805F17C02032106461368A8
:2021FC00B3F1FF3F0CD1491E42F8046B00F10100F5D10AE0F4710020F06E0020686F002058
:20221C0005EB8001C86F401CC8670298A0F5804002902868D4F8A01004F1480605F1180E83
:20223C004FF0040C0123BB46A1FB00106961804686E80003019A04F15800042B114680E88B
:20225C0006000846A8BF0120032BB4BF191C02218142BFF6B7AEA06C04F148074EF8040B0B
:20227C0097E8030004F158068A4696E803005B1C04F148020CF1040C10EB0A0041EB0B011C
:20229C00052B82E80300D5DB9D49EA68896802FB0100C708A86229D0D4F81801A7FB00064F
:2022BC00E863D4F81C01DA463A46594653463BF00DF88846321C5B4659461218D4F8200153
:2022DC002A6443EB01033A461E4653463AF0FEFF0F46321C5B4659464646121843EB0103B3
:2022FC00B018686441EB0301C919A9646869EF6BDDF804C02E6C594682460122F84310EBF1
:20231C000A0041EB0B0112186A61A869634643EB0103F24359469A465B46121843EB0103CD
:20233C0012EB0A02AA616A6CE8695F4643EB0B039A46D64363464FF40022361847EB0107D6
:20235C0016EB0A0647EB0B07921943EB0703EA61181C2B6A9846AB6CD9465F46DE4316EB3A
:20237C00080647EB0907361847EB0107381C2E626F6A5B463F184FF0FF3041EB0308C01936
:20239C0003466B62A86A674647EB0801091C4018401E014630030F4600F4405040EA125057
:2023BC00BA08C5F89820A9629A08674642EA8172C5F89420B20842EA8371C5F89010810B1D
:2023DC0038BF404217D305F19002032163461668B6F1FF3F06D1491E42F8047B03F10103D7
:2023FC00F5D106E005EB8302D2F89010491CC2F89010C0F58040029900EB4103B3F5804FC1
:20241C0005DA01EB8001B1F5004F0BDA0BE0029E032110FB01F2B11A11F5804FA8BF4FF087
:20243C00010C00DA012713F5804F06DB029901EB800111F5004F08DB09E0029E032110FBC1
:20245C0001F0301AB0F5804F07DB4FF0FF37BCF1000F39D0BCF1010F21D0E86F019E4FF0B2
:20247C00FF3212181046E867D5F880005946334643EB01031A1C5B4680184FF0FF3241EB9E
:20249C0003011218C5F88020D5F88400324642EB0103191C4018401EC5F8840014E00198E2
:2024BC0005F17C02032106461368B3F1FF3F06D1491E42F8046B00F10100F5D104E005EB4C
:2024DC008001C86F401CC867002F3ED0012F19D0019805F19002032106461368B3F1FF3F59
:2024FC0006D1491E42F8046B00F10100F5D12CE005EB8001D1F89000401CC1F8900024E0A2
:20251C00906F0020D5F89020019E4FF0FF3080180246C5F89020D5F894205B4631465F466B
:20253C0041EB0301081C4FF0FF31121843EB07038818C5F89400D5F89800374647EB030151
:20255C00091C4018401EC5F89800E86FD4F8F01004F1480705F1580A4FF0040C0122A1FB62
:20257C0000106965001C594687E80300019904F15803084683E80300964B05EB0C06571C38
:20259C0006F17C000290029953F8046B51F80409A6FB000E04F1480696E8000302915946CA
:2025BC0004F1480610EB080041EB090186E8030004F1580696E800037F1E5946704604F157
:2025DC00580610EB080041EB0901002F86E80300D9D1A06C04F148074AF8040B97E80300DB
:2025FC0004F158030E1C93E80300521C0CF1040C5F4604F14803801941EB0701032A83E802
:20261C000300B3DB7349734FD5F884204968D5F88060D5F89030A1FB02120918B868D4F876
:20263C00C87005F1180A4FF0040C012206FB0010286604F14806A7FB03106961001C5946A0
:20265C0086E80300019904F15803084683E80300614B05EB0C06571C06F190000290029972
:20267C0053F8046B51F80409A6FB000E04F1480696E800030291594604F1480610EB080043
:20269C0041EB090186E8030004F1580696E800037F1E5946704604F1580610EB080041EB2F
:2026BC000901002F86E80300D9D1A06C04F148074AF8040B97E8030004F158030E1C93E892
:2026DC000300521C0CF1040C5F4604F14803801941EB0701032A83E80300B3DB3E493E4F71
:2026FC00D5F898204968D5F89430A1FB02120918B8686F6D03FB00162E626869C01968650F
:20271C00AA6DA8695B465F4647EB03010F1C5946801841EB0301C019A865E869EF6DD846B6
:20273C0041EB08010A1C5946C01904F1480741EB08018018E86541EB030187E80300286E14
:20275C000A1CD949801880192866039804F1500787E80C000422FEF7E2F901283ED003982C
:20277C00D1490422FEF7DBF9B0F1FF3F07D00198049904277F1E41F8040BFBD15EE0CA481C
:20279C00DDF80CC00268DDF810E0DCF8000001995B465F46C6430120B61847EB03078019CC
:2027BC00CEF80000A86DDCF8042041EB07010E1C5946D243121843EB01039219CEF8042027
:2027DC00EA6DDCF808005F464FF0020643EB070319462BE0E06F0020B86F0020B248DDF897
:2027FC000CE0DEF800200068DDF810C001995B465F46C6430120B61847EB03078019CCF85D
:20281C000000A86DDEF8046041EB07015F460A1CC0435946801941EB070101268018CCF85C
:20283C00040041EB0301E86DDEF80820049FC0430B461218D9B25218BA60FE60AB489A4A90
:20285C00D5F8901000685B4604F1480705F1580A4FF0040CA0FB01101160021C87E80C0045
:20287C000122019904F15803084683E803009F4B05EB0C06571C06F190000290029853F816
:20289C00046B50F804190290A6FB010E04F1480696E80003594604F1480610EB080041EB31
:2028BC00090186E8030004F1580696E800037F1E5946704604F1580610EB080041EB09012F
:2028DC00002F86E80300D9D1A06C04F148074AF8040B97E8030004F158030E1C93E8030077
:2028FC00521C0CF1040C5F4604F14803801941EB0701032A83E80300B3DB7C497B4FD5F80A
:20291C0098204968D5F89460794BA1FB02120918B868784F06FB001028661968E86F4FF03F
:20293C00040C012204F14806A1FB00103960824686E8000C05F1180A019904F1580308462E
:20295C0083E803006A4B05EB0C06571C06F17C000290029853F8046B50F804190290A6FBD2
:20297C00010E04F1480696E80003594604F1480610EB080041EB090186E8030004F1580689
:20299C0096E800037F1E5946704604F1580610EB080041EB0901002F86E80300D9D1A06CC6
:2029BC0004F148074AF8040B97E8030004F158030E1C93E80300521C0CF1040C5F4604F1D7
:2029DC004803801941EB0701032A83E80300B3DB474AD5F88430526804F15006A2FB0323C0
:2029FC0086E80C00121847EB0103414FB868414904F1480686E80C00D5F8806006FB00201C
:202A1C00286229480422FEF78AF8012836D0264838490422FEF783F8B0F1FF3F07D00199FE
:202A3C00059A0420401E42F8041BFBD15BE01E4A3048126800685946D9460126D243904667
:202A5C0018EB000849EB010916EB08063046059E019F3060AA6DA8695B4647EB09073F1C53
:202A7C00D243121843EB0103D2197260E86DEE69D84643EB08031946022525E00A481D4BC4
:202A9C000768059E18680199D846C2435B460120D21943EB080380183060A869AA6D41EB69
:202ABC0003015B460F1C01E048720020C0435946801841EB0301C01902467260E869EE6D66
:202ADC0041EB08010125FFE704F1500CC0430B4648348CE88001361884E80C000598D9B295
:202AFC0076188660C56007B0BDE8F08F686F0020906F0020087200202DE9F04F06460020D5
:202B1C00ADF1CC0D0090B1480F46C078069220B1012840F08D84052000E003208500AB4C95
:202B3C00089031462A4604F6D42037F053FB20463946034604952A4600F65C2403F6D420FD
:202B5C0005902830039037F045FB284630580195022805D0009D012808BF0125099502E0B4
:202B7C004FF0FF36099601983858022804D0009D012808BF012501E04FF0FF350020179031
:202B9C0018901590169012901390109011900E900F900B900C901C901D901E901F902090C6
:202BBC002190249026902790289029902A902B902D902E902F903090319000990D911491AA
:202BDC0019911B911A910A46079200F02CBCDDF804C007990698059A089FA36F04EB0C06E7
:202BFC00091806F1740E02F1500CCDF808C0781E83465808C0F03782099F7448002F00F197
:202C1C00600009DDDFF8C4C19CF80320002D07D4B2B1012A24D11BE0DFF8B0C19CF80320BA
:202C3C00002F06D5002D04DC002A2AD0012A38D12FE0002F22D4002D20D54AB1012A0FD1AD
:202C5C00D4F8A060720002EB8602D218009207E0D4F8A0C04FF01A0808FB0C3CCDF800C0E5
:202C7C00DDF800C00CF01F0CBCF1100FCDF800C084BF6246203A22D8624621E04AB1012A1D
:202C9C000FD1D4F8A060720002EB8602D218009207E0D4F8A0C04FF01A0808FB0C3CCDF885
:202CBC0000C0DDF800C00CF01F0CBCF1100FCDF800C087BF6246C2F120026246524252B228
:202CDC00002A0A7004DC51424FF0FF3C4AB201E04FF0010C521ECDF800C051104256DDF85B
:202CFC00009012FB0CF88C4610F90C0010FB09F00028D4BF4042404647B9A067B8F1000FAA
:202D1C00D4BF01274FF0FF370997BDE0002F03D5B8F1000F00F39880002F03DDB8F1000F99
:202D3C0000F19280DFF8A48098F80330002B37D1D4F880604EB9E76F17B9A16F88423FD0C1
:202D5C00374302D1A16F88424CD8A16FDDF8C490C043804608461B9901264F4604F17C02D9
:202D7C0018EB000849EB0709022716EB0800A06741EB0901DDF8C49010688846494618EB78
:202D9C00000849EB01091B994FF0FF367F1E16EB080042F8040B41EB0901002FEAD177E043
:202DBC00012B75D1D4F8886016BBD4F884707FB9D4F8802062B9E26F52B9A16F884207D173
:202DDC00DDF86C80CDF8248040460FE0F06E002037430DD1D4F8807057B9E76F47B9A16F30
:202DFC00884205D9099F7F420997401AA0674FE0A16FDDF8C490089FC043804608461B99CB
:202E1C004E4604F17C027F1E18EB000849EB0609012616EB0800A06741EB0901DDF8C4900E
:202E3C0010688846494618EB000849EB01091B994FF0FF367F1E16EB080042F8040B41EB15
:202E5C000901002FEAD123E0A16FDDF84090884610EB08004F46A0674FF0010047EB0901C1
:202E7C000F460CE004EB80018A6F3E46401C4F469046C0B216EB08068E6747EB09071FB1B9
:202E9C00DDF820808045EDDCDFF8448398F803300CEBC300DFF84CC3009F1CF9000010FB53
:202EBC0007F0002846BFC0F1000CCDF800C000905DB9DDF800C00028C4F8A0C0C8BF4FF04B
:202EDC00FF35002848BF0125D3E0002D02D5002800F3A880002D02DD002800F1A380002BE0
:202EFC0043D1D4F8A86086B9D4F8A4702FB9D4F8A000DDF800C084454CD0374305D1D4F8C5
:202F1C00A000DDF800C0844555D8DDF80080D4F8A0C0DDF8C4906FEA08006746494680465D
:202F3C0018EB070849EB01091B99012604F1A402022716EB0800C4F8A00041EB0901DDF816
:202F5C00C49010688846494618EB000849EB01091B994FF0FF367F1E16EB080042F8040BCC
:202F7C0041EB0901002FEAD183E0012B40F08180D4F8B0602EBBD4F8AC7077B9D4F8A820E4
:202F9C005AB9D4F8A42042B9D4F8A000DDF800C0844502D11B9D284610E0374311D1D4F89C
:202FBC00A87077B9D4F8A4705FB9D4F8A000DDF800C0844505D9ACEB00006D42C4F8A0006B
:202FDC0057E0DDF80080D4F8A0C0DDF8C490089F6FEA080066464946804618EB060849EBA6
:202FFC0001091B9904F1A4027F1E012616EB0800C4F8A00041EB0901DDF8C490106888468E
:20301C00494618EB000849EB01091B994FF0FF367F1E16EB080042F8040B41EB0901002F40
:20303C00EAD126E0D4F8A0C0319F009EE0460120B94616EB0806C4F8A06047EB0907C7B14E
:20305C00DDF820C0844514DD04EB800CDCF8A0803E46401C4F46C0B216EB0806CCF8A060BC
:20307C0047EB0907EBE7DDF864C0594F81F800C0FB7804F178015F4608684A687F1E4FEAC8
:20309C00500040EAC270086501F10401F4D1099FDEF80000002B0A974FEA5000CEF8500056
:2030BC0040F0A280002F00F09580002D00F08980BD4260D0039802990322FDF730FD012874
:2030DC002BD0039802990322FDF729FDB0F1FF3F06D01B98A0670746E767C4F88070A3E02B
:2030FC003199D4F8A000D4F8C880D4F8A450D4F8CC70D4F8A860D4F8D0C08946C2434B460D
:20311C0012EB08026FEA0500B84643EB09034F4610EB080041EB07011BE0D4F8C870FA43EE
:20313C00D4F8A0003199D4F8A470D4F8D060D4F8A8C08046894612EB0802B846D4F8CC708B
:20315C0009954B4643EB0903F84310EB080041EB0901DDF86C800127F543BF1848EB030840
:20317C000CEB050318EB000849EB010948461B183A46404620E0D4F8A080D4F8C8203199BA
:20319C00D4F8A47012EB0802D4F8CC8089464B4643EB09031846D4F8A8303D4618EB0508E5
:2031BC00D4F8D0504E464F4647EB06095B1910EB080041EB09015B18A267E067C4F88030C1
:2031DC0027E1D4F8C870D4F8CC80D4F8D030CFE7F06E0020D4F8A020D4F8A400D4F8A8300F
:2031FC000995E9E7586F0020012B40F01281002F00F00981002D00F0FE80BD4240F0B680C6
:20321C00039802990522FDF78AFC012870D0039802990522FDF783FCB0F1FF3F06D0059830
:20323C001B99049A37F054FD1B9DF1E0D4F8A000DDF8C4C0D4F8C820C5432846D4F8CC7028
:20325C00D4F8A450634619468018099E22906FEA050041EB03013A46D4F8D05023911F4686
:20327C00801847EB03012F46D4F8A850EA43D4F8D45025901046C0198146D4F8B020D4F8FB
:20329C00AC00C6F1000698468B46674647EB03018A46D4F8D8100996C7437F1948EB030814
:2032BC000B46229D1B99239E01204019A06741EB06012598319E0D4659462D18E56746EB79
:2032DC000106319930460E4610EB090041EB0A010D46C4F880001946D343ED1901EB030003
:2032FC0046EB0806C4F884508019C4F8880090E0D4F8C810D4F8A000319BCD432D18D4F899
:20331C00A420D4F8CC006FEA0001D4F8B0C0D4F8D8E0D4F8A8001F46BB463E46D94646EB6D
:20333C000706884618EB020849EB0709D4F8D07022955946FA43D4F8AC7023961218D4F80F
:20335C00D400CDF89480BA466FEA000743EB0103384610EB0A009A462C9041EB0B0107466E
:20337C006346CB468846914672469AE7D4F8A000D4F8C810319BD4F8A470804611EB080112
:20339C00A167D4F8D060D4F8CC1099464A46B84642EB0902104611EB080243EB0903801892
:2033BC00E067D4F8A8004F4647EB03010246D4F8AC70D4F8D400CC466346B846B6184F467F
:2033DC004A4647EB0307891942EB0702D4F8D870C4F88010664610EB080043EB09011218BC
:2033FC00D4F8B000C4F8842046EB0103C019C018C4F888000CE005980299049A36F0EAFEDB
:20341C007F42099705E005980399049A36F0E2FE099503980299049A36F0DCFE0A9F0798B3
:20343C007D42401C0790099F55EA07007FF4CFAB33B0BDE8F08F7CB5DD4C0646E078226953
:20345C00E169002815467AD0012840F0F8802846FCF7E6FDE069FCF704FFE06904F65C2224
:20347C002946FDF795F9616A04F65C20FDF7A6FD606A0146FDF7F5FD216A2846FDF7F1FD95
:20349C00E069216A04F65C22FDF782F9A16A04F65C20FDF793FDA06A0146FDF7E2FDE069E3
:2034BC00FCF7DFFEE069216A04F65C22FDF770F9216A04F65C20FDF781FDE069FCF7D1FEF9
:2034DC00E069216A04F65C22FDF762F9216B04F65C20FDF773FDE069616A04F65C22FDF74F
:2034FC0057F9616B04F65C20FDF768FDE069FCF7B8FEE069A16A04F65C22FDF749F9E16A86
:20351C0004F65C20FDF75AFDE06A0146FDF7A9FDE1692846FCF784FDE069FCF7A2FE206B10
:20353C00A16BFDF79EFDE069A16B04F65C22FDF72FF9A16B04F65C20FDF740FD7EE0104684
:20355C00FCF76EFDE069FCF78CFE216A2846FDF788FDE069216A04F65C22FDF719F9616A9C
:20357C0004F65C20FDF72AFDE06904F65C222946FDF70EF9A16A04F65C20FDF71FFDE06999
:20359C00FCF76FFEE069216A04F65C22FDF700F9216A04F65C20FDF711FDE069FCF761FED8
:2035BC00206A216BFDF75DFDE069216B04F65C22FDF7EEF8216B04F65C20FDF7FFFC206BE8
:2035DC000146FDF74EFD606A616BFDF74AFDE069616B04F65C22FDF7DBF8616B04F65C20E2
:2035FC00FDF7ECFC606B0146FDF73BFDE069FCF738FEE069A16A04F65C22FDF7C9F8E16A57
:20361C0004F65C20FDF7DAFCE06A0146FDF729FDE1692846FCF704FDE069FCF722FEE06952
:20363C00216B04F65C22FDF7B3F8A16B04F65C20FDF7C4FCA06B0146FDF713FDE078E1689E
:20365C0004F65C2540B101280CD1084605F128022946FDF776FD05E0084605F128022946D6
:20367C00FEF778FC04F2E44000214FF48F7237F02FFB05F1280104F2E4422846FFF73CFA20
:20369C00A178E069012589000560091F001D31F026FDE069A1782830890031F020FDE06945
:2036BC00A1785030890031F01AFD012E06D18E48002229460092134623F070FA7CBD2DE970
:2036DC00F8433B4C8046E188E06949B96169FDF775FCB8F1010F61D100220092A06959E082
:2036FC00FCF7BFFDE788256BE66AD4F82090A26B636BD4F828C0D4F824E021693F1997F963
:20371C00E304002812DC3BD00F302ED0801E2BD0801E28D0801E25D0801E22D0801E1FD069
:20373C00801E1CD0801E19D0BDE8F883401E23D0801E11D0801E0ED0801E0BD0801E08D001
:20375C00801E05D0801E02D0801E27D113461D462E46B446E646F14649460DE08946CE46E8
:20377C00F446664635462B461A4604F65C211046FDF777FC04F65C21E0690246FDF708F8CB
:20379C00E088B8F1010FA0F10100E08006D10022554800920121134623F000FABDE8F8832A
:2037BC00034B5A6119619A88D860D21CDA807047F06E00201CB5B84C2060084611461A4639
:2037DC00FFF7EEFFB548002201211346009223F0E5F91CBD10B5FFF7E3FF0020FFF72BFE18
:2037FC00C34CE08828B10020FFF769FFE0880028F9D10020FFF763FF10BD2DE9D04F0127E3
:20381C00B2B14FF0000B51F8044B50F804AB3E46D946E4435F46A04618EB0A0849EB0B099E
:20383C0016EB080643F8046B47EB0907521EEAD1002007B90120BDE8D08F10B5044634F00E
:20385C00010004D040F60420CC2130F093FB944991480A5D1838C470091902708C788A7946
:20387C0044700B798270032404EBC302828010BD2DE9F047884D8A46183DA978814605F62E
:20389C005C2006468A005030494636F0A3FCAF78012406F1500818E040460146FCF7DCFBBC
:2038BC0040460146FCF7D8FBAF7867B1CC4606F150013B460A685CF8040B5B1E80EA020085
:2038DC0041F8040BF6D1641CA4B2A888401E00EBD070B4EB600FDFDDBA005046414636F067
:2038FC0079FCBDE8F087C046DB3600002DE9F0417F4C0646E0780D46C8B904F68420314665
:20391C00182236F067FC04F6982001684FF00608090A022904D0032940F09A80012700E0D0
:20393C000027016801F0FF010160E07816E0012813D104F684203146282236F04BFC04F668
:20395C00A82001684FF00A08022903D003297FD1012700E000270021E6E7002788B9306832
:20397C0000282FD1706800282CD1B068002829D1F068002826D13069002823D1706990B186
:20399C0020E03068F0B97068E0B9B068D0B9F068C0B93069B0B97069A0B9B06990B9F069F8
:2039BC0080B9306A70B94FEA8801284631F097FB01204FEA0811A862091F05F12C0031F024
:2039DC008EFB65E004F65C200021282237F080F904F6842804F65C214046FDF7C5F804F62E
:2039FC005C2004F65C21FCF737FB04F65C2104F65C224046FCF726FEE07804F65C26E8B992
:203A1C00306880F001003060316900F00100C1F3407181421CD130460146FFF729FF3068DE
:203A3C0000F001018F421CBF80F00100306005F1280231464046FCF75FFC22E0012827D13D
:203A5C00306A3468C0F3C03104F00100814203D04FF0FF30BDE8F08130460146FFF708FFA7
:203A7C00306800F001018F421CBF80F00100306005F1280231464046FCF73EFCB8E80F00FA
:203A9C000FC5B8E8070007C598E8070085E807000020BDE8F081C046086F0020533400006E
:203ABC00E4E703002DE9F041114C0646E0780D4600282AD13068062700285DD17068002843
:203ADC005AD1B068002857D1F068002854D13069002851D1706900284ED1B06A002848D134
:203AFC00F06A002845D1306B002842D102E0C046F06E0020706B00283BD1B06B002838D17B
:203B1C00F06B002835D118212EE0012864D130680A27002830D1706800282DD1B06800282B
:203B3C002AD1F068002827D13069002824D17069002821D1B06900281ED1F069E0B9306A91
:203B5C00D0B9B06AA8B9F06A98B9306B88B9706B78B9B06B68B9F06B58B9306C48B9706C91
:203B7C0038B9B06C28B92821284631F0B8FABDE8F0810020C4F85C0A04F65C213046FCF779
:203B9C00F3FF06F1280004F65C2104F65C22FCF7B3FBBA002846314636F01CFBE07804F63A
:203BBC005C2880B9686900F007006861D8F80000400834BF4FF400704FF4407069690843CD
:203BDC006861BDE8F081012806D1D8F80000400834BF022003206862BDE8F0812DE9F04173
:203BFC00944C0546E078002821D12868B8B96868A8B9A86898B9E86888B9286978B9686955
:203C1C0068B9A86A58B9E86A48B9286B38B9686B28B9A86B18B9E86B002800F0D680686943
:203C3C00C00840F0D280E86BC00836D0CDE0012840F0CB802868002827D16868002824D10F
:203C5C00A868002821D1E86800281ED1286900281BD16869C8B9A869B8B9E869A8B9286AFA
:203C7C0098B9A86A88B9E86A78B9286B68B9686B58B9A86B48B9E86B38B9286C28B9686CC8
:203C9C0018B9A86C002800F0A080286AC00E40F09C80A86CC00E40F0988004F65C21284630
:203CBC00FCF7DAF904F6842204F65C2128461746FCF722FBE07804F65C2605F1280820B95D
:203CDC00384631460246FCF7BDFC3868314680F0010038604046FCF7BFF938463146024651
:203CFC00FCF7B0FC284641463246FCF705FB384631460246FCF7A6FCE078002824D13868C2
:203D1C00002862D1F06A00285FD1306B00285CD1706B002859D1B06B002856D1F06B002870
:203D3C0053D12868002853D16868002850D1A86800284DD1E86800284AD12869002847D194
:203D5C006869002841D043E001283ED1386800283BD1F06A002838D1306B002835D1706BDF
:203D7C00002832D1B06B00282FD1F06B00282CD1306C002829D1706C002826D1B06C00283C
:203D9C0023D12F687FB96E686EB9AE685EB9EE684EB92E693EB96E692EB9AE691EB9EE692C
:203DBC000EB92E6A8EB1012F12D1686880B9A86870B9E86860B9286950B9686940B9A86916
:203DDC0030B9E86920B9286A10B90020BDE8F0810120BDE8F0812DE9F04F84469346086884
:203DFC00DCF80020ADF1140D4FF0000AA2FB00439946002300930F4A019302F65C20029043
:203E1C000126046002F1480000F6182E80E80006019C02F15800062E234680E8180028BF2A
:203E3C00012371E05046214607220346FFF7E5FC5EE1C046F06E0020291A5EF82130029963
:203E5C0002F1480494E8C00001EB8001096A4C46A1FB03319B1902F1480644EB070402F167
:203E7C00580786E8180097E81800401C0E1C02F158014F46F61847EB040781E8C000E4E00B
:203E9C00F81A029D59F8201055F82300A0FB010C02F1480191E830005146001902F14804E8
:203EBC0041EB050184E8030002F1580191E830005B1C60465146001902F1580441EB050102
:203EDC0084E803005BE002F1480595E88001F01A5CF8234051F820005546A4FB0040E4193D
:203EFC0002F1480745EB080587E8300002F1580797E830005B1CD046071C02F158003F1934
:203F1C0048EB050880E88001032E34BF301C02209842D8D202F1480797E81800906C02F17E
:203F3C005805A14695E81800761C4EF8040B02F1480713EB090344EB0A04072E87E8180060
:203F5C00FFF466AF029FDCF80800496902F503793E4601FB0031F9617169D9F8000002F1F2
:203F7C00480406275646A1FB0010051C84E86000019902F15803084683E803000523082F74
:203F9C0034BF381C07209842BFF47AAF02F1580595E8180002F1480003C87F1C0D1C02F13F
:203FBC0048015B1944EB06040C2F81E81800DFD302990846D1F81CE0D9F818C08069D9F870
:203FDC001410DDF808A0AEFB0157A0FB0C08314640193D4641EB06014746C01841EB040158
:203FFC0003917B190F46554631463F46884641EB06042862AEFB0C517F1948EB0608554689
:20401C00FF1848EB04086F62434654465B18A362D2F86C11B14602F5B67E574607F1400C78
:20403C000AF13C0A02F14807A0FB0110CAF80010051C87E860000125019902F15803032D35
:20405C00084683E8030028BFA81E032D34BF291C02218142BFF4F0AE906C02F1580696E871
:20407C00180002F148074CF8040B97E803006D1C884602F1480713EB080344EB0904052DE5
:20409C0087E81800D8D30299DEF81400096A02F15006A1FB007886E88001029E3D46ED1866
:2040BC002F46314637654E4646EB0406331C4446E518029B02F148024F464E4646EB070676
:2040DC0082E86000496A1F463C461C2200FB015104F120005965714636F07CF851460722F1
:2040FC0038460B46FFF789FB07F12004012808D0504621460722FCF712FDB0F1FF3F7FF4C4
:20411C0091AEBAE80700ABE807009AE8070005B08BE80700BDE8F08F2DE9F04F8446ADF168
:20413C00240D3F4C08680692DCF800204FF00009A2FB003204F65C2003909046036004F15D
:20415C00480080E80003A0784FF0041A00F1050E00900020019001220290029E009F04F1ED
:20417C0058003546974280E8600004DC3846101A401CC3B27AE0334678E0039FA1EB800578
:20419C006544AE6A07EB8005AD6BA5FB067804F1500686E8800104F1480696E800063D4611
:2041BC0004F148075E4615EB090546EB0A0687E8600004F1580797E86000471CF8B2474610
:2041DC00D8467F1904F1580548EB060885E8800143E1039D04F1480696E88001C1EA004398
:2041FC0043FB0AF3D31855F82050DB6A5E46A5FB0353ED1904F1480746EB080687E8600089
:20421C0004F1580797E86000D846471CF8B21F1C04F158037F1948EB060883E8800171E083
:20423C00F06E00205CF8235004F1480696E88001C2EA034040FB0AF008584E46A5FB0050D3
:20425C00ED1904F1480746EB080687E8600004F1580797E860005B1CDBB2C846071C04F18D
:20427C0058007F1948EB060880E88001052AACBF0420101C9842D5DAA06C039B04F14807A7
:20429C0097E86000B04643F8220004F1580393E8600004F14807501CC2B215EB080546EB43
:2042BC000906964587E860003FF757AF0098039F009DD4F83862810004F1480304917818CA
:2042DC00001F05900068CDF81C9004F503724FEA450CA0FB06104946001C83E80300294604
:2042FC008C452CDDDDF81CB0A946AE46A9F101090EF1050E029E04F15800354680E860005E
:20431C005FFA89F08E45DABF009B1B1D0B1C8342BFF65FAF04F1480090E8600004F158035C
:20433C0093E88001491C351CC9B25B4604F148067F1948EB03088C4586E88001DADCDDF82F
:20435C0008C0DDF800E0DDF80C90DDF81CB061460EF1030E09F13809029E009F04F1580034
:20437C00354680E86000C819C0B2864528DB3B460CEBC30A039D04F1480696E88001AAEB01
:20439C0080039B1855F82050DB6A5E46A5FB0353ED1904F1480746EB080687E8600004F1E2
:2043BC00580797E86000D846471CF8B21F1C04F158037F1948EB0608864583E88001D9DAAA
:2043DC0004F1480797E86000A06C04F15803B24693E86000491C0CF1040C49F8040B04F1B8
:2043FC00480715EB0A0546EB0B06042987E86000B2DB0498059980184969039AC06A02F13A
:20441C0038030093A1FB007804F1500304F5B67C04F5CA7E5946384683E88001401907463B
:20443C0041EB060102F1640304F1480597644144D164D4F89411906B0593A0FB0110683292
:20445C00824619600421012385E8000C029E04F15800354680E860002846062BB4BF1D1CC2
:20447C0005258542BFF689AE04F1480797E86000A06CB24604F1580797E860005B1C091D4C
:20449C0042F8040B04F1480715EB0A0546EB0B060A2B87E86000D9DB049A00987146121D4E
:2044BC0035F098FEA0780599401CC2B203980B46FFF7A3F9012812D0A578681CC2B2009968
:2044DC000598FCF72CFBB0F1FF3F09D0059800996D1CEAB20346FFF790F9A578EDE7A57820
:2044FC0006980599AA0035F075FE09B0BDE8F08F2DE9F843A74B1F7800269FB14FF00009AD
:20451C0050F8048B51F8043B35464C464E4613EB080344EB0904ED1842F8045B46EB040661
:20453C007F1EEDD10020012E08BF0120BDE8F883F8B59446FFF7DCFFDB4C012818D004F524
:20455C00B676E578A778E90060463A4601EB45118919FCF7E4FAB0F1FF3F15D0E900604680
:20457C003A4601EB451103468919FFF746F9E8E7E078A278C10001EB4011091960460346ED
:20459C0001F5B671FFF739F9F8BD2DE9F041044617468846184607F11001C9B227F02CFF25
:2045BC00DB4D064600212022284636F091FB102332462946207880F05C0001F8010B14F859
:2045DC00010B5B1E80F0360002F8010BF2D147B106F11001384618F8012B401E01F8012B8E
:2045FC00F9D107F1100105F11002304632F08EFD28462021324632F089FDBDE8F0814A086A
:20461C0010B50BD0431811465B1E1A78047800F8012B491E1C70A3F10103F6D110BD2DE94C
:20463C00F843A14C8146002704F10800C4F8542188460760282200F57170C4F8400104F5CF
:20465C00737000F12801C4F84411394636F040FBE078267898B1D4F84051012821D128462B
:20467C004946324635F0B6FD31462846FFF7C7FFD4F84051286A20F07840286210E0D4F8A1
:20469C0040014946324635F0A5FDD4F840012178FFF7B5FFD4F84051686900F007006861B1
:2046BC00E078A678C10001EB401132460919284601F5B67C6146FCF732FAB0F1FF3F05D0C0
:2046DC002846614632460346FFF797F8D4F844013946502236F0FCFAD4F840112278404608
:2046FC0035F078FD21784046FFF789FFBDE8F88338B56D4C0546D4F84011D4F84401FFF732
:20471C00D1F9D4F85401D4F84011627835F062FDD4F854016178FFF772FF012D08D100228D
:20473C000092D4F8480194F84C11134622F036FA38BD10B55C4CC4F8480184F84C1110469C
:20475C00029A1946FFF76BFFE078D4F84011D4F84431502210FB0242A04802F51972FFF70B
:20477C0029F810BD08B5FFF75AFF4F4AD178D2F84001502311FB0321D2F8442101F51971E4
:20479C00FFF728F80020FFF7B3FF08BDD94800687047C046F26E0020F8B5434C0646D4F840
:2047BC0040010021282236F093FAE078F0B101284ED1D4F84001D4F85C11252235F00AFD84
:2047DC00D4F840012521FFF71AFFD4F84001D4F84411FFF78BF8B0F1FF3F55D0D4F84001A3
:2047FC006278002136F074FA4A212BE0D4F85C01D4F8402103784178052702F1100541EAAF
:20481C000321801C51610378417841EA0321837843EA0123C1787F1E00F1040041EA032121
:20483C0045F80419EFD1D4F844111046FFF75EF8B0F1FF3F28D0D4F840016278002136F07A
:20485C0047FA3021D4F86001D4F8402132F05EFCD4F84401FFF7C2F9B0B1D4F84001102173
:20487C00FFF7CDFE3EB9D4F84411D4F840010A46FEF7B0FFF8BDD4F84421D4F84011AF4848
:20489C001346FEF797FFF8BD4FF0FF30012EA06008D100220092D4F8480194F84C111346E2
:2048BC0022F07CF9F8BDC046F06E002070B5C24D002605F108042660C5F85801C5F85C11FA
:2048DC00C5F86021C5F8543104F57174C5F8404105F5737404F12806C5F844617834C5F851
:2048FC00504170BD98B513460C4602465F08E118D0187F1C491E401E0B7802F8013B14F831
:20491C00013B491E7F1E0370A0F10100F4D198BDD473002038B5A84C05464FF0FF30A0601B
:20493C00D4F85011D4F84401FBF77AFBD4F84001D4F858116278FFF7D5FFD4F84001D4F8F7
:20495C004411FEF7D3FFD8B9D4F85001D4F844110246FBF71DFFD4F85001D4F84411FCF7C9
:20497C002DFBD4F84401D4F84011FFF79BF8D4F85401D4F840116278FFF7B4FF0020A0605B
:20499C00012D08D100220092D4F8480194F84C11134622F003F938BD1CB5874CC4F848013D
:2049BC0084F84C1110461946049A059BFFF77EFF00220121B5480092134622F0EFF81CBD9E
:2049DC0010B5FFF773FF0020FFF7E6FE7A4CA06818B90020FFF79EFFA06810BD0D47000019
:2049FC002DE9F843744C8046D4F84001FF21282236F06EF9E07820B9AC4F02254FF4802684
:204A1C0004E0042541F6FF774FF40056D4F86811627804F57D70FFF765FFA37804F5737CC5
:204A3C0004F57D79D3B1D4F840E10020024601468D42B8BF0022A94204D100EB0C02926A2E
:204A5C003A4032438D42C4BF00EB0C02926A491C4EF800205B1E00F10400E9D14846002162
:204A7C00282236F035F9D4F8681162784846FFF739FFD4F844114846FEF738FFB0F1FF3FE7
:204A9C0026D0D4F84401D4F85011FBF7C9FAD4F8641162784846FFF725FFD4F8441148469F
:204ABC00FEF724FFB0F1FF3F12D0D4F84001D4F84421B8F1000F014604D11146FEF78AFE1B
:204ADC00BDE8F88372481346FEF774FEBDE8F8834FF0FF30B8F1010FA06008D1002200924C
:204AFC00D4F8480194F84C11134622F057F8BDE8F883C046F86E002070B52F4D002605F179
:204B1C0008042660C5F85801C5F85C11C5F86021C5F8643104F57174C5F8404105F573741A
:204B3C0004F15006C5F84461A034C5F850410498C5F868010598C5F8540170BD3149000072
:204B5C0084461D488CB54FF0FF318160C778D0F84411002F32D10F68B7B94F68A7B98F68F6
:204B7C0097B9CF6887B90F6977B94F6967B98F6A57B9CF6A47B90F6B37B94F6B27B98F6B92
:204B9C0017B9CF6B002F72D0097DD0F854211170D0F84421D0F8541105271032C91ED37840
:204BBC0001F8043F93784B7053788B7012F804397F1ECB70F3D158E0F06E0020012F56D121
:204BDC000F68002F25D14F68002F22D18F68002F1FD1CF68002F1CD10F69002F19D14F6992
:204BFC00BFB98F69AFB9CF699FB90F6A8FB98F6A7FB9CF6A6FB90F6B5FB94F6B4FB98F6B90
:204C1C003FB9CF6B2FB90F6C1FB94F6C0FB98F6C6FB391F82310D0F854211170D0F84411D4
:204C3C00D0F8542191F822105170D0F84411D0F8542191F821109170D0F84411D0F8542130
:204C5C0091F82010D170D0F84411D0F8542108271C31CB7802F8043F8B7853704B7893705C
:204C7C0011F804397F1ED370F3D100218160BCF1010F09D100230093D0F8482190F84C11C9
:204C9C0010461A4621F08AFF8CBDC046B5470000B14C00002DE9F84380467E48007838B91A
:204CBC00024F02254FF4802607E0C046FFFF0300042541F6FF774FF40056784CD4F8500139
:204CDC00D4F844110246FBF763FDD4F85001D4F84411FCF773F9D4F86011627804F57D7063
:204CFC00FFF700FEA37804F57D7904F5737CD3B1D4F840E10020024601468D42B8BF00222A
:204D1C00A94204D100EB0C02926A3A4032438D42C4BF00EB0C02926A491C4EF800205B1E48
:204D3C0000F10400E9D148460021282235F0D0FFD4F8581122784846FFF7D4FDE078012816
:204D5C0006D0D4F8400149460246FFF744F805E0D4F8400149460246FFF7DEF94846002106
:204D7C00282235F0B5FFD4F85C1122784846FFF7B9FDD4F8400149460246FFF7D9FBE778DA
:204D9C00BFB1012F18BFD4F8406125D1D4F84061082506F12001086851F8042C6D1E4FEABE
:204DBC00800040EA927041F80409F4D13068800011E0D4F84061052506F11401086851F8BB
:204DDC00042C6D1E4FEA400040EAD27041F80409F4D1306840003060A57804F5B67C0CE070
:204DFC00F90030462A4601EB471103466144FEF704FDD4F84061A578E778F90030462A46C8
:204E1C0001EB47116144FBF78AFEB0F1FF3FE7D1D4F84411B8F1000F0A4604D13046FEF713
:204E3C00D9FCBDE8F8831C4831461346FEF7C2FCBDE8F8831CB5194CC4F8480184F84C1146
:204E5C00069800900798194601901046059B049AFFF752FE1248002201210092134621F005
:204E7C009DFE1CBD1CB5049C0094059C0194FFF743FE0020FFF7B4FD084CA06840B90020F4
:204E9C00FFF708FFA06818B90020FFF759FEA0681CBDC046F36E00205D4B0000F06E002025
:204EBC00FD49000070472DE9F04790460E468246ADF1200D30F028F9DFF8CC92202500F024
:204EDC001F0409EB8400076837F070411AD0C0786A461C23C0F303102EF006FE90B96846E4
:204EFC005146082237F0AAFF60B90DF10A014046122235F06FF99DF8080000F0030030706C
:204F1C00404605E0641C6D1E04F01F04D9D1002008B0BDE8F087AB480168880000EBC100BA
:204F3C00001D80B27047F8B5A74D002143F2E05214230F4655F8040B002430F0704018BF73
:204F5C0001240919002400B901245B1E2744F1D19E4B9E58002026B196F894600EB907B16F
:204F7C00012040189421414388B2F8BD10B5984C0021202254F80A0B002330F0784018BF35
:204F9C000123521E1944F5D14801A0EB8100001D80B210BDF8B57C4D002142F2AC422023D1
:204FBC000F4655F8040B002430F0704018BF01240919002400B901245B1E2744F1D1834B9C
:204FDC009E5800201EB1367A0EB907B1012040184101A1EB800188B2F8BD2DE9F0410FF0A4
:204FFC00A7FD8068002470B3264626E00FF0A0FD8068D0F80100B5002858D0F81A00A846FE
:20501C00D0B10FF095FD8068D0F801002858D0F81A70002506E0387A400824BF641CE4B2E1
:20503C006D1C30370FF084FD8068D0F8010058F80000407EA842EED8761C0FF079FD806886
:20505C000078B042D2D8182014FB00F0C0B2BDE8F08108B50146C888401E10D0401E10D091
:20507C00401E10D05B4A001F0D283CD8DFE800F0113B36313D131A20263B3B3B292C882001
:20509C0008BD242008BD888800283FD1FFF7A5FF3AE0142008BD1DF080FF042101EBC001D3
:2050BC0088B231E08888002830D1FFF773FF2BE0888800282AD1FFF759FF25E04FF49E7006
:2050DC0008BDFFF728FF1FE08888F8B9FFF72BFF1AE01046001D006828B102E010460068A4
:2050FC0008B1804710E00C2008BDAE49652204200B314B7A5B0805D38B7A13F07F0F1CBFE4
:20511C00103080B2521EF3D10C3080B208BD1CB5401E4FF6FF741FD0401E012818D9401FED
:20513C001CD0801E01281AD9801E15D0401E11D0401E02280CD9801F0AD000200090012133
:20515C007A224FF404734FF0FF3032F059FA06E0002404E0032402E0022400E00124204672
:20517C001CBD1C49103101EB80018A78520809D28A785210520805D28A7842F002028A7029
:20519C002EF021BD7047C0463B25002010B5CC8803464FF0FF301E2C13D189880C290BD09B
:2051BC0010290ED12AB118460C2104232EF09CFC38B96FF0470010BD6FF047000AB1002192
:2051DC00118010BD702800209E36002010010020FB230020BC3700202DE9F04F0F468146B6
:2051FC00ADF11C0D2EF051FD974C04EB8904B4F800A0069027B97A2040F24D412EF0BAFE0F
:20521C00B9F1020F04DB7A2040F24E412EF0B2FEBAF1080F00F0C1804FF0000B5D46284661
:20523C0075E0A178B2F1FF3F21F00101A17028D04FEA031C07EB0C03596851B15CF8071060
:20525C0091421ED0511A6FF0404C21F000418C4517D9C3F80480A6F10C01BAF1060F1981CB
:20527C00ACBFBDF814104FF6FF71998183F80A901A604FF0010B87F858917119C7F854110F
:20529C002BE0BBF1000F28D0F7E7484603A902AAFFF77CFF10F1480F05D028B10820208031
:2052BC006FF022007BE00020BDF8081008290DDB042000907A2240F27D4301914FF0FF30AE
:2052DC00012132F09DF90820208066E0A17841F00101A170039ABDF81060B2F1FF3F15D0E5
:2052FC00BDF81210152901DB1E290FD1D7F85011B1F1FF3F08D0914208D0511A6FF040439A
:20531C0021F000418B4201D9C7F85021AD1905F10C080699414542D9002840D14846294602
:20533C0003AA0C232EF0E0FB0028F2D1002DACD0BAF1060F0DDA039AB2F1FF3F1BD1BDF822
:20535C0010104FF6FF728A4203D1BDF812108A4225D0039AB2F1FF3F0DD1BDF810104FF6AD
:20537C00FF738B4207D1BDF812108B4203D1BDF814108B4213D0BDF8106026B1BDF8123006
:20539C00142B7FF74EAF0020009001217A2240F297434FF0FF3032F033F94FF0FF3007B0E4
:2053BC00BDE8F08F452A002005291CB503D9881F01282BD91DE0411E0024022916D9C91EEE
:2053DC00012914D9891E012910D9891E0FD0491E03290BD9042100917A2241F26513019055
:2053FC004FF0FF30012132F00BF900E0012420461CBD042000907A2241F23E1301914FF0F2
:20541C00FF30012132F0FCF800201CBD01201CBD0EB5012202FA00F39BB2012B08BF01F10F
:20543C001E0010D0022B08BF01F10B000BD00421009140F6BD13019011464FF0FF307A22D8
:20545C0032F0DEF800200EBDCC3700202DE9F04F8946CF494FF0000A834643F2E0574FF031
:20547C00FF355646ADF19C0D884658F807002596864222D090F89460FEB9C95908784A310F
:20549C00FFF7C6FF25902FF03FFE142136F07EFE0D46A7F1520008EB0001504604E0122D63
:2054BC0094BF6D1C5546401C51F8256036F0704603D01328F3D94FF0FF355646BAF1000FB0
:2054DC0042D1C24CB54204EB860423D0236833F0704136D0E0786A469423C0F303102EF024
:2054FC0003FB58F80730DBB193F89400C0B19DF800000DF14A01FFF78BFF2599082237F082
:20551C009DFC68B158F807109DF800000A78824206D101E058F807106846942234F05AFE7C
:20553C00584649466A4694232EF082FA8246E0786BF30710E070206869F31B0009F19409A6
:20555C002060761C142EB9D3504627B0BDE8F08FF8B58F4E074642F26074A05D0D46042368
:20557C006A468DF8000038462EF062FA60B932469DF80060C03C0C233846291D121916FB31
:20559C0003F39BB22EF054FAF8BD30B50C4605464FF49871ADF59A7D68462FF0A0FD8C49C5
:2055BC004FF49872684634F015FE4FF49873284621466A462EF03CFA4DB030BD2DE9F04F37
:2055DC000D468449724C4A7842F2CD26ADF12C0D04EB06098DF80920761E8A78C9780A90F4
:2055FC0004238DF80B10315D8DF80A2002AA8DF8081029462EF01CFA6FF0784B2D1D80466D
:20561C0006F11F00A0F11C0A00262718B8F1000F35D1740004EBC604E419216821F0784101
:20563C008B4508D0E1B199F8000003AA1C232EF05BFA804605E0564903A81C22514434F038
:20565C00C9FDB8F1000F0FD10A98294603AA1C232EF0EEF98046206865F31A001C3520603D
:20567C00761C202ED2D30AE00420009001217A2240F6E22301964FF0FF3031F0C1FF0A986A
:20569C0089F800000BB04046BDE8F08F2DE9F04F8946504983461C22ADF11C0D684630316E
:2056BC0034F098FD3A4842F2AC46804658F806704FF0000A4FF0FF35D7B13F7AC7B980598B
:2056DC0000682FF021FD00F01F05A6F1810008EB0001504603E06D1C401C05F01F0551F829
:2056FC00257037F0704703D01F28F4D94FF0FF355746BAF1000F46D1914CBD4204EB8704FD
:20571C0016D0236833F070413AD0E0786A461C23C0F303102EF0E8F958F80630FBB11A7A4C
:20573C00EAB119686846082237F088FBB8B907E058F80600026811686B4619605068586084
:20575C0058F8061049680DF10A00122234F042FD58F80600407A00F003008DF80800584649
:20577C0049466A461C232EF063F98246E0786BF30710E070206869F31B0009F11C09206092
:20579C007F1C202FB5D3504607B0BDE8F08FC046100100203EB50C460546082168462FF04D
:2057BC009EFCDA4800686FF3090000F580600090D7480068082321466A466FF3090000F5B0
:2057DC008060019028462EF033F93EBD9E36002008260020F0E403002DE9F04F8846834684
:2057FC00ADF14C0D0FF0A4F980684FF00009002800F0A1804F464E4682E00FF099F980688D
:20581C00D0F80100BC002058D0F81A0000284ED00FF08EF98068D0F801002058D0F81A5066
:20583C0000263BE0287A400836D30CA818212FF056FC28788DF8300068788DF831006888DF
:20585C00ADF8320028798DF83400E888ADF83500287A8DF83700287840B9288AADF838002B
:20587C00688AADF83A006B690F9302E0288AADF83800288DADF8400095F82A008DF842003C
:20589C00A88D41460CAA1823ADF8430058462EF0CFF808F1180881463035761C0FF048F9BD
:2058BC008068D0F801002058407EB042BAD87F1C3AE00FF03DF98068D0F80100B40020589A
:2058DC00D0F81A00A246D0B10FF032F98068D0F801002058D0F81A404D4606E0207A400891
:2058FC0024BF7F1CFFB26D1C30340FF021F98068D0F801005AF80000407EA842EED8761C54
:20591C000FF016F980680078B042D2D85FB9684630212FF0E4FB584641460CAA18232EF018
:20593C0087F8814607E04F460FF002F980680078B8423FF662AF484613B0BDE8F08FC04674
:20595C003B2500202DE9C043884681461821ADF11C0D68462FF0C3FB4FF4A060012110F00D
:20597C008EFA061C5CD04FF4A0610122102311F04DFD071C04D17A2040F25F712EF0FAFAAA
:20599C00786802686946002340680A600122486030464FF4A06111F039FD071C04D17A206F
:2059BC0040F266712EF0E6FA786800784FF4A06101224FF201038DF80900304611F026FD98
:2059DC00071C04D17A2040F26D712EF0D3FA786800784FF4A061012211238DF80800304628
:2059FC0011F014FD071C04D17A2040F274712EF0C1FA786800784FF4A06101224FF20203F2
:205A1C008DF80C00304611F001FD071C04D17A2040F27B712EF0AEFA78680088ADF80A00D7
:205A3C002020012110F02BFA98B1202101224FF6FE7311F0EBFC071C04D17A2040F28B71B8
:205A5C002EF098FA78680188ADF80E1080788DF80D000320012110F012FA78B10122032103
:205A7C00134611F0D3FC071C04D17A2040F29B712EF080FA786800788DF8100040F6053021
:205A9C00012110F0FCF9061C36D040F605310122002311F0BBFC071C04D17A204FF4F56116
:205ABC002EF068FA7868008840F6053101224FF48873ADF81100304611F0A8FC071C04D14C
:205ADC007A2040F2AE712EF055FA7868008840F60531012240F21713ADF81300304611F0D0
:205AFC0095FC071C04D17A2040F2B4712EF042FA78680088ADF81500484641466A46182394
:205B1C002DF096FF07B0BDE8C083C046C41D0020B82300202DE9F047894682467C21ADF1F7
:205B3C00800D01A82FF0DBFACA4C41F67C46A7199DF80410D7F8040642F28425000A60F394
:205B5C00000103A88DF80410611929F0CAF905F1140021180A6808A8026049684160D7F8A6
:205B7C0004069DF80410400A60F3410141F67C308DF8041021180AA80A684968026006F194
:205B9C00AE08416004EB08000188ADF8081030F8021CADF80A10C17BFF2902D00CA816F060
:205BBC00F2F89DF804001C3520F03C0040F008008DF80400B7F840303878ADF806306119C4
:205BDC008DF805000A680EAB1A604968596097F834000DF02BFE011C2ED010A8102234F0FE
:205BFC00F9FA97F834000C35102261198DF850000DF1510034F0EEFABB36305DFF2806D13A
:205C1C007A204FF422712EF0B5F9B74800788DF8610008F10C01085D1C228DF862002E39D8
:205C3C000DF16300611834F0D5FA5046494601AA7C232DF0FDFE0BE00020009001217A229B
:205C5C0040F27F234FF0FF3031F0DAFC4FF0FF3020B0BDE8F0872DE9F04F401EADF11C0D1B
:205C7C0000F03A81401E00F03281401E00F02A819E4A001F0D281BD8DFE810F01F011A0033
:205C9C0013000E00A800360031002C0027001A001A001A0022001D001046001D02683AB110
:205CBC0002E0104602681AB1887A4968904717E14FF0FF3014E1887A4968FFF7C7FB0FE11B
:205CDC00887A4968FFF744FC0AE1887A4968FFF75CFC05E1887A4968FFF770FC00E1887AF5
:205CFC004968FFF7D3FCFBE091F80A904C6802A804212FF0F4F9574FA2464FF0160841F663
:205D1C009C65241D00210E4600295DD108FB06F2D019401903785B0848D303785B105B08DA
:205D3C0044D2B9184919CA7902F07F028DF8002002789DF80130120962F303038DF8013037
:205D5C0042789DF80130521062F304138DF8013042789DF80130921062F347138DF801309C
:205D7C0002789DF80230920862F301038DF802308A798DF80320B1F807109DF80220C91120
:205D9C0061F385028DF802208078082321466A4600F01F008DF8040048462DF049FE01465A
:205DBC009DF808000834401C8DF80800761C202EAAD349B903208DF8090002AA514604238B
:205DDC0048462DF035FE0146084673E091F80AA04C68AA49002748798DF8107010228E79E1
:205DFC00CD798DF8110068468DF8126020318DF8135034F0EFF904A804212FF070F99E4E7C
:205E1C004FF00B09A34604F104083946002952D109FB07F57419607A40083ED3A07A10F084
:205E3C007F0F3AD0684610212FF059F9607AC0F381138BB1012B05D06846214615F0D0F91D
:205E5C00AD1912E0E088ADF80800257A8DF80C5011E0C046100100206846214615F0C0F9DE
:205E7C00E08809FB0765ADF80800207A8DF80C00687AC0F381138DF80B308DF80A705046D8
:205E9C0041466A4610232DF0D3FD01469DF8100008F11008401C8DF810007F1C652FB5D3EA
:205EBC0049B902208DF8110004AA5946042350462DF0BEFD0146084612E0887A4968FFF7FA
:205EDC0069FC0DE0887A4968FFF786FC08E0887A4968FFF737FD03E0887A4968FFF71AFEC0
:205EFC0007B0BDE8F08FC046471E0020B43700202DE9F04F071C0D46ADF1440D04D17A20EC
:205F1C0041F222212EF036F825B97A2041F223212EF030F8B87AAC881921B0FBF1F0796861
:205F3C00C6B204EB4610A0EB8600001DA880787A2A1D0823091D2DF07BFD79685FEA0009E0
:205F5C0001F10C01796040F093801420CD4C8DF8040042F2CC252855787A01AA04232DF0B1
:205F7C0067FD81467868797A002E00F10400786005F1010001557BD00025A04600F11E0B4F
:205F9C00AA46B9F1000F73D1387A396809AA19232DF0AAFD81463868B9F1000F00F11900C8
:205FBC0038605BD109A90A6802A8026049684160102204A80BA934F00DF99DF83C109DF84D
:205FDC00200061F300008DF820009DF8200040F00C008DF8200002A82FF096F8202D00F062
:205FFC001F0016D242F2CF2108EB0B0208EB010CC5F12001440004EBC004A418236833F022
:20601C00784313D0401C491E05F1010500F01F00F0D1CDF800A04FF0FF3001217A2241F273
:20603C00762331F0EDFA4FF0FF3914E0A94908701C22604602A934F0CDF8787A796802AAD7
:20605C001C232DF0F5FC814678681C307860216860F31A012160761E93D109E0CDF800A04E
:20607C004FF0FF3001217A2241F2512331F0C8FA484611B0BDE8F08F502A0020F0E403006A
:20609C002DE9F04F1546894607460646002443F2B86BADF12C0D706800286DD0308900285B
:2060BC006AD0784AB17A43F2BC60121832F821109046E0B2FFF778F900285DD1B07A38F848
:2060DC002000062858DA6F49052C04D0042C53D14FF00E0A01E04FF00F0A51F80B00ADF88A
:2060FC0026A0401C20F00040089041F80B00BDF82600FFF70CF8042CADF828001AD008A8CA
:20611C00FEF7A7FFADF82400291D09AA082348462DF08EFC05F10C000590BDF824308DF881
:20613C001A9004A9A3F10C00ADF818005046FFF792FD17E07B6C00930C20ADF824008DF889
:20615C00099097F84A10019597F848208DF8081038F821308DF80A206846ADF80C3008A907
:20617C00FFF7C6FE28B94846294608AA04232DF05FFCBDF824002D18641C1036152C8AD398
:20619C0028460BB0BDE8F08F2DE9F04F3D4D43F2C8602F5CADF5BE7D5E972DF079FD43F235
:2061BC00C861695C43F2C8640A3C491C91FBF0F24243891A5FFA81F805EB8800205C4FF02E
:2061DC00000B05EB88016BF3000060544046FEF7C8FF4FF4AE7168462EF081FF69463846F0
:2061FC00FEF7FAFF43F2B869102700284CD1A41E6E4605EB040A5C467368002B3DD05E98A4
:20621C003AF820102046FFF7CFF8002835D0ADF870B1ADF872415BA8FEF71BFFADF870016A
:20623C0055F80900401C20F000405B9045F80900BDF87201FEF76BFFADF87401391D5CAA12
:20625C00082340462DF0F4FB07F10C005890BDF870318DF8668157A9A3F10C00ADF864010D
:20627C002046FFF7F8FC28B9404639465BAA04232DF0DEFBBDF870013F18641C1036152C26
:20629C00BADB04E010010020A41E05EB040A684641463A46FFF7F4FEAAF104045E46074647
:2062BC0034F8040F072807DAA078594661F30000A0703046FEF755FF761C022EF0DB43F2D7
:2062DC00C86043F2C46605F800805FB0AF51BDE8F08FC046DE2300202DE9F04FCD4C43F2A1
:2062FC00C86B04EB0B052E78ADF5D67D6A962DF0CFFC2978491C91FBF0F24243891A5FFAD8
:20631C0081F9ABF10A0204EB8901505C20F0010050544846FEF725FF4FF4AE7168462EF090
:20633C00DEFE69463046FEF757FF00285FD16F4610254FF000086FF0784A786800283CD037
:20635C00A0F10C016A9867AA0C232DF0CDFB291D68AA484608232DF06BFBBDF8A00100264C
:20637C000C350C38ADF8A001BDF8A041B4422BD8A5F10C01484667AA04232DF059FBB8F124
:20639C000E0F17D1C848A34E42F2E12180F800907018202150F80A6F36F0784608D0B24560
:2063BC0006D0399A0468B61A761966F31A040460491EEFD1BDF8A0012D1808F10108103767
:2063DC00B8F1150FB9DB13E0A41B402C88BF402479686A9857AAA3B289192DF085FBA9193D
:2063FC00484657AAA3B22DF023FB3619BCE7002588485946401880F800906BB040F8045CC9
:20641C00BDE8F08F2DE9F843824C07462DF03DFC43F2B86808F110052E1FBA88A1598918ED
:20643C0088420DD3605DA6F1080904EB80004844018807290CD0FFF7A7FE295D484604E00E
:20645C00FFF74AFF615DA6F1080004EB81010818817821F00101817054F80800401C20F036
:20647C00004044F808003860A159605D3A1D0823091D2DF0DDFA615921F400716151BDE8FA
:20649C00F88338B5894D0446081C05D128792968224604232DF0CCFAA18828684018286021
:2064BC002DF0F6FB2979824C491C91FBF0F24243891A8AB204EB8200817849080AD281787B
:2064DC004910490806D2817841F002018170D0B22DF079FB2DF016FB38BD7649F0B506461A
:2064FC000C22ADF1240D06A833F074FE6F48001D0068C00A04D27A2040F227612DF03AFDBC
:20651C00444D4FF40A504059C00A3CD30024ADF81E6006A8ADF81C40FEF79BFDADF81C007B
:20653C00BDF81E00ADF82040FEF7F1FDADF8200006A8FFF767FF071C16D143F2C8602D1809
:20655C00BDF81C4055F8047C287802A98DF8120007F10C000390A4F10C00ADF810003046FC
:20657C00FFF779FB07460AE00420009001217A2240F2476301974FF0FF3031F041F8394631
:20659C0006A8FFF77EFF09B0F0BD2DE9B04180460C46084615461146ADF13C0D2DF080FBBA
:2065BC0090B10820414600900A6801AF40F6411349683A604FF0FF3079607A22012131F022
:2065DC001FF86FF0310022E040460DA906AAFEF76AFC002700B101274FB1042CAEBF0322ED
:2065FC00BE490A5D2946921C36F028FC70B18DF81540CDF80C800495B94C8DF8147003A80C
:20661C0020600D20FFF769FF0020206000200FB0BDE8B0811001002010B504460846ADF1D2
:20663C00180D6A4605A92DF05CFB002818BF4FF0FF3005D19DF8141020466A46FFF7A5FF9B
:20665C0006B010BD0EB5A7490968C90A0BD3ADF806000C216846ADF80410FFF7D3FE014679
:20667C006846FFF70EFF0EBD08B50C20FFF735FF0B20FFF732FF08BD10B500242046FFF713
:20669C002CFF641C152CF9DB10BD934A106091607047954908607047944A10609160704769
:2066BC009149091F08607047DD230020D4370020CC370020F8E403002DE9F04F4FF0180B99
:2066DC0089460024ADF11C0DB2FBFBFA06901AE0761C30355BE0641C2DE00EF029FA8068EA
:2066FC00D0F80100A5002858D0F81A0050B10EF01FFA8068D0F801002858D0F81A00302132
:20671C002EF0EDFC641C0EF013FA80680078A042E3D8BAF1000F00F093800027B84606984E
:20673C0049466A465B462DF0DFF909F11809002840F0828000240EF0FBF980680078A0429B
:20675C0015D90EF0F5F98068D0F80100A5002858D0F81A000028BED00EF0EAF98068D0F844
:20677C00010028589DF8016001788E42B3D10EF0DFF980680078A04258D90EF0D9F98068B8
:20679C00D0F80100A4002058D0F81A5000260EF0CFF98068D0F801002058407EB04202D926
:2067BC00287A400894D20EF0C3F98068D0F801002058407EB04239D9287A40F0010028725B
:2067DC009DF8000028709DF801006870BDF8020068809DF804002871BDF80500E8802E7869
:2067FC009DF80700287246B9BDF808002882BDF80A0068820398686102E0BDF8080028828B
:20681C00BDF8100028859DF8120085F82A00BDF813004FF0FF310822A88505F11C0034F0D8
:20683C0057FA284615F0C0FD08F10108B8F1000F02D0002015F0C9FC7F1CBA453FF66FAF58
:20685C0007B0BDE8F08F2DE9F04780464FF01C0A0E46B2FBFAF0ADF1200D002838D0D14DC5
:20687C0000240746A1469CBB4046314601AA53462DF03AF9041C27D101A82EF045FC4A460C
:20689C0000F01F0003E0401C521C00F01F0083005919EB5833F070430ED01F2AF3D9CDF84B
:2068BC0000904FF0FF3001217A2240F6EC0330F0A7FE6FF0150407E0086866F31B0008606B
:2068DC00C87868F30710C8707F1E06F11C06CAD108B0BDE8F087C046B8370020DCE70300B2
:2068FC00BC25002090230020B0370020B4370020F0B51823ADF1240D02AA2DF0F5F8002809
:20691C0040F0CD804FF4A06001210FF0B8FA061C5CD04FF4A0610122102310F077FD071C49
