:020000040000FA
:060000000200E302054CC2
:030013000205D211
:03003B0002056E4D
:03004B0002063179
:1000830002044100000080FB120144B90003020096
:10009300CDE4900F0078CF790D8002F0A3D8FCD97E
:1000A300FA901BCEAA82AB83900147780B7901802B
:1000B30015E493A3AC82AD838A828B83F0A3AA82D7
:1000C300AB838C828D83D8E9D9E775826975830AFE
:1000D30074001200F575828675830074001200F5B2
:1000E30075D0007581BF75100075110F75C70002BB
:1000F300008BC4C0F0F5F0E5C75430C4C0E0E5C7D9
:1001030054CF45F0F5C7D0F0E47385C7F053F0CF73
:10011300D0E0C445F0F5C722D083D082E5C7C454EC
:1001230003C0E0E493C0E0740193C0E0740293C49D
:100133005430C0F0F5F0E5C754CF45F0D0F0F5C723
:10014300227901220000000001000000AD1312011A
:100153001B5D090012011B74090012011B8E0900AB
:1001630012011B9C090012011BB0090012011BE7BD
:10017300090012011B380A0012011BF907001201C2
:100183001B4A080012011B0F0B0012011B550B0029
:1001930012011B7A0B0012011B970B0012011BD1DA
:1001A3000B0012011B710A0012011B770A001201D6
:1001B3001B930A0012011BC60A0012011BE60A0068
:1001C30012011B73060012011BA0060012011BE3A0
:1001D3000600E026F008A3E036F008A3E036F008B6
:1001E300A3E036F022E0F608A3E0F608A3E0F60861
:1001F300A3E0F622E6F008A3E6F008A3E6F008A3DE
:10020300E6F022B90010BB0008E88AF084F8AAF0EF
:1002130022E4FBC8FA22EB70227B10C833C8C9332F
:10022300C9335007C39AC3DBF280069A50012ADB15
:10023300EAC833F4C8C933F4C9FA2275F008E4C82C
:1002430033C8C933C933C99AC99B5004C92AC93BA6
:10025300D5F0ECFBC833F4C8E4C9FA22251010AF7B
:1002630008F510400215118008F51040021511D24F
:10027300AF22C0D0251010AF08F510500205118031
:1002830008F51050020511D2AFD0D0222510C58237
:10029300C0E0E51134FFC583C0E0E510C3958224B7
:1002A300F8F8E4C5A8858311858210C5A8E8CEF0C7
:1002B300A3E520F0A37808E608F0A3DEFAEFF0A3A5
:1002C300E58124FAF8E608F0A3E608F0A3E608F0CF
:1002D300A30808E608F0A3E608F0A315811581D06A
:1002E300E0FED0E0F8158115811581E8C0E0EEC08D
:1002F300E022851183851082E0A3FEE0A3F5207838
:1003030008E0A3F608DFFAE0A3FFE0A3C0E0E0A360
:10031300C0E0E0A3C0E0E0A3C0E0E0A3C0E0E4C528
:10032300A8858210858311C5A8D083D08202010DD0
:10033300C0D02510C582C0E0E51134FFC583C0E0FD
:10034300E510C3958224F310AF08858311858210CD
:100353008008858311858210D2AFC8F0A3E9F0A38A
:10036300EAF0A3EBF0A37908E709F0A3D8FAECF0DD
:10037300A3EDF0A3EEF0A3EFF0A3D0E0F0A3D0E061
:10038300F0A3D0E0F0A3E520F0A3E5F0F0A32285ED
:100393001183851082E0C0E0A3E0F9A3E0FAA3E0B3
:1003A300FBA37808E0F608A3DFFAE0FCA3E0FDA3D3
:1003B300E0FEA3E0FFA3E0C0E0A3E0C0E0A3E0F51C
:1003C300D0A3E0F520A3E0A3F5F0E4C5A88583114D
:1003D300858210C5A8D082D083D0E0F8D0E032D097
:1003E30083D082CCC0E0E493A3600612040C1470A3
:1003F300FAE493A3600612042B1470FAD0E0FCE431
:1004030093A3C0E0E493C0E022C0E0E493A3D39CB1
:100413005010E493A3C39C400AD0E0D0E0D0E002A4
:1004230003FFA3A3A3D0E022C0E0E493A36C70096D
:10043300D0E0D0E0D0E00203FFA3A3D0E022C0E0ED
:1004430074EF120333C2AFC2AF7C00901BACC3E0A6
:100453009418A3E09400400302051E901BAAE0F841
:10046300A3E0F9E875F087A4C8AAF075F000A42A00
:10047300FA75F087E9A42AF9E82400FAE9340FFBB6
:10048300E5E9A2E1502B901BC578081201E88A82A6
:100493008B83A378081201F7E5E28A828B83A3A3F7
:1004A300A3A3A3F0E5E38A828B83A3A3A3A3A3A3BC
:1004B300F0E5E9A2E65076EA2407F8EB3400F99078
:1004C300619BE08A828B83F07D008017E5D9C0E0D1
:1004D3008D08750900E82508F582E93509F583D00B
:1004E300E0F00DEDC0E08A828B83E0FED0E0C39E96
:1004F30040DA901BACE02401F0A3E03400F0901B41
:10050300AAE02401F8A3E03400F97A187B00120270
:1005130006901BAAEAF0A3EBF08012E5E9A2E650ED
:1005230004D2F08002C2F0A2F0E492E0FC75E9008C
:10053300759B00759100E5BFA2E24003EC60037573
:10054300E1EDD2AF7F04020392C0E0C0D0C082C00D
:1005530083C28975BF0075E1ED75E1E37401901BFA
:10056300C3F0D083D082D0D0D0E032C0E074F21296
:10057300033374FE12025FA2E9504A85108285118B
:10058300837400F0A37400F0C2E9539AFBC2AA7902
:1005930001851082851183AA82AB831201CFE960A2
:1005A30019851082851183E0F8A3E0F5838882E042
:1005B300F5C17401901BC4F080067400901BC4F055
:1005C300439A04D2AA74021202757F01020392C0F5
:1005D300E074F2120333C2AFC2AFE5C1FA901BBAA3
:1005E300C3E09408A3E09400503DEAC0E0901BB838
:1005F300E024AEF8A3E0341BF988828983D0E0F0CD
:10060300901BBAE02401F0A3E03400F0901BB8E0A3
:100613002401F8A3E03400F97A087B001202069063
:100623001BB8EAF0A3EBF0D2AF7F01020392C0E064
:10063300C0D0E8C0E0C008C009C00AC00BC082C077
:1006430083E5AFA2E5501553AF20E5AF901BD278F9
:10065300081201E8901BC578081201D5D083D08217
:10066300D00BD00AD009D008D0E0F8D0D0D0E032F7
:10067300C082C08378007900901BBAE8F0A3E9F048
:10068300901BB8E8F0A3E9F0901BB6E8F0A3E9F0FB
:100693001201C9120199D083D08202010DC082C018
:1006A30083C2AFC2AF78007900901BACE8F0A3E936
:1006B300F0901BAAE8F0A3E9F0901BA8E8F0A3E9E7
:1006C300F0901BCA74D6F0A3741BF07402901BCC79
:1006D300F07401901BCDF0D2AFD083D08202010D14
:1006E30074F712028FE9FD7C00901BACE06400708C
:1006F30004A3E0640070030207F2901BCCE0C39DE7
:100703005007901BCCE0FE8002EDFEEEFC901BCA6E
:10071300E0F8A3E0F98A828B83E8F0A3E9F0901B69
:10072300CCE0C39CF0ECF87900901BCAE028F8A356
:10073300E039F9901BCAE8F0A3E9F0901BCCE06024
:10074300030207F2ECC3940150030207F2901BCD9E
:10075300E06055901BACE064007004A3E06400709B
:1007630006780079008025901BA8E0F8A3E0F9E85B
:1007730075F087A4C8AAF075F000A42AFA75F0876B
:10078300E9A42AF9E82400F8E9340FF9901BCAE830
:10079300F0A3E9F0901BCAE0F8A3E0F5838882E0B8
:1007A3002407901BCCF08037901BACE024FFF0A310
:1007B300E034FFF0901BA8E02401F8A3E03400F933
:1007C3007A187B00120206901BA8EAF0A3EBF090C4
:1007D3001BCA74D6F0A3741BF07402901BCCF09068
:1007E3001BCDE07004740180027400901BCDF0EC0B
:1007F300F97F010202F5C082C08353F4FEC2904325
:10080300FE0153F4FDC29143FE0253F4EFC294433D
:10081300FE1053F4EFC29443FE10C294C2817401DC
:10082300901BBCF07400901BBDF07400901BBEF0D5
:100833007400901BBFF0901BC07400F0A37400F011
:10084300D083D08202010DC082C083901BBCE060C4
:1008530043E960147400901BBCF0901BC07400F05B
:10086300A37400F0D290802C901BC0E02401FCA361
:10087300E03400FD901BC0ECF0A3EDF0C3EC94302A
:10088300ED9475400F901BC07400F0A37400F063E7
:100893009001E590901BBCE06003020956E97017D4
:1008A3007401901BBCF0C290C291901BC07400F005
:1008B300A37400F0020956901BBEE07006901BBDA6
:1008C300E06077901BC0E02401F0A3E03400F090D7
:1008D3001BBEE06021901BC0C3E09410A3E09427EB
:1008E3004014901BC07400F0A37400F07400901BBC
:1008F300BEF0C291805D901BBDE06057901BC0C3EA
:10090300E094B8A3E0940B404A901BC07400F0A39A
:100913007400F0901BBFE02401F0901BBFE0C39470
:100923000340107400901BBFF0C2917400901BBD74
:10093300F08020639002E5908019EB6008740190C9
:100943001BBEF0D291EB700BEA60087401901BBDE3
:10095300F0D291D083D08202010DC082C0831201F4
:100963007B1201B11201871201C3D083D08202012D
:100973000D74F712028FEAFEEBFF1201B78E828F1E
:1009830083E0F912018D7F010202F5C082C0831258
:100993000193D083D08202010DC082C083120193E0
:1009A3001201BD1201C9D083D08202010DC082C0E1
:1009B300838A828B83E01203E20002AAC609BBCBBF
:1009C30009D00912015D801512016380108A828BA0
:1009D30083E0C3940BC394105003120157D083D008
:1009E3008202010DC082C0838036901BB6E024AE24
:1009F300FAA3E0341BFB120169901BBAE024FFF059
:100A0300A3E034FFF0901BB6E02401F8A3E0340028
:100A1300F97A087B00120206901BB6EAF0A3EBF00A
:100A2300901BBAE064007004A3E0640070BCD08340
:100A3300D08202010DC082C08312016F12019F9008
:100A43001BACC3E09418A3E0940040047B01800234
:100A53007B00901BC3E0FA901BC2E0F9120181D026
:100A630083D08202010D12015112017580FB53C61E
:100A73007F02010D53BEFBE59DA2E550FAE59DA261
:100A8300E240F475C600E59E70FC43BE0402010D0E
:100A930074F412028F75E40075E54053AFFEC2B9DA
:100AA3001201A51201ABD2B97400901BC9F0901BBF
:100AB300CE78081201E8901BC578081201F77F046D
:100AC3000202F5C082C083901BC9E0700F740190CD
:100AD3001BC9F075DA0075DB0043E401D083D082D3
:100AE30002010D74F412028F901BC9E060197400A7
:100AF300901BC9F0901BCE78081201E8901BC578B3
:100B0300081201F753E4FE7F040202F5C082C0839A
:100B1300906189E04430F07400906180F07400903B
:100B23006182F074099061FAF074159061B2F07407
:100B3300009061AEF09061A3E04442F0439A0174E7
:100B430000901BC2F07400901BC3F0D083D08202CC
:100B5300010DC082C083901BC2E0701475E1E37580
:100B6300F005E9A424D490618FF07401901BC2F0C6
:100B7300D083D08202010DC082C083901BC2E0608B
:100B83000C75E1ED75E1EF7400901BC2F0D083D0DA
:100B93008202010DC082C08353FFF3E5FF53F1FED0
:100BA30043F30CE5F353F2F3E5F275868075C480E5
:100BB30075C2D875C50B75C402438640439A04D2E7
:100BC300AA7400901BC4F0D083D08202010DC082AE
:100BD300C083901BACE064007004A3E06400600871
:0F0BE300901BC4E07002D2E9D083D08202010DD2
:04000005000000E314
:00000001FF
