:20000000003C0120E144030039FB021039FB021039FB021039FB021039FB021039FB0210B7
:1C00200039FB021039FB021039FB021039FB021039FB021039FB021011FB021002
:20003C0070B5C74D0646A8780C4682000846314632F0AEFDAA7804F1280006F128019200A8
:20005C0032F0A6FD0120A9782065890004F15400091F2AF0F8FA70BD2DE9F047B84E054627
:20007C00F078884688B9286801282BD16868002828D1A868002825D1E868002822D128691D
:20009C0000281FD1686998B11CE02868012819D16868B8B9A868A8B9E86898B9286988B94E
:2000BC00686978B9A86968B9E86958B9286A48B90120B178C8F80000890008F10400091F43
:2000DC002AF0C1FA06F5DE7000214C2233F096FB96F802E096F803A006F5DE74AEF101070E
:2000FC00002F20DDAC4606F20262A4F10803DCF80000C10901F4FF7100F0FF00515A32F803
:20011C00100040EA014043F8080F5CF8040B010E32F81190C00B00F4FF70105A7F1E40EA5A
:20013C0009405860E3D1BAF1000F06F2026147D1686900F0FF0031F81000A062216981EAD1
:20015C00407121616169042780EA400281EAD00181EAC20104F10C02484060619069966802
:20017C00956980EA500186EA1170566885EA45037F1E86EAD50181EAC301966913689060C8
:20019C0085EA0100506083EA46701060A2F10402E4D16169C80880EA4002A06180EAC203CC
:2001BC00226880EA500782EAC30242402260606880EA5760606001F00701C8F8141047E0F6
:2001DC002A6AD00D00F00E000B5AD70B07F4FF70085A40EA03406064286AC20902F4FF728C
:2001FC0000F0FF008A5A31F81000092740EA024004F14802206452F8040D52F8246C1568C6
:20021C0052F8203C80EA40117F1E80EA810180EA411086EA401142F8241C85EA551185EA9E
:20023C00910185EA511083EAD03142F8201CE2D1216A2768C80E80EA4012606280EA82034C
:20025C0087EA43125040206021F07841C8F820104FEA8E0240462146121F32F099FCBDE8AF
:20027C00F08770B5364E0446F07898B904F150052868002831D1606D00282ED1A06D002812
:20029C002BD1E06D002828D1206E002825D1606EA0B122E004F150052868F0B9606DE0B922
:2002BC00A06DD0B9E06DC0B9206EB0B9606EA0B9A06E90B9E06E80B9206F70B90120B178C8
:2002DC0020608900201D091F2AF0BDF9B17804F1280089002AF0B7F970BD20460146FFF75B
:2002FC00BBFE04F1280004F12801FFF7B5FE28460146FFF7B1FE70BD2DE9FE4F074600917D
:20031C000F4E019206F5DE7000215022054633F075FA06F6040400214FF41672204633F09F
:20033C006DFAB07839468200204632F031FC96F802A0AAF10100C0B2002853D002E0C046EB
:20035C00F07200208300E218E15852F8047C490041EAD771E75851627940916452F8047C59
:20037C00E158890041EA9771E758D1667940C2F89010D76E516A7940E758C2F8B4107940B4
:20039C00C2F8D81052F8047CE158C90041EA5771E758C2F8FC107940C2F82011D2F8FC7001
:2003BC00516A7940E758C2F844117940C2F86811D2F8FC70D16E7940E758C2F88C117940F6
:2003DC00C2F8B011D2F88C71E358516A401EC0B2002881EA0701C2F8D41181EA0301C2F896
:2003FC00F811AFD127687900BA00084682EA0703C4F890307940A16411466062FB00E1663D
:20041C0080EA0102C4F8B4207A40C4F8D8201A46C4F8FC207B40C4F820315140C4F88C116B
:20043C0080EA0203C4F844314840C4F8D4017B40C4F8683181EA0702C4F8B0217840C4F862
:20045C00F80196F803900723BAF1000F26D0DDF800C04FEA8308D6460026ACF1040C5CF8F0
:20047C00040F20FA08F010F00F0F12D000F00F008100AA19574601EB401024380019D2F8E0
:20049C0000B050F8041B7F1E81EA0B0142F8041BF5D1BEF1010E06F10406E0D15FEA09072D
:2004BC0003D07F1E15D0BDE8FE8F012B02D1686A000FA86205F124010927086851F8042C7B
:2004DC007F1E4FEA001040EA127041F80409F4D10DE005F144011127086851F8042C7F1E7D
:2004FC004FEA001040EA127041F80409F4D128685B1E4FEA00102860A6D1BAF1000F21D0E4
:20051C00DDF800C056460023ACF1040C5CF8041F11F00F0F12D001F00F018800EA1857461E
:20053C0000EB411024380019D2F800E050F8041B7F1E81EA0E0142F8041BF5D1761E03F11F
:20055C000403E3D1B9F1000F32D0B9F1010F70D105F14802092752F8040D52F8246C1468ED
:20057C0052F8203C80EA40117F1E80EA810180EA411086EA401142F8241C84EA541184EA3E
:20059C00910184EA511083EAD03142F8201CE2D1296A2F68019EC80E80EA401280EA8203FD
:2005BC0087EA43125040286021F07841316240E0A86A296981EA40712961696980EA4002FC
:2005DC00042781EAD00181EAC20105F10C024840686190699668946980EA500186EA117075
:2005FC00566884EA44037F1E86EAD40181EAC30196691368906084EA0100506083EA4670AF
:20061C001060A2F10402E4D169692F68019CC80880EA400280EA500680EAC20387EAC30259
:20063C0042402A60686880EA5660686001F00701616101984FEA8A022946121F32F0A8FA5D
:20065C00BDE8FE8F38B5514B1B785BB10446184654F8045B51F8043B401E83EA050342F83C
:20067C00043BF5D138BD2DE9F0418C4D0446E8780E4698B904F150000768002F39D1676D34
:20069C00002F36D1A76D002F33D1E76D002F30D1276E002F2DD1676EAFB12AE004F15000F7
:2006BC000768002F25D1676D1FBBA76D0FBBE76DFFB9276EEFB9676EDFB9A76ECFB9E76E56
:2006DC00BFB9276FAFB90120A97830608900301D091F29F0B8FFA97806F12800890029F006
:2006FC00B2FFA97806F15000890029F0ACFFBDE8F08105F55F71FFF7AFFC05F55F712046C7
:20071C00FFF7AAFC05F55F7005F55F7106F15002FFF7F2FD05F55F703146FFF79DFC05F597
:20073C005F7005F55F71FFF797FC304605F55F710246FFF787FF04F1280005F55F71FFF79A
:20075C008BFCE87806F1500705F55F7820B9404639460246FFF776FF404601460A46FFF7D3
:20077C0071FF06F1280230464146FFF7C5FD404639460246FFF7C0FD06F1280006F12802D7
:20079C004146FFF75FFFBDE8F081C046F27200202DE9F84F414C0746E07815460E4600285C
:2007BC0032D133680120B3B97368A3B9B36893B9F36883B9336973B9736963B9B36A53B9D4
:2007DC00F36A43B9336B33B9736B23B9B36B13B9F36B03B900203B6D80F001005FFA80F852
:2007FC00002B4FF0010054D17B6D002B51D1BB6D002B4ED1FB6D002B4BD13B6E002B48D10A
:20081C007B6E002B45D143E0012849D133680120002B26D17368002B23D1B368002B20D11D
:20083C00F368002B1DD13369002B1AD17369C3B9B369B3B9F369A3B9336A93B9B36A83B99C
:20085C00F36A73B9336B63B9736B53B9B36B43B9F36B33B9336C23B9736C13B9B36C03B9EA
:20087C0000203B6D80F001005FFA80F8012083B97B6D73B9BB6D63B9FB6D53B93B6E43B984
:20089C007B6E33B9BB6E23B9FB6E13B93B6F03B9002080F001005FFA80FA04E0F0720020FD
:2008BC004FF00008C246A078B8F1000F40F0208106F12801BAF1000F009140F0028107F116
:2008DC00500004F541723146FFF716FD04F54B7907F150004946FFF7BFFB04F54171384613
:2008FC002A46FFF7AFFE07F1500004F541722946FFF702FD009904F5557B48465A46FFF7EB
:20091C00FBFC07F1280005F128025946FFF79AFEE07805F12809002829D12B68012053B9F6
:20093C006B6843B9AB6833B9EB6823B92B6913B96B6903B9002005F12809D9F8003080F0F6
:20095C0001005FFA80F8002B4FF0010040D1EB6A002B3DD12B6B002B3AD16B6B002B37D1CA
:20097C00AB6B002B34D1EB6B002B31D12FE0012832D12B68012083B96B6873B9AB6863B939
:20099C00EB6853B92B6943B96B6933B9AB6923B9EB6913B92B6A03B9002005F12809D9F813
:2009BC00003080F001005FFA80F8012083B9EB6A73B92B6B63B96B6B53B9AB6B43B9EB6BCF
:2009DC0033B92B6C23B96B6C13B9AB6C03B9002080F001005FFA80FAB8F1000F52D160483F
:2009FC0005F15001FFF738FB5D4849465A46FFF783FCE07805F1500720B959485949024619
:200A1C00FFF720FE57492846FFF726FB554854492A46FFF771FC53494846FFF71DFB5149A2
:200A3C0028460246FFF70EFE284659460246FFF709FE4C4A30463946FFF75EFC49482946B5
:200A5C000246FFF7FFFD46493846FFF705FB584639460246FFF7F6FD424958464A46FFF740
:200A7C004BFC00993F4A3046FFF7ECFD3C483D495A46FFF741FC484659460246FFF7E2FD75
:200A9C00BDE8F88FA178BAF1000F10D1012089002860091F281D29F0D6FDA07881004846A8
:200ABC0029F0D1FDA17805F1500089001CE030463946FFF7B5FA38462946FFF7D4FDBDE85C
:200ADC00F88F82003146284632F062F8A1788A00009905F1280032F05BF80120A1782865FA
:200AFC0005F154008900091F29F0ADFDBDE8F88F82003946284632F04BF8A27805F12800E4
:200B1C0007F12801920032F043F8A27805F1500007F15001920032F03BF8BDE8F88F0346A4
:200B3C000846910010B5521E5B1840181B1F001F51B2002911D4491C02681C68A24288BFD2
:200B5C004FF0FF300AD850F8042953F80449A24238BF012002D3491EEED1002010BDC04632
:200B7C00F47500201C7600202DE9F84FAF4F8B468146282207F54174002104F178008246DA
:200B9C0032F03CFE04F1A00000212822804632F035FE0021282204F1280032F02FFE0021CA
:200BBC00282204F1500032F029FE0120FE78C7F82C030020C7F85403B878002E05463CD1D0
:200BDC0082004946504631F0E3FF082604F1A008C920DAF80050C4F8B4604FF0000CC4F8A2
:200BFC00A000012D0ED1E66F66B9D4F880604EB9D4F8846036B9D4F888601EB9D4F88C6023
:200C1C00002E68D0D4F8A00004F1A008012860D1D4F8A460002E5CD1D4F8A860002E58D199
:200C3C00D4F8AC60002E54D1D4F8B060002E50D1D4F8B460002E4ED04BE0012E4DD1AA00F4
:200C5C005046494631F0A4FF4FF00066C4F8C06041F2A100C4F8A000DAF8000004F1A0086F
:200C7C004FF0000C012816D1E66FA6B9D4F880608EB9D4F8846076B9D4F888605EB9D4F8E0
:200C9C008C6046B9D4F890602EB9D4F8946016B9D4F89860FEB1D4F8A00004F1A008012876
:200CBC0017D1D4F8A460A6B9D4F8A8608EB9D4F8AC6076B9D4F8B0605EB9D4F8B46046B90D
:200CDC00D4F8B8602EB9D4F8BC6016B9D4F8C0600EB14FF0010CFE78BD78DAF8000041F2CF
:200CFC00A10922E104EB8500022DA5F1010300F124000DDB04F178021F461168D2F804E0F6
:200D1C007F1E4FEA510141EACE7142F8041BF4D1016D49080165A16A4A0811D346B1012E7B
:200D3C000ED1A26C89EA010182F00062A26406E0E26BA16A82F00802E26381F0C901A1621E
:200D5C00002B0BDD04F12802116857685B1E4FEA510141EAC77142F8041BF5D101684908CD
:200D7C000160DAF800004008BCD3D8F8000040E004EB8500022DA5F1010300F14C000DDBFB
:200D9C0004F1A0021F461168D2F804E07F1E4FEA510141EACE7142F8041BF4D1016D4908A5
:200DBC000165216D4A0811D346B1012E0ED1226F89EA010182F00062226706E0626E216D41
:200DDC0082F00802626681F0C9012165002B0BDD04F15002116857685B1E4FEA510141EA31
:200DFC00C77142F8041BF5D1016849080160D8F800004008BCD3504641462A46FFF78FFEAE
:200E1C00012815D035B304F128012F468A6F086D8B6A7F1E80EA02000A68886782EA0300F1
:200E3C00886201F10401F1D114E0C046F072002085B104F128012F460A6D886F0B687F1E30
:200E5C0080EA02008A6A086582EA0300086001F10401F1D1DAF80000002E2BD101284FF0B5
:200E7C00000C0ED1E76F67B9D4F880704FB9D4F8847037B9D4F888701FB9D4F88C70002FEE
:200E9C0053D0D8F8001001294DD1D4F8A470002F49D1D4F8A870002F45D1D4F8AC70002F82
:200EBC0041D1D4F8B070002F3DD1D4F8B470002F3BD038E0012E38D101284FF0000C16D106
:200EDC00E76FA7B9D4F880708FB9D4F8847077B9D4F888705FB9D4F88C7047B9D4F89070DC
:200EFC002FB9D4F8947017B9D4F89870EFB1D8F80010012917D1D4F8A470A7B9D4F8A870C4
:200F1C008FB9D4F8AC7077B9D4F8B0705FB9D4F8B47047B9D4F8B8702FB9D4F8BC7017B9BD
:200F3C00D4F8C0700FB14FF0010CBCF1000F7FF41AAFA6B9012836D1E06F002833D1D4F8BF
:200F5C00800000282FD1D4F8840000282BD1D4F88800002827D1D4F88C00C8B123E00128E8
:200F7C0021D1E06FF8B9D4F88000E0B9D4F88400C8B9D4F88800B0B9D4F88C0098B9D4F87B
:200F9C00900080B9D4F8940068B9D4F8980050B995B12834284654F8041B401E4BF8041B43
:200FBC00F9D1BDE8F88F3DB15034284654F8041B401E4BF8041BF9D1BDE8F88FF8B5924D92
:200FDC000446E8780E4698B904F150000768002F2ED1676D002F2BD1A76D002F28D1E76D35
:200FFC00002F25D1276E002F22D1676EA7B11FE004F150000768DFB9676DCFB9A76DBFB999
:20101C00E76DAFB9276E9FB9676E8FB9A76E7FB9E76E6FB9276F5FB9A8788100304629F046
:20103C0012FBA97806F12800890029F00CFBF8BD05F54171FFF798FD05F541712046324628
:20105C00FFF75AF905F5417005F54171FFF704F804F1280005F5417106F12802FFF74CF9BD
:20107C00F8BDB0B5684DEF780C46002F24D10768002F59D14768002F56D18768002F53D199
:20109C00C768002F50D10769002F4DD14769002F4AD1876A002F47D1C76A002F44D1076BDF
:2010BC00002F41D1476B002F3ED1876B002F3BD1C76B002F2CD037E00768002F34D14768F0
:2010DC00002F31D18768002F2ED1C768002F2BD10769002F28D14769002F25D18769002FC0
:2010FC0022D1C769002F1FD1076AEFB9876ADFB9C76ACFB9076BBFB9476BAFB9876B9FB9E9
:20111C00C76B8FB9076C7FB9476C6FB9876C5FB9A8788100204629F096FAA97804F12800BA
:20113C00890029F090FAB0BDAF784FB10268816A5140A16250F8041B7F1E44F8041BF5D1C5
:20115C00B0BD2DE9F04FD24C0546ADF1240D0591204606920021C822049532F04FFB0527A9
:20117C0028462146103050F8042B7F1E41F8042BF9D1254D2068D5F88C10002604F1180B57
:20119C004FF0040C0123009605F148070196A1FB0010616100210791001C87E803000199FF
:2011BC0005F15802052B084682E80300A4BF181FC0B253E0B54FACEB80016258DDF820E0EE
:2011DC0005F1480696E8000307EB800149697746A1FB021A11EB080147EB090205F15807FD
:2011FC0097E8000305F1480686E80600461CF0B27246574605F1580617EB080142EB0902A9
:20121C0086E806006AE1C046F07200209E4FACEB80016258DDF81CE005F1480696E8000316
:20123C0007EB800149697746A1FB021A11EB080147EB090205F1580797E8000305F148069B
:20125C0086E80600461CF0B27246574605F1580617EB080142EB090286E80600052BB4BFF7
:20127C00191C04218142D1DAA86C05F14807DDF81C904BF8040B97E8030005F158068846BA
:20129C0096E803005B1C05F148020CF1040C10EB080041EB0901092B82E80300FFF67FAFF0
:2012BC00A06301044F46606B0397C00E50EAD12002905AD0D5F82C11C846A0FB0106DDF8CC
:2012DC000890E063D5F83001C24653464A46414634F0AAFE0F46321C534641461218D5F8DB
:2012FC003401226443EB01034A461E46534634F09BFE331C13EB000AD5F83801C346894666
:20131C003A4641465B464BEB010B12EB0A026264029A43EB0B031E46434634F085FE331C3D
:20133C0013EB000AD5F83C014746BB464A46884639465B464BEB010B12EB0A02A264029A86
:20135C0043EB0B031E463B4634F06EFEBA46321C53460F4646465146121843EB0103B0183D
:20137C00E06441EB0301C91921656069E26B0799266C8046104610EB080002466261A269F8
:20139C00019F89460B4641EB09019046081C16EB08024E4643EB090331461218A26143EB96
:2013BC000603626CE069A66C98464B46121843EB010312EB0802E261206A43EB0903984628
:2013DC004B46321843EB010312EB08022262E26C606A4FF4004643EB090398464B461218E5
:2013FC0043EB010312EB080243EB0903B6186662A26A47EB0307381C1218A262E26A4F461D
:20141C0047EB0103181C1218E262226B47EB0103181C12182263626B47EB0103181C1218D1
:20143C006263A26B484640EB0103181C12181046400EC4F89000C6F3084007900527A263EA
:20145C0004F12402106853687F1E4FEA506040EAC310906502F10402F4D10798400A3CBF08
:20147C00079840421ED3019804F17C03052284461E68B6F1FF3F0DD1521E43F804CB00F18C
:20149C000100F5D10BE0C0466873002090730020F475002004EB8002D06F401CD0670798EF
:2014BC00C0F500700790D5F8B420206805F1480704F1180B4FF0040C08910123A2FB002005
:2014DC006261001C87E80300019905F15802052B084682E80300A4BF181FC0B2052BB4BF1B
:2014FC00191C04218142BFF665AEA86C05F14807DDF820904BF8040B97E8030005F15806E5
:20151C00884696E803005B1C05F148020CF1040C10EB080041EB0901092B82E80300D3DB14
:20153C00A063616B0004CF0E57EAD02002905AD0D5F82C11C846A0FB0106DDF80890E06388
:20155C00D5F83001C24653464A46414634F06CFD0F46321C534641461218D5F834012264B7
:20157C0043EB01034A461E46534634F05DFD331C13EB000AD5F83801C34689463A464146D6
:20159C005B464BEB010B12EB0A026264029A43EB0B031E46434634F047FD331C13EB000AF9
:2015BC00D5F83C014746BB464A46884639465B464BEB010B12EB0A02A264029A43EB0B03D0
:2015DC001E463B4634F030FDBA46321C53460F4646465146121843EB0103B018E06441EBC6
:2015FC000301C91921656269E06B089B276C80186061A06919468946804641EB030117EB8F
:20161C000800676C1E460A4646EB09018018A06141EB0301E069A36C0A1C804617EB0800CD
:20163C0046EB09018018E061206A374641EB07010A1C804613EB080047EB09018018019BDD
:20165C00E76C2062606AB44641EB06014FF400428846834617EB0B0046EB0C0110EB080038
:20167C0041EB090112186262A06A43EB0103984610EB0800A062E06A4F4646EB0701884625
:20169C0010EB0800E062206B4B4647EB0301884610EB08002063606B47EB0601884610EB76
:2016BC0008006063A06B47EB0301884610EB08000346590EC4F8A8100527A063C2F30840E1
:2016DC0004F12402116853687F1E4FEA516141EAC311116702F10402F4D1410A18D3019912
:2016FC0004F1940305228E461E68B6F1FF3F06D1521E43F804EB01F10101F5D106E004EBDC
:20171C008102D2F89410491CC2F89410A0F500700799019EC0EB410E3746BEF5007F05DA2D
:20173C00A1EB8001B1F5806F09DA0AE0079A00EB4001891811F5007FA8BF012601DA4FF083
:20175C00FF371EF5007F06DB0799A1EB800111F5806F07DB07E0079900EB40004018B0F591
:20177C00007F04DB0127002E5AD0012E15D0019804F17C02052186461368B3F1FF3F06D129
:20179C00491E42F804EB00F10100F5D148E004EB8001C86F401CC86742E0E06F019A4FF040
:2017BC00FF36804616EB0800E067D4F880A01146E346334641EB090188461AEB080A4BEB8C
:2017DC00090B13EB0A00C4F88000D4F884A0164646EB0B011E46884663461AEB080A43EBEC
:2017FC00090B16EB0A00C4F88400D4F888801346664643EB0B018A464FF0FF3318EB0A0805
:20181C0049EB060913EB0800C4F88800D4F88C00164646EB0901091C4018401EC4F88C000D
:20183C00002F5DD0012F44D0D4F89400DDF804E04FF0FF321218C4F89420D4F8982061469E
:20185C00734667464FF0FF3A43EB0103181C121847EB01031AEB020AC4F898A0D4F89C203B
:20187C00F34666464FF0FF374BEB030B5846001C121846EB010317EB020AC4F89CA0D4F8C3
:20189C00A070F3464BEB030B58464FF0FF33021CB81841EB06011A18C4F8A020D4F8A40051
:2018BC00774647EB0103191C4018401EC4F8A40016E0019804F19402052186461368B3F1A3
:2018DC00FF3F06D1491E42F804EB00F10100F5D106E004EB8001D1F89400401CC1F8940033
:2018FC00E06FD5F8041105F1480204F1580B4FF0040ACDF808C0A1FB00106165001C6146F4
:20191C0082E803000122019904EB0A0605F15803571C084606F17C0C83E8030005F5827394
:20193C005CF8040953F8041B05F1480696E80003A1FB000E029905F1480610EB080041EB43
:20195C00090186E80300029905F1580696E800037F1E704605F1580610EB080041EB0901A0
:20197C00002F86E80300DBD1A86C05F15806029B4BF8040B96E8000305F1480797E8030060
:20199C00521C0AF1040A081C05F1480718EB000849EB0309052A87E80003B4DBD4F8940070
:2019BC00D5F8DC102F4605F1480204F1180B4FF0040A0297A1FB00106161001C194682E84C
:2019DC0003000122019904EB0A0605F158030846571C06F1940C83E80300294601F1DC03D5
:2019FC005CF8040953F8041B05F1480696E80003A1FB000E039905F1480610EB080041EB82
:201A1C00090186E80300039905F1580696E800037F1E704605F1580610EB080041EB0901DE
:201A3C00002F86E80300DBD1A86C05F15806039B4BF8040B96E8000305F1480797E803009E
:201A5C00521C0AF1040A081C05F1480718EB000849EB0309052A87E80003B3DB626D606978
:201A7C00A669801802466265A26D19468946B0464F4641EB0301081C18EB020849EB03092B
:201A9C0018EB0008464649EB07094846A665021CE66DE0691946801941EB07018018E065F3
:201ABC00206A266E41EB03010A1C801943EB070180182066606A666E1A4641EB02010A1C56
:201ADC001946801905F1480641EB0701801841EB030186E80300606604980E1CE04905F196
:201AFC00500282E8C0000522FFF719F8012866D00498DB490522FFF712F8B0F1FF3F07D024
:201B1C00019805990626761E41F8040BFBD1AAE0D348049E0268DDF814C030683B46B9462C
:201B3C000121C043804618EB020849EB030911EB080002460199CCF800203046A26D466854
:201B5C0041EB0901F643B04618EB0208059A844608463E4646EB030918EB00084646566032
:201B7C00DCF80860E26D384649EB0009F643B04618EB0208059A3946484641EB030918EBE0
:201B9C000008464605999660DCF80C60206E3A4649EB0209F6434A46B046B9463E4618EB2F
:201BBC00000849EB060918EB02084646CE606646626E306949EB03090223494649E0A84ECF
:201BDC0004980068804601993068B9463B46C243012612EB080243EB0903B018059E049AF7
:201BFC00306041EB0301A36D50688A46D9438046334611EB08013E4646EB0902049E11EBB3
:201C1C000A015960E36DB06880466FEA0300059BBB4642EB0B0259465E4610EB080041EB0D
:201C3C000901801841EB0601049E98608846216EF268C8435E4680181A465B4643EB0601E5
:201C5C00049E012310EB080041EB0901D060606E3269059EC043894612185FFA89F15218F4
:201C7C00326130464361B9487D4AD4F89410406905F1480604F1580B4FF0040A0297A0FB9D
:201C9C0001101160001C3946012286E80300019905F15803084683E80300AC4904EB0A06DC
:201CBC00571C06F1940C01F114035CF8040953F8041B05F1480696E80003A1FB000E029920
:201CDC0005F1480610EB080041EB090186E80300029905F1580696E800037F1E704605F141
:201CFC00580610EB080041EB0901002F86E80300DBD1A86C05F1580696E8000305F14807B7
:201D1C00029B4BF8040B97E80300521C0AF1040A081C05F1480718EB000849EB0309052ADC
:201D3C0087E80003B3DBBA49874AE06F496905F148074FF0040A012604F1180BA1FB001035
:201D5C001160001C194687E803000199DFF8C0C204EB0A0305F15802771C084603F17C0E6B
:201D7C000CF1140C82E803005EF804095CF8041BA1FB0023029905F1500080E80C0005F1DD
:201D9C00480090E80003104605F1480210EB080041EB090182E8030005F1580292E803005B
:201DBC001A1C029B7F1E121805F1580043EB0103002F80E80C00D7D1A86C05F148074BF806
:201DDC00040B97E8030005F1580797E80C00029F761C0AF1040A081C05F14801121843EB7F
:201DFC000703052E81E80C00AFDB1D4856490522FEF795FE01285BD0194853490522FEF76B
:201E1C008EFEB0F1FF3F07D00199069A0620401E42F8041BFBD194E04B48114B0768DDF8DA
:201E3C000880069E019918680122C246C043814619EB07094AEB080A12EB09003060A26D4B
:201E5C00A06941EB0A01D2430F1CC2469146414619EB00094AEB010A19EB07094A4601E0AE
:201E7C00487600204AEB080A50467260071CE26DE069C246D2435346914619EB00094AEB2F
:201E9C00010A19EB070948464AEB030A5246B060171C206A226ED243121843EB0103D219E6
:201EBC00F260606E666A43EB08031946022439E02748254A029B0768069E019910689846C1
:201EDC00C2430120D21943EB080380183060A069A76D41EB03010A1C4346C043C01943EB6E
:201EFC00080180187060E069E76D1A4641EB02010A1CC043C01943EB08018018B060206ABE
:201F1C00226E1F4641EB07010F1C4146C043801841EB0301C0190246F260606A666E41EBC2
:201F3C000801012405F1500CC0430B4648358CE88001361885E80C000698D9B2761806615A
:201F5C00446109B0BDE8F08F0876002068730020487600202DE9F04FA64D0446ADF11C0D13
:201F7C000491284605920021C822039431F046FC042720462946083050F8042B7F1E41F821
:201F9C00042BF9D19C4C2868A16F00264FF0000905F1180E4FF0040C0123009604F14807CD
:201FBC000196A1FB00106961804687E80003019A04F15800042B114680E806000846A8BF2F
:201FDC0001204AE0124A04F1480797E80003ACEB8001695852F820205F46A2FB011A11EBBC
:201FFC00080147EB090204F1580797E8000304F1480686E80600461C5A46F0B2574604F1BC
:20201C00580617EB080142EB090286E806001BE190730020794AACEB8001695852F820204A
:20203C00A2FB011804F1480292E8C0004A46891904F1480642EB070286E8060004F15802E7
:20205C0092E8C000411CC8B241464A46891904F1580642EB070286E80600032BB4BF191CC7
:20207C0002218142D6DAA06C04F148074EF8040B97E8030004F15806884696E803005B1C6E
:20209C0004F148020CF1040C10EB080041EB0901052B82E803008ADB5849EA68896802FBBC
:2020BC000100C708A86229D0D4F81801A7FB0006E863D4F81C01CA463A464946534633F095
:2020DC00B3FF8846321C534649461218D4F820012A6443EB01033A461E46534633F0A4FFD4
:2020FC000F46321C534649464646121843EB0103B018686441EB0301C919A9646869EE6B34
:20211C00019F8046F0432E6C4946012210EB080041EB090112186A61AA693B4643EB0103CA
:20213C0090464946181CF24312EB080241EB09031218696CAA61EA694E4643EB0603181C1A
:20215C009046CA4312EB080246EB09031218A86C49464FF4002643EB0103B618B446C5F84F
:20217C001CC02E6A39466FEA000247EB0307B8464B464F46921943EB070312EB080216464F
:20219C002E626A6A4FF0FF3043EB090398464B4612EB080243EB0903801841EB03010A1C79
:2021BC006862A96A8918491E32030B4602F440529B08C5F8843042EA1C5202928308A96238
:2021DC0043EA8173C5F88030B30843EA8071E967900B1ED3019805F17C02032106461368A8
:2021FC00B3F1FF3F0CD1491E42F8046B00F10100F5D10AE0F4750020F0720020687300204C
:20221C0005EB8001C86F401CC8670298A0F5804002902868D4F8A01004F1480605F1180E83
:20223C004FF0040C0123BB46A1FB00106961804686E80003019A04F15800042B114680E88B
:20225C0006000846A8BF0120032BB4BF191C02218142BFF6B7AEA06C04F148074EF8040B0B
:20227C0097E8030004F158068A4696E803005B1C04F148020CF1040C10EB0A0041EB0B011C
:20229C00052B82E80300D5DB9D49EA68896802FB0100C708A86229D0D4F81801A7FB00064F
:2022BC00E863D4F81C01DA463A465946534633F0BBFE8846321C5B4659461218D4F82001A7
:2022DC002A6443EB01033A461E46534633F0ACFE0F46321C5B4659464646121843EB01030D
:2022FC00B018686441EB0301C919A9646869EF6BDDF804C02E6C594682460122F84310EBF1
:20231C000A0041EB0B0112186A61A869634643EB0103F24359469A465B46121843EB0103CD
:20233C0012EB0A02AA616A6CE8695F4643EB0B039A46D64363464FF40022361847EB0107D6
:20235C0016EB0A0647EB0B07921943EB0703EA61181C2B6A9846AB6CD9465F46DE4316EB3A
:20237C00080647EB0907361847EB0107381C2E626F6A5B463F184FF0FF3041EB0308C01936
:20239C0003466B62A86A674647EB0801091C4018401E014630030F4600F4405040EA125057
:2023BC00BA08C5F89820A9629A08674642EA8172C5F89420B20842EA8371C5F89010810B1D
:2023DC0038BF404217D305F19002032163461668B6F1FF3F06D1491E42F8047B03F10103D7
:2023FC00F5D106E005EB8302D2F89010491CC2F89010C0F58040029900EB4103B3F5804FC1
:20241C0005DA01EB8001B1F5004F0BDA0BE0029E032110FB01F2B11A11F5804FA8BF4FF087
:20243C00010C00DA012713F5804F06DB029901EB800111F5004F08DB09E0029E032110FBC1
:20245C0001F0301AB0F5804F07DB4FF0FF37BCF1000F39D0BCF1010F21D0E86F019E4FF0B2
:20247C00FF3212181046E867D5F880005946334643EB01031A1C5B4680184FF0FF3241EB9E
:20249C0003011218C5F88020D5F88400324642EB0103191C4018401EC5F8840014E00198E2
:2024BC0005F17C02032106461368B3F1FF3F06D1491E42F8046B00F10100F5D104E005EB4C
:2024DC008001C86F401CC867002F3ED0012F19D0019805F19002032106461368B3F1FF3F59
:2024FC0006D1491E42F8046B00F10100F5D12CE005EB8001D1F89000401CC1F8900024E0A2
:20251C0090730020D5F89020019E4FF0FF3080180246C5F89020D5F894205B4631465F4667
:20253C0041EB0301081C4FF0FF31121843EB07038818C5F89400D5F89800374647EB030151
:20255C00091C4018401EC5F89800E86FD4F8F01004F1480705F1580A4FF0040C0122A1FB62
:20257C0000106965001C594687E80300019904F15803084683E80300964B05EB0C06571C38
:20259C0006F17C000290029953F8046B51F80409A6FB000E04F1480696E8000302915946CA
:2025BC0004F1480610EB080041EB090186E8030004F1580696E800037F1E5946704604F157
:2025DC00580610EB080041EB0901002F86E80300D9D1A06C04F148074AF8040B97E80300DB
:2025FC0004F158030E1C93E80300521C0CF1040C5F4604F14803801941EB0701032A83E802
:20261C000300B3DB7349734FD5F884204968D5F88060D5F89030A1FB02120918B868D4F876
:20263C00C87005F1180A4FF0040C012206FB0010286604F14806A7FB03106961001C5946A0
:20265C0086E80300019904F15803084683E80300614B05EB0C06571C06F190000290029972
:20267C0053F8046B51F80409A6FB000E04F1480696E800030291594604F1480610EB080043
:20269C0041EB090186E8030004F1580696E800037F1E5946704604F1580610EB080041EB2F
:2026BC000901002F86E80300D9D1A06C04F148074AF8040B97E8030004F158030E1C93E892
:2026DC000300521C0CF1040C5F4604F14803801941EB0701032A83E80300B3DB3E493E4F71
:2026FC00D5F898204968D5F89430A1FB02120918B8686F6D03FB00162E626869C01968650F
:20271C00AA6DA8695B465F4647EB03010F1C5946801841EB0301C019A865E869EF6DD846B6
:20273C0041EB08010A1C5946C01904F1480741EB08018018E86541EB030187E80300286E14
:20275C000A1CD949801880192866039804F1500787E80C000422FEF7E2F901283ED003982C
:20277C00D1490422FEF7DBF9B0F1FF3F07D00198049904277F1E41F8040BFBD15EE0CA481C
:20279C00DDF80CC00268DDF810E0DCF8000001995B465F46C6430120B61847EB03078019CC
:2027BC00CEF80000A86DDCF8042041EB07010E1C5946D243121843EB01039219CEF8042027
:2027DC00EA6DDCF808005F464FF0020643EB070319462BE0E0730020B8730020B248DDF88F
:2027FC000CE0DEF800200068DDF810C001995B465F46C6430120B61847EB03078019CCF85D
:20281C000000A86DDEF8046041EB07015F460A1CC0435946801941EB070101268018CCF85C
:20283C00040041EB0301E86DDEF80820049FC0430B461218D9B25218BA60FE60AB489A4A90
:20285C00D5F8901000685B4604F1480705F1580A4FF0040CA0FB01101160021C87E80C0045
:20287C000122019904F15803084683E803009F4B05EB0C06571C06F190000290029853F816
:20289C00046B50F804190290A6FB010E04F1480696E80003594604F1480610EB080041EB31
:2028BC00090186E8030004F1580696E800037F1E5946704604F1580610EB080041EB09012F
:2028DC00002F86E80300D9D1A06C04F148074AF8040B97E8030004F158030E1C93E8030077
:2028FC00521C0CF1040C5F4604F14803801941EB0701032A83E80300B3DB7C497B4FD5F80A
:20291C0098204968D5F89460794BA1FB02120918B868784F06FB001028661968E86F4FF03F
:20293C00040C012204F14806A1FB00103960824686E8000C05F1180A019904F1580308462E
:20295C0083E803006A4B05EB0C06571C06F17C000290029853F8046B50F804190290A6FBD2
:20297C00010E04F1480696E80003594604F1480610EB080041EB090186E8030004F1580689
:20299C0096E800037F1E5946704604F1580610EB080041EB0901002F86E80300D9D1A06CC6
:2029BC0004F148074AF8040B97E8030004F158030E1C93E80300521C0CF1040C5F4604F1D7
:2029DC004803801941EB0701032A83E80300B3DB474AD5F88430526804F15006A2FB0323C0
:2029FC0086E80C00121847EB0103414FB868414904F1480686E80C00D5F8806006FB00201C
:202A1C00286229480422FEF78AF8012836D0264838490422FEF783F8B0F1FF3F07D00199FE
:202A3C00059A0420401E42F8041BFBD15BE01E4A3048126800685946D9460126D243904667
:202A5C0018EB000849EB010916EB08063046059E019F3060AA6DA8695B4647EB09073F1C53
:202A7C00D243121843EB0103D2197260E86DEE69D84643EB08031946022525E00A481D4BC4
:202A9C000768059E18680199D846C2435B460120D21943EB080380183060A869AA6D41EB69
:202ABC0003015B460F1C01E048760020C0435946801841EB0301C01902467260E869EE6D62
:202ADC0041EB08010125FFE704F1500CC0430B4648348CE88001361884E80C000598D9B295
:202AFC0076188660C56007B0BDE8F08F6873002090730020087600202DE9F04F06460020C9
:202B1C00ADF1CC0D0090B1480F46C078069220B1012840F08D84052000E003208500AB4C95
:202B3C00089031462A4604F6D42030F031F820463946034604952A4600F65C2403F6D42029
:202B5C0005902830039030F023F8284630580195022805D0009D012808BF0125099502E0E0
:202B7C004FF0FF36099601983858022804D0009D012808BF012501E04FF0FF350020179031
:202B9C0018901590169012901390109011900E900F900B900C901C901D901E901F902090C6
:202BBC002190249026902790289029902A902B902D902E902F903090319000990D911491AA
:202BDC0019911B911A910A46079200F02CBCDDF804C007990698059A089FA36F04EB0C06E7
:202BFC00091806F1740E02F1500CCDF808C0781E83465808C0F03782099F7448002F00F197
:202C1C00600009DDDFF8C4C19CF80320002D07D4B2B1012A24D11BE0DFF8B0C19CF80320BA
:202C3C00002F06D5002D04DC002A2AD0012A38D12FE0002F22D4002D20D54AB1012A0FD1AD
:202C5C00D4F8A060720002EB8602D218009207E0D4F8A0C04FF01A0808FB0C3CCDF800C0E5
:202C7C00DDF800C00CF01F0CBCF1100FCDF800C084BF6246203A22D8624621E04AB1012A1D
:202C9C000FD1D4F8A060720002EB8602D218009207E0D4F8A0C04FF01A0808FB0C3CCDF885
:202CBC0000C0DDF800C00CF01F0CBCF1100FCDF800C087BF6246C2F120026246524252B228
:202CDC00002A0A7004DC51424FF0FF3C4AB201E04FF0010C521ECDF800C051104256DDF85B
:202CFC00009012FB0CF88C4610F90C0010FB09F00028D4BF4042404647B9A067B8F1000FAA
:202D1C00D4BF01274FF0FF370997BDE0002F03D5B8F1000F00F39880002F03DDB8F1000F99
:202D3C0000F19280DFF8A48098F80330002B37D1D4F880604EB9E76F17B9A16F88423FD0C1
:202D5C00374302D1A16F88424CD8A16FDDF8C490C043804608461B9901264F4604F17C02D9
:202D7C0018EB000849EB0709022716EB0800A06741EB0901DDF8C49010688846494618EB78
:202D9C00000849EB01091B994FF0FF367F1E16EB080042F8040B41EB0901002FEAD177E043
:202DBC00012B75D1D4F8886016BBD4F884707FB9D4F8802062B9E26F52B9A16F884207D173
:202DDC00DDF86C80CDF8248040460FE0F072002037430DD1D4F8807057B9E76F47B9A16F2C
:202DFC00884205D9099F7F420997401AA0674FE0A16FDDF8C490089FC043804608461B99CB
:202E1C004E4604F17C027F1E18EB000849EB0609012616EB0800A06741EB0901DDF8C4900E
:202E3C0010688846494618EB000849EB01091B994FF0FF367F1E16EB080042F8040B41EB15
:202E5C000901002FEAD123E0A16FDDF84090884610EB08004F46A0674FF0010047EB0901C1
:202E7C000F460CE004EB80018A6F3E46401C4F469046C0B216EB08068E6747EB09071FB1B9
:202E9C00DDF820808045EDDCDFF8448398F803300CEBC300DFF84CC3009F1CF9000010FB53
:202EBC0007F0002846BFC0F1000CCDF800C000905DB9DDF800C00028C4F8A0C0C8BF4FF04B
:202EDC00FF35002848BF0125D3E0002D02D5002800F3A880002D02DD002800F1A380002BE0
:202EFC0043D1D4F8A86086B9D4F8A4702FB9D4F8A000DDF800C084454CD0374305D1D4F8C5
:202F1C00A000DDF800C0844555D8DDF80080D4F8A0C0DDF8C4906FEA08006746494680465D
:202F3C0018EB070849EB01091B99012604F1A402022716EB0800C4F8A00041EB0901DDF816
:202F5C00C49010688846494618EB000849EB01091B994FF0FF367F1E16EB080042F8040BCC
:202F7C0041EB0901002FEAD183E0012B40F08180D4F8B0602EBBD4F8AC7077B9D4F8A820E4
:202F9C005AB9D4F8A42042B9D4F8A000DDF800C0844502D11B9D284610E0374311D1D4F89C
:202FBC00A87077B9D4F8A4705FB9D4F8A000DDF800C0844505D9ACEB00006D42C4F8A0006B
:202FDC0057E0DDF80080D4F8A0C0DDF8C490089F6FEA080066464946804618EB060849EBA6
:202FFC0001091B9904F1A4027F1E012616EB0800C4F8A00041EB0901DDF8C490106888468E
:20301C00494618EB000849EB01091B994FF0FF367F1E16EB080042F8040B41EB0901002F40
:20303C00EAD126E0D4F8A0C0319F009EE0460120B94616EB0806C4F8A06047EB0907C7B14E
:20305C00DDF820C0844514DD04EB800CDCF8A0803E46401C4F46C0B216EB0806CCF8A060BC
:20307C0047EB0907EBE7DDF864C0594F81F800C0FB7804F178015F4608684A687F1E4FEAC8
:20309C00500040EAC270086501F10401F4D1099FDEF80000002B0A974FEA5000CEF8500056
:2030BC0040F0A280002F00F09580002D00F08980BD4260D0039802990322FDF730FD012874
:2030DC002BD0039802990322FDF729FDB0F1FF3F06D01B98A0670746E767C4F88070A3E02B
:2030FC003199D4F8A000D4F8C880D4F8A450D4F8CC70D4F8A860D4F8D0C08946C2434B460D
:20311C0012EB08026FEA0500B84643EB09034F4610EB080041EB07011BE0D4F8C870FA43EE
:20313C00D4F8A0003199D4F8A470D4F8D060D4F8A8C08046894612EB0802B846D4F8CC708B
:20315C0009954B4643EB0903F84310EB080041EB0901DDF86C800127F543BF1848EB030840
:20317C000CEB050318EB000849EB010948461B183A46404620E0D4F8A080D4F8C8203199BA
:20319C00D4F8A47012EB0802D4F8CC8089464B4643EB09031846D4F8A8303D4618EB0508E5
:2031BC00D4F8D0504E464F4647EB06095B1910EB080041EB09015B18A267E067C4F88030C1
:2031DC0027E1D4F8C870D4F8CC80D4F8D030CFE7F0720020D4F8A020D4F8A400D4F8A8300B
:2031FC000995E9E758730020012B40F01281002F00F00981002D00F0FE80BD4240F0B680C2
:20321C00039802990522FDF78AFC012870D0039802990522FDF783FCB0F1FF3F06D0059830
:20323C001B99049A30F0EAFA1B9DF1E0D4F8A000DDF8C4C0D4F8C820C5432846D4F8CC709C
:20325C00D4F8A450634619468018099E22906FEA050041EB03013A46D4F8D05023911F4686
:20327C00801847EB03012F46D4F8A850EA43D4F8D45025901046C0198146D4F8B020D4F8FB
:20329C00AC00C6F1000698468B46674647EB03018A46D4F8D8100996C7437F1948EB030814
:2032BC000B46229D1B99239E01204019A06741EB06012598319E0D4659462D18E56746EB79
:2032DC000106319930460E4610EB090041EB0A010D46C4F880001946D343ED1901EB030003
:2032FC0046EB0806C4F884508019C4F8880090E0D4F8C810D4F8A000319BCD432D18D4F899
:20331C00A420D4F8CC006FEA0001D4F8B0C0D4F8D8E0D4F8A8001F46BB463E46D94646EB6D
:20333C000706884618EB020849EB0709D4F8D07022955946FA43D4F8AC7023961218D4F80F
:20335C00D400CDF89480BA466FEA000743EB0103384610EB0A009A462C9041EB0B0107466E
:20337C006346CB468846914672469AE7D4F8A000D4F8C810319BD4F8A470804611EB080112
:20339C00A167D4F8D060D4F8CC1099464A46B84642EB0902104611EB080243EB0903801892
:2033BC00E067D4F8A8004F4647EB03010246D4F8AC70D4F8D400CC466346B846B6184F467F
:2033DC004A4647EB0307891942EB0702D4F8D870C4F88010664610EB080043EB09011218BC
:2033FC00D4F8B000C4F8842046EB0103C019C018C4F888000CE005980299049A2FF0C8FB07
:20341C007F42099705E005980399049A2FF0C0FB099503980299049A2FF0BAFB0A9F07980B
:20343C007D42401C0790099F55EA07007FF4CFAB33B0BDE8F08F7CB5DD4C0646E078226953
:20345C00E169002815467AD0012840F0F8802846FCF7E6FDE069FCF704FFE06904F65C2224
:20347C002946FDF795F9616A04F65C20FDF7A6FD606A0146FDF7F5FD216A2846FDF7F1FD95
:20349C00E069216A04F65C22FDF782F9A16A04F65C20FDF793FDA06A0146FDF7E2FDE069E3
:2034BC00FCF7DFFEE069216A04F65C22FDF770F9216A04F65C20FDF781FDE069FCF7D1FEF9
:2034DC00E069216A04F65C22FDF762F9216B04F65C20FDF773FDE069616A04F65C22FDF74F
:2034FC0057F9616B04F65C20FDF768FDE069FCF7B8FEE069A16A04F65C22FDF749F9E16A86
:20351C0004F65C20FDF75AFDE06A0146FDF7A9FDE1692846FCF784FDE069FCF7A2FE206B10
:20353C00A16BFDF79EFDE069A16B04F65C22FDF72FF9A16B04F65C20FDF740FD7EE0104684
:20355C00FCF76EFDE069FCF78CFE216A2846FDF788FDE069216A04F65C22FDF719F9616A9C
:20357C0004F65C20FDF72AFDE06904F65C222946FDF70EF9A16A04F65C20FDF71FFDE06999
:20359C00FCF76FFEE069216A04F65C22FDF700F9216A04F65C20FDF711FDE069FCF761FED8
:2035BC00206A216BFDF75DFDE069216B04F65C22FDF7EEF8216B04F65C20FDF7FFFC206BE8
:2035DC000146FDF74EFD606A616BFDF74AFDE069616B04F65C22FDF7DBF8616B04F65C20E2
:2035FC00FDF7ECFC606B0146FDF73BFDE069FCF738FEE069A16A04F65C22FDF7C9F8E16A57
:20361C0004F65C20FDF7DAFCE06A0146FDF729FDE1692846FCF704FDE069FCF722FEE06952
:20363C00216B04F65C22FDF7B3F8A16B04F65C20FDF7C4FCA06B0146FDF713FDE078E1689E
:20365C0004F65C2540B101280CD1084605F128022946FDF776FD05E0084605F128022946D6
:20367C00FEF778FC04F2E44000214FF48F7230F0C5F805F1280104F2E4422846FFF73CFA94
:20369C00A178E069012589000560091F001D26F0DAFFE069A1782830890026F0D4FFE069EF
:2036BC00A1785030890026F0CEFF012E06D18E4800222946009213461BF094FF7CBD2DE9A4
:2036DC00F8433B4C8046E188E06949B96169FDF775FCB8F1010F61D100220092A06959E082
:2036FC00FCF7BFFDE788256BE66AD4F82090A26B636BD4F828C0D4F824E021693F1997F963
:20371C00E304002812DC3BD00F302ED0801E2BD0801E28D0801E25D0801E22D0801E1FD069
:20373C00801E1CD0801E19D0BDE8F883401E23D0801E11D0801E0ED0801E0BD0801E08D001
:20375C00801E05D0801E02D0801E27D113461D462E46B446E646F14649460DE08946CE46E8
:20377C00F446664635462B461A4604F65C211046FDF777FC04F65C21E0690246FDF708F8CB
:20379C00E088B8F1010FA0F10100E08006D1002255480092012113461BF024FFBDE8F88309
:2037BC00034B5A6119619A88D860D21CDA807047F07200201CB5B84C2060084611461A4635
:2037DC00FFF7EEFFB54800220121134600921BF009FF1CBD10B5FFF7E3FF0020FFF72BFEF6
:2037FC00C34CE08828B10020FFF769FFE0880028F9D10020FFF763FF10BD2DE9D04F0127E3
:20381C00B2B14FF0000B51F8044B50F804AB3E46D946E4435F46A04618EB0A0849EB0B099E
:20383C0016EB080643F8046B47EB0907521EEAD1002007B90120BDE8D08F10B5044634F00E
:20385C00010004D040F60420CC2129F043FE944991480A5D1838C470091902708C788A799A
:20387C0044700B798270032404EBC302828010BD2DE9F047884D8A46183DA978814605F62E
:20389C005C2006468A00503049462FF081F9AF78012406F1500818E040460146FCF7DCFBE8
:2038BC0040460146FCF7D8FBAF7867B1CC4606F150013B460A685CF8040B5B1E80EA020085
:2038DC0041F8040BF6D1641CA4B2A888401E00EBD070B4EB600FDFDDBA00504641462FF06E
:2038FC0057F9BDE8F087C046DB3600002DE9F0417F4C0646E0780D46C8B904F6842031468A
:20391C0018222FF045F904F6982001684FF00608090A022904D0032940F09A80012700E0FC
:20393C000027016801F0FF010160E07816E0012813D104F68420314628222FF029F904F694
:20395C00A82001684FF00A08022903D003297FD1012700E000270021E6E7002788B9306832
:20397C0000282FD1706800282CD1B068002829D1F068002826D13069002823D1706990B186
:20399C0020E03068F0B97068E0B9B068D0B9F068C0B93069B0B97069A0B9B06990B9F069F8
:2039BC0080B9306A70B94FEA8801284626F04BFE01204FEA0811A862091F05F12C0026F083
:2039DC0042FE65E004F65C20002128222FF016FF04F6842804F65C214046FDF7C5F804F6E3
:2039FC005C2004F65C21FCF737FB04F65C2104F65C224046FCF726FEE07804F65C26E8B992
:203A1C00306880F001003060316900F00100C1F3407181421CD130460146FFF729FF3068DE
:203A3C0000F001018F421CBF80F00100306005F1280231464046FCF75FFC22E0012827D13D
:203A5C00306A3468C0F3C03104F00100814203D04FF0FF30BDE8F08130460146FFF708FFA7
:203A7C00306800F001018F421CBF80F00100306005F1280231464046FCF73EFCB8E80F00FA
:203A9C000FC5B8E8070007C598E8070085E807000020BDE8F081C04608730020533400006A
:203ABC00A46F03002DE9F041114C0646E0780D4600282AD13068062700285DD170680028FB
:203ADC005AD1B068002857D1F068002854D13069002851D1706900284ED1B06A002848D134
:203AFC00F06A002845D1306B002842D102E0C046F0720020706B00283BD1B06B002838D177
:203B1C00F06B002835D118212EE0012864D130680A27002830D1706800282DD1B06800282B
:203B3C002AD1F068002827D13069002824D17069002821D1B06900281ED1F069E0B9306A91
:203B5C00D0B9B06AA8B9F06A98B9306B88B9706B78B9B06B68B9F06B58B9306C48B9706C91
:203B7C0038B9B06C28B92821284626F06CFDBDE8F0810020C4F85C0A04F65C213046FCF7CD
:203B9C00F3FF06F1280004F65C2104F65C22FCF7B3FBBA00284631462EF0FAFFE07804F660
:203BBC005C2880B9686900F007006861D8F80000400834BF4FF400704FF4407069690843CD
:203BDC006861BDE8F081012806D1D8F80000400834BF022003206862BDE8F0812DE9F04173
:203BFC00944C0546E078002821D12868B8B96868A8B9A86898B9E86888B9286978B9686955
:203C1C0068B9A86A58B9E86A48B9286B38B9686B28B9A86B18B9E86B002800F0D680686943
:203C3C00C00840F0D280E86BC00836D0CDE0012840F0CB802868002827D16868002824D10F
:203C5C00A868002821D1E86800281ED1286900281BD16869C8B9A869B8B9E869A8B9286AFA
:203C7C0098B9A86A88B9E86A78B9286B68B9686B58B9A86B48B9E86B38B9286C28B9686CC8
:203C9C0018B9A86C002800F0A080286AC00E40F09C80A86CC00E40F0988004F65C21284630
:203CBC00FCF7DAF904F6842204F65C2128461746FCF722FBE07804F65C2605F1280820B95D
:203CDC00384631460246FCF7BDFC3868314680F0010038604046FCF7BFF938463146024651
:203CFC00FCF7B0FC284641463246FCF705FB384631460246FCF7A6FCE078002824D13868C2
:203D1C00002862D1F06A00285FD1306B00285CD1706B002859D1B06B002856D1F06B002870
:203D3C0053D12868002853D16868002850D1A86800284DD1E86800284AD12869002847D194
:203D5C006869002841D043E001283ED1386800283BD1F06A002838D1306B002835D1706BDF
:203D7C00002832D1B06B00282FD1F06B00282CD1306C002829D1706C002826D1B06C00283C
:203D9C0023D12F687FB96E686EB9AE685EB9EE684EB92E693EB96E692EB9AE691EB9EE692C
:203DBC000EB92E6A8EB1012F12D1686880B9A86870B9E86860B9286950B9686940B9A86916
:203DDC0030B9E86920B9286A10B90020BDE8F0810120BDE8F0812DE9F04F84469346086884
:203DFC00DCF80020ADF1140D4FF0000AA2FB00439946002300930F4A019302F65C20029043
:203E1C000126046002F1480000F6182E80E80006019C02F15800062E234680E8180028BF2A
:203E3C00012371E05046214607220346FFF7E5FC5EE1C046F0720020291A5EF8213002995F
:203E5C0002F1480494E8C00001EB8001096A4C46A1FB03319B1902F1480644EB070402F167
:203E7C00580786E8180097E81800401C0E1C02F158014F46F61847EB040781E8C000E4E00B
:203E9C00F81A029D59F8201055F82300A0FB010C02F1480191E830005146001902F14804E8
:203EBC0041EB050184E8030002F1580191E830005B1C60465146001902F1580441EB050102
:203EDC0084E803005BE002F1480595E88001F01A5CF8234051F820005546A4FB0040E4193D
:203EFC0002F1480745EB080587E8300002F1580797E830005B1CD046071C02F158003F1934
:203F1C0048EB050880E88001032E34BF301C02209842D8D202F1480797E81800906C02F17E
:203F3C005805A14695E81800761C4EF8040B02F1480713EB090344EB0A04072E87E8180060
:203F5C00FFF466AF029FDCF80800496902F503793E4601FB0031F9617169D9F8000002F1F2
:203F7C00480406275646A1FB0010051C84E86000019902F15803084683E803000523082F74
:203F9C0034BF381C07209842BFF47AAF02F1580595E8180002F1480003C87F1C0D1C02F13F
:203FBC0048015B1944EB06040C2F81E81800DFD302990846D1F81CE0D9F818C08069D9F870
:203FDC001410DDF808A0AEFB0157A0FB0C08314640193D4641EB06014746C01841EB040158
:203FFC0003917B190F46554631463F46884641EB06042862AEFB0C517F1948EB0608554689
:20401C00FF1848EB04086F62434654465B18A362D2F86C11B14602F5B67E574607F1400C78
:20403C000AF13C0A02F14807A0FB0110CAF80010051C87E860000125019902F15803032D35
:20405C00084683E8030028BFA81E032D34BF291C02218142BFF4F0AE906C02F1580696E871
:20407C00180002F148074CF8040B97E803006D1C884602F1480713EB080344EB0904052DE5
:20409C0087E81800D8D30299DEF81400096A02F15006A1FB007886E88001029E3D46ED1866
:2040BC002F46314637654E4646EB0406331C4446E518029B02F148024F464E4646EB070676
:2040DC0082E86000496A1F463C461C2200FB015104F12000596571462EF05AFD5146072216
:2040FC0038460B46FFF789FB07F12004012808D0504621460722FCF712FDB0F1FF3F7FF4C4
:20411C0091AEBAE80700ABE807009AE8070005B08BE80700BDE8F08F2DE9F04F8446ADF168
:20413C00240D3F4C08680692DCF800204FF00009A2FB003204F65C2003909046036004F15D
:20415C00480080E80003A0784FF0041A00F1050E00900020019001220290029E009F04F1ED
:20417C0058003546974280E8600004DC3846101A401CC3B27AE0334678E0039FA1EB800578
:20419C006544AE6A07EB8005AD6BA5FB067804F1500686E8800104F1480696E800063D4611
:2041BC0004F148075E4615EB090546EB0A0687E8600004F1580797E86000471CF8B2474610
:2041DC00D8467F1904F1580548EB060885E8800143E1039D04F1480696E88001C1EA004398
:2041FC0043FB0AF3D31855F82050DB6A5E46A5FB0353ED1904F1480746EB080687E8600089
:20421C0004F1580797E86000D846471CF8B21F1C04F158037F1948EB060883E8800171E083
:20423C00F07200205CF8235004F1480696E88001C2EA034040FB0AF008584E46A5FB0050CF
:20425C00ED1904F1480746EB080687E8600004F1580797E860005B1CDBB2C846071C04F18D
:20427C0058007F1948EB060880E88001052AACBF0420101C9842D5DAA06C039B04F14807A7
:20429C0097E86000B04643F8220004F1580393E8600004F14807501CC2B215EB080546EB43
:2042BC000906964587E860003FF757AF0098039F009DD4F83862810004F1480304917818CA
:2042DC00001F05900068CDF81C9004F503724FEA450CA0FB06104946001C83E80300294604
:2042FC008C452CDDDDF81CB0A946AE46A9F101090EF1050E029E04F15800354680E860005E
:20431C005FFA89F08E45DABF009B1B1D0B1C8342BFF65FAF04F1480090E8600004F158035C
:20433C0093E88001491C351CC9B25B4604F148067F1948EB03088C4586E88001DADCDDF82F
:20435C0008C0DDF800E0DDF80C90DDF81CB061460EF1030E09F13809029E009F04F1580034
:20437C00354680E86000C819C0B2864528DB3B460CEBC30A039D04F1480696E88001AAEB01
:20439C0080039B1855F82050DB6A5E46A5FB0353ED1904F1480746EB080687E8600004F1E2
:2043BC00580797E86000D846471CF8B21F1C04F158037F1948EB0608864583E88001D9DAAA
:2043DC0004F1480797E86000A06C04F15803B24693E86000491C0CF1040C49F8040B04F1B8
:2043FC00480715EB0A0546EB0B06042987E86000B2DB0498059980184969039AC06A02F13A
:20441C0038030093A1FB007804F1500304F5B67C04F5CA7E5946384683E88001401907463B
:20443C0041EB060102F1640304F1480597644144D164D4F89411906B0593A0FB0110683292
:20445C00824619600421012385E8000C029E04F15800354680E860002846062BB4BF1D1CC2
:20447C0005258542BFF689AE04F1480797E86000A06CB24604F1580797E860005B1C091D4C
:20449C0042F8040B04F1480715EB0A0546EB0B060A2B87E86000D9DB049A00987146121D4E
:2044BC002EF076FBA0780599401CC2B203980B46FFF7A3F9012812D0A578681CC2B2009994
:2044DC000598FCF72CFBB0F1FF3F09D0059800996D1CEAB20346FFF790F9A578EDE7A57820
:2044FC0006980599AA002EF053FB09B0BDE8F08F2DE9F843A74B1F7800269FB14FF00009D9
:20451C0050F8048B51F8043B35464C464E4613EB080344EB0904ED1842F8045B46EB040661
:20453C007F1EEDD10020012E08BF0120BDE8F883F8B59446FFF7DCFFDB4C012818D004F524
:20455C00B676E578A778E90060463A4601EB45118919FCF7E4FAB0F1FF3F15D0E900604680
:20457C003A4601EB451103468919FFF746F9E8E7E078A278C10001EB4011091960460346ED
:20459C0001F5B671FFF739F9F8BD2DE9F843044617468846184607F11006314623F0DDFC70
:2045BC00DFF86C9305460021202248462FF026F910232A464946207880F05C0001F8010BF4
:2045DC0014F8010B5B1E80F0360002F8010BF2D147B105F110003A4618F8011B521E00F8AD
:2045FC00011BF9D109F11002284631462AF08AFD484620212A462AF085FDBDE8F8834A08DA
:20461C0010B50BD0431811465B1E1A78047800F8012B491E1C70A3F10103F6D110BD2DE94C
:20463C00F843A14C8146002704F10800C4F8542188460760282200F57170C4F8400104F5CF
:20465C00737000F12801C4F8441139462FF0D6F8E078267898B1D4F84051012821D128469F
:20467C00494632462EF094FA31462846FFF7C7FFD4F84051286A20F07840286210E0D4F8CD
:20469C004001494632462EF083FAD4F840012178FFF7B5FFD4F84051686900F007006861DD
:2046BC00E078A678C10001EB401132460919284601F5B67C6146FCF732FAB0F1FF3F05D0C0
:2046DC002846614632460346FFF797F8D4F84401394650222FF092F8D4F84011227840467B
:2046FC002EF056FA21784046FFF789FFBDE8F88338B56D4C0546D4F84011D4F84401FFF75E
:20471C00D1F9D4F85401D4F8401162782EF040FAD4F854016178FFF772FF012D08D10022B9
:20473C000092D4F8480194F84C1113461AF05AFF38BD10B55C4CC4F8480184F84C1110467B
:20475C00029A1946FFF76BFFE078D4F84011D4F84431502210FB0242A04802F51972FFF70B
:20477C0029F810BD08B5FFF75AFF4F4AD178D2F84001502311FB0321D2F8442101F51971E4
:20479C00FFF728F80020FFF7B3FF08BDD94800687047C046F2720020F8B5434C0646D4F83C
:2047BC004001002128222FF029F8E078F0B101284ED1D4F84001D4F85C1125222EF0E8F924
:2047DC00D4F840012521FFF71AFFD4F84001D4F84411FFF78BF8B0F1FF3F55D0D4F84001A3
:2047FC00627800212FF00AF84A212BE0D4F85C01D4F8402103784178052702F1100541EA22
:20481C000321801C51610378417841EA0321837843EA0123C1787F1E00F1040041EA032121
:20483C0045F80419EFD1D4F844111046FFF75EF8B0F1FF3F28D0D4F84001627800212EF082
:20485C00DDFF3021D4F86001D4F840212AF05AFCD4F84401FFF7C2F9B0B1D4F840011021E4
:20487C00FFF7CDFE3EB9D4F84411D4F840010A46FEF7B0FFF8BDD4F84421D4F84011AF4848
:20489C001346FEF797FFF8BD4FF0FF30012EA06008D100220092D4F8480194F84C111346E2
:2048BC001AF0A0FEF8BDC046F072002070B5C24D002605F108042660C5F85801C5F85C11D5
:2048DC00C5F86021C5F8543104F57174C5F8404105F5737404F12806C5F844617834C5F851
:2048FC00504170BD98B513460C4602465F08E118D0187F1C491E401E0B7802F8013B14F831
:20491C00013B491E7F1E0370A0F10100F4D198BDD477002038B5A84C05464FF0FF30A06017
:20493C00D4F85011D4F84401FBF77AFBD4F84001D4F858116278FFF7D5FFD4F84001D4F8F7
:20495C004411FEF7D3FFD8B9D4F85001D4F844110246FBF71DFFD4F85001D4F84411FCF7C9
:20497C002DFBD4F84401D4F84011FFF79BF8D4F85401D4F840116278FFF7B4FF0020A0605B
:20499C00012D08D100220092D4F8480194F84C1113461AF027FE38BD1CB5874CC4F848011C
:2049BC0084F84C1110461946049A059BFFF77EFF00220121B548009213461AF013FE1CBD7C
:2049DC0010B5FFF773FF0020FFF7E6FE7A4CA06818B90020FFF79EFFA06810BD0D47000019
:2049FC002DE9F843744C8046D4F84001FF2128222EF004FFE07820B9AC4F02254FF48026F0
:204A1C0004E0042541F6FF774FF40056D4F86811627804F57D70FFF765FFA37804F5737CC5
:204A3C0004F57D79D3B1D4F840E10020024601468D42B8BF0022A94204D100EB0C02926A2E
:204A5C003A4032438D42C4BF00EB0C02926A491C4EF800205B1E00F10400E9D14846002162
:204A7C0028222EF0CBFED4F8681162784846FFF739FFD4F844114846FEF738FFB0F1FF3F54
:204A9C0026D0D4F84401D4F85011FBF7C9FAD4F8641162784846FFF725FFD4F8441148469F
:204ABC00FEF724FFB0F1FF3F12D0D4F84001D4F84421B8F1000F014604D11146FEF78AFE1B
:204ADC00BDE8F88372481346FEF774FEBDE8F8834FF0FF30B8F1010FA06008D1002200924C
:204AFC00D4F8480194F84C1113461AF07BFDBDE8F883C046F872002070B52F4D002605F154
:204B1C0008042660C5F85801C5F85C11C5F86021C5F8643104F57174C5F8404105F573741A
:204B3C0004F15006C5F84461A034C5F850410498C5F868010598C5F8540170BD3149000072
:204B5C0084461D488CB54FF0FF318160C778D0F84411002F32D10F68B7B94F68A7B98F68F6
:204B7C0097B9CF6887B90F6977B94F6967B98F6A57B9CF6A47B90F6B37B94F6B27B98F6B92
:204B9C0017B9CF6B002F72D0097DD0F854211170D0F84421D0F8541105271032C91ED37840
:204BBC0001F8043F93784B7053788B7012F804397F1ECB70F3D158E0F0720020012F56D11D
:204BDC000F68002F25D14F68002F22D18F68002F1FD1CF68002F1CD10F69002F19D14F6992
:204BFC00BFB98F69AFB9CF699FB90F6A8FB98F6A7FB9CF6A6FB90F6B5FB94F6B4FB98F6B90
:204C1C003FB9CF6B2FB90F6C1FB94F6C0FB98F6C6FB391F82310D0F854211170D0F84411D4
:204C3C00D0F8542191F822105170D0F84411D0F8542191F821109170D0F84411D0F8542130
:204C5C0091F82010D170D0F84411D0F8542108271C31CB7802F8043F8B7853704B7893705C
:204C7C0011F804397F1ED370F3D100218160BCF1010F09D100230093D0F8482190F84C11C9
:204C9C0010461A461AF0AEFC8CBDC046B5470000B14C00002DE9F84380467E48007838B900
:204CBC00024F02254FF4802607E0C046FFFF0300042541F6FF774FF40056784CD4F8500139
:204CDC00D4F844110246FBF763FDD4F85001D4F84411FCF773F9D4F86011627804F57D7063
:204CFC00FFF700FEA37804F57D7904F5737CD3B1D4F840E10020024601468D42B8BF00222A
:204D1C00A94204D100EB0C02926A3A4032438D42C4BF00EB0C02926A491C4EF800205B1E48
:204D3C0000F10400E9D14846002128222EF066FDD4F8581122784846FFF7D4FDE078012889
:204D5C0006D0D4F8400149460246FFF744F805E0D4F8400149460246FFF7DEF94846002106
:204D7C0028222EF04BFDD4F85C1122784846FFF7B9FDD4F8400149460246FFF7D9FBE7784D
:204D9C00BFB1012F18BFD4F8406125D1D4F84061082506F12001086851F8042C6D1E4FEABE
:204DBC00800040EA927041F80409F4D13068800011E0D4F84061052506F11401086851F8BB
:204DDC00042C6D1E4FEA400040EAD27041F80409F4D1306840003060A57804F5B67C0CE070
:204DFC00F90030462A4601EB471103466144FEF704FDD4F84061A578E778F90030462A46C8
:204E1C0001EB47116144FBF78AFEB0F1FF3FE7D1D4F84411B8F1000F0A4604D13046FEF713
:204E3C00D9FCBDE8F8831C4831461346FEF7C2FCBDE8F8831CB5194CC4F8480184F84C1146
:204E5C00069800900798194601901046059B049AFFF752FE124800220121009213461AF00C
:204E7C00C1FB1CBD1CB5049C0094059C0194FFF743FE0020FFF7B4FD084CA06840B90020D3
:204E9C00FFF708FFA06818B90020FFF759FEA0681CBDC046F37200205D4B0000F07200201D
:204EBC00FD4900002DE9FC4117460D46804623F087F9002406461A210094284625F0C3FBB4
:204EDC003FB9A5F80140A5F80340404623F078F91AE04046072123F05BF84188E98101882C
:204EFC0029820179A9744079E874B088A5F801007088A5F80300404623F062F905F067FE83
:204F1C000146404623F0AEF90090FF2129720278401C2A7012F00307009008D1C2F3810187
:204F3C00032908D1681D694625F00BFB07E0022F15D1510913D20178E971401C009005F10F
:204F5C000900694625F0FDFA05F10B00694625F0F8FA009801782A782972401C0090014639
:204F7C000878D711687311D0481C00900178A97501F00301012918BF022907D1411C00917F
:204F9C000978E975801C0090007828766C76287D64F300002875287D64F342002875287DD9
:204FBC0064F3C3002875BDE8FC81A948F8B5FF2100221AF045FDA74C0026082742F62C40E4
:204FDC002518001D241814F8010F10B123F074F826707F1EF7D1EE70AE704FF6FF702880F0
:204FFC00EE736E732E71AE73F8BD70B50E4615460E2122F0CDFF0E21044625F024FB1E2012
:20501C00A0702680A5710220E0700120607170BD2DE9F04F0D46ADF11C0D0490287800274D
:20503C00C61106D0A97D01F00301012914BF0229012700F00301012905D1002F14BF052120
:20505C000221122604E0002F14BF0B2108210226800924BF491D46F02006049822F07DFF1E
:20507C0004460FB146F0800604F8016B700915D2287A04F8010B687A04F8010BB5F809003C
:20509C00001204F8010BE87A04F8010BB5F80B00001204F8010BE87904F8010B687B002F23
:2050BC0004F8010B00F0B180FF208DF80400B5F8010029F072FA42F6304742F63041654AC9
:2050DC00059042F6A800491E4FF0010C10185318904690F8009093F800A00390D01990F8DC
:2050FC0000E0029019FB0EFB5FFA8BF01BE000EB080142F63142575C9FB9A0EB0B018B105A
:20511C008A1001AF01EB537301EB527223F00703D210C91ABB5C0CFA01F181F0FF0119400C
:20513C00B954401CC0B2824505DD0EF1010111FB09F18142DBDCBAF1000F00F082809DF80D
:20515C000400FF2806D042F630400B3010F80870002F76D01EFB09F00027C3B227700BB159
:20517C00022084462178029A039B6046084304F8010B1078197810FB01F2082A08DB6920A6
:20519C0040F6185128F0A6F9029803990078097811FB00F004F8010B9DF8040004F8010BC9
:2051BC009DF804209DF8041042F6314303F10900FF2A00F808101CBF401C00F8087011D106
:2051DC00DFF88882FF213A4640461AF039FC0598002814BFC32140F28A218A004046394685
:2051FC001AF073FADFF86880FF213A4640461AF027FC0598002814BFC32240F28A22394630
:20521C0040461AF062FA02201ED0B0090AD30498042122F087FFB5F80120002120460B46E1
:20523C0021F0DEFB049CB5F8011001222046FFF7DCFE094800222146009213461AF0D2F917
:20525C0002E0049822F038FF07B0BDE8F08FC046F174000010010020EDB600002DE9F04FFC
:20527C005FFA81F9ADF1540D0F90C8B222F0A8FF00244FF6FF71ADF80810FF218DF82D10F6
:20529C0041788DF82E40490911D34178090934BF00F1080200F11002136809A90B60526802
:2052BC004A6081880BAB224609A811F0F1F848460DF10A010122FFF7F5FDA246574610949B
:2052DC009DF80A001194C61107D09DF8201001F00301012914BF02290127BDF80BC05FEAED
:2052FC00070B00F0B580604629F057F906469DF80A004D46C0F38107002F40F09580C00956
:20531C00C0F092805148FF2101AA1AF04DF910F11C0F17D1002E14BFC32040F28A208200A5
:20533C004A4851461AF0D1F950461CF02BFA06201CF029FB002E14BFC32040F28A208000F7
:20535C001CF09AFABF48FF2101AA1AF02DF910F11C0F08D1002E14BFC32240F28A22B948C5
:20537C0051461AF0B2F9C34842F63948A8F10D08BDF80B1030F8086042F62E4C4FF6FF728B
:20539C000CF1010303F1020EB24207D0B1424BD110F80C609DF81720B24245D19DF82120F2
:2053BC00092A10DBC75C0FB197420CDC2748FF2152461AF045FBA348FF2152461AF040FBB6
:2053DC00FFF7F3FD30E020F808109DF8171000F80C109DF8201001F0030CBCF1010F01D167
:2053FC00C75CCFB101F0030102291DD181187346C9180F78C7B943F64F33C35C9E0807D34C
:20541C00012A05D103F0FD0343F64F3143540BE00D700121914003E0C254012100F80E5060
:20543C0042F63942815402E05FF0FF3007D1BBF1000F18D19DF80A00BDF80BC008E00F983E
:20545C0022F03AFE284622F037FE0EE1C74F00009DF81710C0F38107524607B90122604614
:20547C002BF0B8FA8246BAF1000F05D09AF8020010F07F0040F0E88048461A2122F088FDE1
:20549C000DF10A011A222DF083FB9DF80A0080090AD3484602A90DF12D020DF12E0321F065
:2054BC0061FB002840F0C58050462BF07DFABDF8080005F06AF807461A21484622F068FD0E
:2054DC005FB13A7E017D520862F300010175067D397E8A1062F3420606759DF82E20017DF7
:2054FC00BBF1000F62F3C301017579D00F9B614F42F63A400B3800F1020A3E1807EB0A055A
:20551C0023B118460DF10A01FFF782FDCDF84890337813942046B846834203DD2F5C002F0D
:20553C0040F08480002B4FD083424DD1AAF1050008EB00010C91801C274608EB00010D9122
:20555C000B3008EB0001A0F1070A0E9115E0E85D1A2122F01DFD317805EB0709491EB94213
:20557C00D2BF211C07EB08011AF8011041760FB189F8004033787F1CFFB2BB42E7DC12988A
:20559C0005F051F88848FF2122461AF059FA2D48FF2122461AF054FA4FF6FF7734700D98A3
:2055BC000C99047042F630460F800E9B08F8064042F63A421C70204608F802401CF0E2F8BC
:2055DC0020461CF02FFA05E0484605F02CF86FF0010013901398002847D128782C70814697
:2055FC009DF80A0000F00301012917D010F0030F12D1C0F3810003280ED1BDF80F0012F0F2
:20561C0055FF08B3BF4801224946109222462346009219F0E7FF1AE0BB48F4E7BDF808100D
:20563C009DF82D20484629F01DFA10E0401CC0B272E7484622F040FD01222146B348119292
:20565C00E4E7C046F1740000484622F035FDBBF1000F08D10F9830B1119820B90F980DF1E3
:20567C000A01FFF7D5FC109808B91CF0C3FA15B0BDE8F08F1001002010B5A54C01460022D1
:20569C001046A35C994203D0521C0C2AF9D310BD4FF0FF3010BD014601F00302012A11D02A
:2056BC00C1F381030020032B08BF0120C91100F10800C0B207D0801C022AC0B204BF401CEB
:2056DC00C0B270470220704770B5064635782846FFF7E1FF0446A80903D3A05D21F0CCF9A6
:2056FC002418204670BD70B518210646ADF1200D22F04EFC0446002201A93046FFF7D2FB9F
:20571C001821204624F09FFFBDF80F002081BDF80D0060819DF80C00002560739DF80400E2
:20573C00E573C00903D3207C40F004002074304622F046FDFFF7C8FF0146304622F092FD0C
:20575C002A4631462B467348009219F04BFF08B070BD98B50C4622F033FD217800F8011BC2
:20577C00217811F0030707D1C1F38101032907D1611D0988018006E0022F11D149090FD29B
:20579C00E17900F8011B04F10901097804F10B0701703978871C3970217AB81C00F8011B07
:2057BC00617B017098BDC046C74F0000C24A2DE9F84F42F63D4B1BF8023042F6A701054676
:2057DC0002EB0109002B40D0C5B14FF4315099F80170865C0BF1040C16FB07F0C0B201E0F6
:2057FC00401CC0B2834230DD741C14FB07F484422BDD84181CF80440A542F1D1C94C481C6F
:20581C0002EB000E24789EF800004FF001080BF1010A14FB00F0C0B20CE0237808FA07F1FE
:20583C00194321701BF8023042F6A70602EB0609401CC0B2834208DDBA499EF80040097867
:20585C00491C11FB04F1814202DC0020BDE8F88F4FEAE00C02EB0C045444217800F0070788
:20587C0008FA07F60E42E3D1161842F64141761831780029DCD00DB18D42CED00CEB0200F1
:20589C000BF10202105C08FA07F3034224D01CF0A7F9DFF884B0214875B90025009531789A
:2058BC002A46134619F09EFE2A460092317858462B4619F097FE1CE099F8002031784FF46D
:2058DC007A7A4FF470551AFB02F2B2FBF5F219F0FCFE3178584604E04FF47A7A4FF47055A6
:2058FC000C4899F800201AFB02F2B2FBF5F219F0ECFE21784046B840084320706FF00300A3
:20591C00BDE8F88FDF710000AF88020099ED0000F0290020D96F00000B740000EDB600008D
:20593C002DE9F04F4FF0000BADF1440D16468DF81AB08046CDF830B05F4CCDF834B016F14C
:20595C00030FCDF838B00878CDF83CB015D142F64A42125DFF2A10D008EBC80042F674258D
:20597C000019285C08EBC8010C1920F0E00040F0A00028556FF00100B6E142F63D42A218E8
:20599C0013780892002B00F0AE81C71100F0AB81C0F38107002F40F0A681624A42F6A8003B
:2059BC00201807901278007812FB00F0C5B23EB116F1030F09D15B485A49807AC97A01E040
:2059DC00087EC97D0E918DF81A0042F63F402018099010F8011C0170D1E07719387848B199
:2059FC0099F80710814201D022F066FB089887F800B003786D1CEDB24FE1601942F6414107
:205A1C0042F663274018E21906780A900D2158460932D379B34204D0491E00F10100F7D100
:205A3C00A9E00E9F42F66C21824604EB0109AF427ADC39460831A94276DB3946691A8A10B7
:205A5C0001EB52720DEBE202937E01268F1001EB577222F00702891A06FA01F1194263D0D4
:205A7C00314605F00702099E0B92914006EBE50681F0FF0731780A9A08EBC8033940317008
:205A9C0003EB09011278C979914217D0092110FB01F039F800000DF11B0359460A4610F00A
:205ABC0041FF18B99DF81B0010F0F6FD0A98007822F002FB04E0C0461001002001200F9012
:205ADC000A9880F800B00B9A3178012303FA02F0014203D00F40377018460D90D0454AD049
:205AFC0009201AFB0090017A6BF3471101724FF6FF770780FF26C671D1485A46514619F021
:205B1C009FFF42F6E120075D27B9692040F6A96127F0E0FC42F6E120005D42F6E121401E64
:205B3C00085528E0502D002009201AFB0096F07969465A46FFF7B6F970887779B379ADF85D
:205B5C00090069468DF8087032798DF80730F0798DF80D20FFF7FDFD327AF0793188C2F37F
:205B7C00001282F00102FFF740FA307A20F0E00040F020003072089803786D1CEDB2AB4296
:205B9C0009DDB04F079801783878401C10FB01F0A8423FF732AF42F63D4642F63F40761CDF
:205BBC00A51985F800B0005D594600B90121A54A0D9F1278A34E5218327037B9594600B1A5
:205BDC000121E87A4018E87204E042F64140083000F804B042F6494004EB000A9AF80000A6
:205BFC00032841DA5846FFF7E1FD10F1040F37D10F9800283FF4BEAE08EBC80542F66C20C3
:205C1C002D192D1828885F460DF11B0339463A4610F088FE00B10127FF2638464FF6FF77B0
:205C3C0018B99DF81B0010F037FDE87922F044FA287A5FFA88F16BF3471028725A462F80D0
:205C5C007F48EE7119F0FCFE42F6E125285D20B9692040F6EC6127F03DFC285D401E88E6B6
:205C7C0042F6414026181BE042F66C204FF0FF3142F6414725180C91E619584601E0401C6F
:205C9C00C0B283420CDD08EBC80101EB0509375C99F807209742F2D15D46AB423FF79DAE1A
:205CBC003046082124F0CFFC0898664A42F6494180F800B00D398AF800B0601880F800B0F8
:205CDC0080F810B0807C82F800B038B1123165180EF00FF910B1287822F0EEF942F6414088
:205CFC000D3000F804B00C9811B0BDE8F08FB0B50C461546162122F04BF904F00301032953
:205D1C0004D101218173B5F805100180C4F38107002107B90121C17400214175C0F80A1019
:205D3C00B0BD2DE9F84F8B46C94D9BF80060814643F2642009EBC9042F18641942F66C20DA
:205D5C002418E07990460FFA88F122F09FF8B8F1000F18BF18F1030F02D1208812F015FC59
:205D7C0006F00300012838D0022801D1700934D218F1020F44D0484659464246FFF7D0FDBC
:205D9C0010F1020F59D0E079162122F001F94FF0000A0746A379607987F80EA039467872EF
:205DBC0020883B7210F0E3FD002807BF0320B87320883880E07931465A46FFF798FF18F1F0
:205DDC00030F08BFD0465246C7F80F80CB480092E179534619F006FC12E0E0793978884269
:205DFC0008D1002042F26C063870705D401CC0B20BF039F918F1020F02D0E07922F05CF9CC
:205E1C00207A4FF6FF77FF2620F0E0005FFA89F12072002227800A48E67119F011FE42F6D5
:205E3C006C2707F17504605D20B9692040F68B7127F050FB605D401E6055BDE8F88FC0468D
:205E5C00E5770000502D00202DE9F0478046ADF1200D22F0B5F9044604F0B9FE205C00F02E
:205E7C00030102292BD0C00924D351480078C00920D2002022F0F0F84E4C071C0BD1404617
:205E9C0004F0D1FB41462046002222F0CBF8002800F08B8086E000200090434639460122DE
:205EBC00204619F09FFB00287FD0404622F004F9B84677E041460020FFF7D0F975E040461B
:205EDC0001A90122FEF7EEFF9DF80460604CBDF805E042F64B490025A9F1010A42F6632C5B
:205EFC000D21C6F3001704EB0C0030F8092F964516D19DF8112003799A4211D1BFB9BDF83E
:205F1C000D2043889A420BD19DF80B2043799A4206D182799DF80C30934208D0FF2A06D00E
:205F3C00491E05F10105E0D11BF064FE3AE0017AC1F34211012922D0022920D0C07906466C
:205F5C00FFF79AFB88B9A94905EBC507CB5D60460022241810460934E1798B4201D1A84209
:205F7C0006D1401C0D28F6DB04E03046FFF7BBFB6FF00102284601A9FFF7D3FE12E0017A18
:205F9C00F71121F0E00141F0400101720AD0C6F381073FB99DF81B0004F809009DF81C701D
:205FBC0004F80A70404622F087F808B0BDE8F0875C3C0020795200002DE9F04F162180468F
:205FDC00ADF1240D21F0E4FF0446D4F80F90B8F1000F04D1692040F64B0127F07BFA01A860
:205FFC001A2124F030FB404622F0EAF8064601A900224046FEF756FF4046FFF73DFB0028CD
:20601C000CBF00250125DFF8D4B2DFF844A0317801F00300022800F0BE80C80939D2AE486F
:20603C000078804516D0002D2FD1404601AAFFF75EFE9DF80C009DF80B7000224146607245
:20605C00134627722D48009219F0CCFACAE0C04610010020CDB9A07B58B1208800210DF10A
:20607C001E030A4610F05EFC18B99DF81E0010F013FB3078FFF70FFB00F10D01404622F068
:20609C00F1F8404623F0BDFDACE04046FFF72BFBA8E09DF81120544642F663200027261872
:2060BC000D200936F179884502D131798A4204D0401E07F10107F4D13EE0307AC0F3421113
:2060DC0004292FD05A46A2F1110048452AD002291CD0B9F1000F07D1012907D0692040F645
:2060FC00EB0127F0F7F901E04A4509D0307A20F0E00040F0600030721EE0C046B9F80000C7
:20611C00E53A384601A9FFF70CFE15E0002D08BF6FF00202F5D0384601A96FF00102FFF78B
:20613C0000FE06E0384601A96FF49562FFF7F9FD15B14046FFF7D7FA0D2F53D1404621F0E7
:20615C00BBFF42F663254FF000094FF6FF7B4FF0FF0A66194F467E350936F079404516D17F
:20617C00307A69F34710394630724A46A6F800B0CF4886F807A019F063FC2B5D23B9692016
:20619C004FF4136127F0A6F9285D401E28557F1C0D2FE1DB26E025B1692040F6670127F069
:2061BC0099F99DF804000026C71107D09DF81A0000F00300012802D0022800D07EB15A465D
:2061DC00BC324A450BD0544642F63A40015DFF2918BF401C02D10A38065D761C065540465B
:2061FC0021F06AFF09B0BDE8F08FC046832B00202DE9FE4FC44EBA4F019042F64140301848
:20621C0000907878002200E0521C904259D90099019D8B5CAB42F7D14FF0000842F66C2B85
:20623C00C1460BF1750B484514D80098082124F00AFA87F80D8087F8018087F8108087F8D3
:20625C000080B87C87F8048021F036FF87F81280BDE8FE8F009B42F66C20341809EB030A36
:20627C009AF800004546093C0934E17981421CD1207AFF224FF6FF7368F347102072E9B208
:20629C00E2718B482380424619F0DAFB1BF8063023B969204FF4EF7127F01CF91BF806001D
:2062BC00401E0BF806009AF800006D1C0D2DDBD30199884201D021F0FFFE787809F1010921
:2062DC00B1E7002100E0491C8842FCD80D20401EFDD1BDE8FE8FC046E82900203EFCFFFF0C
:2062FC002DE9B0418046ADF1140D21F069FF0025014604460295891D2078CF4A8DF80C0048
:20631C00C2381DD0401E16D0401E0DD0001F1CBFC84802901DD1104609780278490002F0E5
:20633C00FD0201F0020112E010460A6817300260496841600DE01046C01C1FF096FC08E0F1
:20635C0010460978027801F0010102F0FE0211430170D4F802704046052121F0FEFD02A985
:20637C000A680979026001711FB9404621F0A4FE06E02A46414638462B46009219F032F996
:20639C0005B0BDE8B081F0B50746ADF1140D21F017FF026802A90A6040684860A64E9DF826
:2063BC0008000024C23835D0401E26D0401E15D0001F07D03846062121F0CFFD05466C715F
:2063DC009C4C33E03846072121F0C7FD05463146012068710878C0F3400026E038460E2149
:2063FC0021F0BBFD054631460820173168710A68A81D02604968416018E038461A2121F000
:20641C00ACFD054631461420C91C6871A81D1FF02CFC0BE03846072121F09FFD0546314607
:20643C0001206871087800F00100A8719DF80800287103982C6018B9384621F03DFE05E0DF
:20645C00002239460092134619F0CCF805B0F0BDCB4821F0E2BD2DE9F8430F1C99461546EC
:20647C00804622D00C2121F093FD0446C4F800900026A780AF42E6720EDDA088401BA080C0
:20649C00C04848EA0521324621F0CCFD68B14FF0FF30C4F8060001E0C4F8066032464146E3
:2064BC0048463346009219F09DF8BDE8F883C046E577000038B5041C05D1B1480021C32225
:2064DC0019F003F938BD21F01AFDBF4D687821F02AFDBE4B2A7881B22046FFF7BCFF38BD70
:2064FC004C2D0020F8B5084C43F64F31615C090928BF4FF4107029D2002501216B462A4651
:20651C0010F010FA08BB01E01001002042F65041A446481E0A222B460CEB010E0CEB0004C9
:20653C00284614F8067F2FB11EF800709DF80060BE4205D0521E00F1060003F10103F0D1F0
:20655C000A2B02D26044891C0D5A2846F8BDF0B50F4606461821ADF11C0D21F019FD04468C
:20657C00E57D162101A824F06EF8E07B8DF81200607B8DF80D00207B8DF80C00216801A886
:20659C00016061684160304639B2CDF8137021F07DFC002416218DF8174030468DF8195046
:2065BC0021F0F6FC162201A92CF0F2FA8848224631462346009219F015F807B0F0BDF8B501
:2065DC00CB4C43F64F31615C090928BF482026D2002501216B462A4610F0A4F9F0B942F6D3
:2065FC005041A446481E0A222B460CEB010E0CEB0004284614F8067F2FB11EF800709DF806
:20661C000060BE4205D0521E00F1060003F10103F0D10A2B02D26044091D0D5C2846F8BDAA
:20663C0008B5FFF7CCFF1338C0B23628A8BF352008BDC04650FBFFFF75270020AC492DE90E
:20665C00F04F0446ADF1240D079042F63E40401E0E1837784FF00009002F7DD1C8468B46A2
:20667C00001DCDF818800BEB000A34E0204621F05AFC404418211FFA80F8204621F088FC5A
:20669C000546307833780AF80040581CEC7D3070C0B201280CD06946284618222CF078FA25
:2066BC00687D40F0020068753078401EA87509E06846294618222CF06BFA2F7C687D40F026
:2066DC000100687547F00C00EC754B46287442F63E410BF8013014B130780828C6DD9AF832
:2066FC000000182121F054FC0746F87B022809D0032818BF4FF6FF7509D1384610F07AF89C
:20671C00054600E03D884FF6F870A84204DC692040F2496126F0DEFE2846FFF781FF8246F3
:20673C00079821F000FC824538BF4FF0FF393078082800D13CB92846FFF7D4FE4045A4BFA0
:20675C003078B87508DA42F63E401321801E584423F079FF4FF0FF39484609B0BDE8F08FD5
:20677C0038B5054600E025462846012121F010FC0478284621F0A0FC002CF4D138BDC0464A
:20679C00D1640000297A000010B5ADF1180D694610F0EDF8002498B96C480088214604AB22
:2067BC000A4610F0BFF858B99DF8101002A810F013F9684602A908222FF0FAF900B90124C7
:2067DC00204606B010BDC0465D2D002081750000B9F800002DE9FE4F054693460C46002064
:2067FC00C5F3810ABAF1030F08BF01204FEAE518BAF1030F00904FF0000008BF012000F1FA
:20681C000806B8F1000F18BF00F10A06104621F0CAFC374842F29C01002381464718387848
:20683C00019310F0070F12D0217C48080FD3BAF1020F0CD0480938BF761D02D301200D3635
:20685C0001905846042121F06DFC45F020055846314621F067FD824668090AF8015B04D3FC
:20687C00692040F2A97126F035FE0098002808BF207B04D020780AF8010B208800120AF886
:20689C00010BA07A0AF8010B608900120AF8010B207A0AF8010B208900120AF8010B607B53
:2068BC000AF8010B607C012824D0B8F1000F14D097F8A10B88B1607D00F00300012809D1D2
:2068DC0042F2646009EB0001087887F8A00B0878401C087097F8A00B0DE042F2646009EB9E
:2068FC00000108780AF8010B0878401C087004E010010020207D0AF8010BC7480078400909
:20691C0005D343F6503010F809000AF8010CB8F1000F05D0607D0AF8010BA07D0AF8010B07
